:020000040800F2
:1000000000000220992300083D1D0008431D000840
:10001000491D00084F1D0008551D00080000000084
:100020000000000000000000000000005B1D000850
:10003000691D000800000000771D0008851D0008EC
:10004000E9230008E9230008E9230008E923000860
:10005000E9230008E9230008E9230008E923000850
:10006000E9230008E9230008E9230008E923000840
:10007000E9230008E9230008E9230008E923000830
:10008000E9230008E9230008E9230008E923000820
:10009000E9230008E9230008E9230008E923000810
:1000A000E9230008E9230008E9230008E923000800
:1000B000E9230008E9230008E9230008E9230008F0
:1000C000E9230008E9230008E9230008E9230008E0
:1000D000E9230008E9230008911D00089D1D000880
:1000E000E9230008E9230008E9230008E9230008C0
:1000F000E9230008E9230008E9230008E9230008B0
:10010000E9230008E9230008E9230008E92300089F
:10011000E9230008E9230008E9230008E92300088F
:10012000E9230008E9230008E9230008E92300087F
:10013000E9230008E9230008E9230008E92300086F
:10014000E9230008E9230008E9230008E92300085F
:10015000E9230008E9230008E9230008A91D000895
:10016000E9230008E9230008E9230008E92300083F
:10017000E9230008E9230008E92300080000000043
:08018000E9230008E92300084F
:1001900010B5054C237833B9044B13B10448AFF3C1
:1001A00000800123237010BDE80100200000000042
:1001B000A488000808B5034B1BB103490348AFF3FB
:1001C000008008BD00000000EC010020A4880008A9
:1001D000034613F8012B002AFBD1181A0138704787
:1001E00001F0FF01102A2BDB10F0070F08D010F8E8
:1001F000013B013A8B422DD010F0070F42B3F6D1EC
:10020000F0B441EA012141EA014122F007047FF004
:1002100000070023F0E80256083C85EA010586EA5B
:10022000010685FA47F5A3FA87F586FA47F6A5FA97
:1002300087F68EB9EED1F0BC01F0FF0102F00702A3
:1002400032B110F8013B013A83EA010313B1F8D14E
:100250000020704701387047002D06BF354603382F
:10026000073815F0010F07D1013015F4807F02BF68
:10027000013015F4C03F0130F0BC0138704700BFB9
:1002800081F0004102E000BF83F0004330B54FEA47
:1002900041044FEA430594EA050F08BF90EA020FB4
:1002A0001FBF54EA000C55EA020C7FEA645C7FEA47
:1002B000655C00F0E2804FEA5454D4EB5555B8BF6A
:1002C0006D420CDD2C4480EA020281EA030382EADB
:1002D000000083EA010180EA020281EA0303362D6D
:1002E00088BF30BD11F0004F4FEA01314FF4801C40
:1002F0004CEA113102D0404261EB410113F0004F52
:100300004FEA03334CEA133302D0524263EB430308
:1003100094EA050F00F0A780A4F10104D5F1200EA6
:100320000DDB02FA0EFC22FA05F2801841F1000101
:1003300003FA0EF2801843FA05F359410EE0A5F1D5
:1003400020050EF1200E012A03FA0EFC28BF4CF006
:10035000020C43FA05F3C01851EBE37101F00045BC
:1003600007D54FF0000EDCF1000C7EEB00006EEBC9
:100370000101B1F5801F1BD3B1F5001F0CD3490853
:100380005FEA30004FEA3C0C04F101044FEA4452AA
:1003900012F5800F80F09A80BCF1004F08BF5FEA31
:1003A000500C50F1000041EB045141EA050130BD11
:1003B0005FEA4C0C404141EB0101013C28BFB1F523
:1003C000801FE9D291F0000F04BF01460020B1FA6E
:1003D00081F308BF2033A3F10B03B3F120020CDA41
:1003E0000C3208DD02F1140CC2F10C0201FA0CF01F
:1003F00021FA02F10CE002F11402D8BFC2F1200C84
:1004000001FA02F120FA0CFCDCBF41EA0C01904039
:10041000E41AA2BF01EB0451294330BD6FEA040482
:100420001F3C1CDA0C340EDC04F11404C4F120026D
:1004300020FA04F001FA02F340EA030021FA04F37F
:1004400045EA030130BDC4F10C04C4F1200220FAD6
:1004500002F001FA04F340EA0300294630BD21FA14
:1004600004F0294630BD94F0000F83F4801306BFDA
:1004700081F480110134013D4EE77FEA645C18BFCE
:100480007FEA655C29D094EA050F08BF90EA020F65
:1004900005D054EA000C04BF1946104630BD91EA5D
:1004A000030F1EBF0021002030BD5FEA545C05D160
:1004B0004000494128BF41F0004130BD14F580049F
:1004C0003CBF01F5801130BD01F0004545F0FE4113
:1004D00041F470014FF0000030BD7FEA645C1ABF48
:1004E000194610467FEA655C1CBF0B46024650EA7F
:1004F000013406BF52EA033591EA030F41F40021AB
:1005000030BD00BF90F0000F04BF0021704730B530
:100510004FF4806404F132044FF000054FF0000105
:1005200050E700BF90F0000F04BF0021704730B5C6
:100530004FF4806404F1320410F0004548BF40429B
:100540004FF000013EE700BF42004FEAE2014FEAF0
:1005500031014FEA02701FBF12F07F4393F07F4FCB
:1005600081F06051704732F07F4208BF704793F0CE
:100570007F4F04BF41F40021704730B54FF46074E1
:1005800001F0004521F000411CE700BF50EA0102E4
:1005900008BF704730B54FF000050AE050EA01028D
:1005A00008BF704730B511F0004502D5404261EBFD
:1005B00041014FF4806404F132045FEA915C3FF43E
:1005C000D8AE4FF003025FEADC0C18BF03325FEADB
:1005D000DC0C18BF033202EBDC02C2F1200300FA8C
:1005E00003FC20FA02F001FA03FE40EA0E0021FAB1
:1005F00002F11444BDE600BF70B54FF0FF0C4CF49F
:10060000E06C1CEA11541DBF1CEA135594EA0C0F50
:1006100095EA0C0F00F0DEF82C4481EA030621EA8B
:100620004C5123EA4C5350EA013518BF52EA0335C6
:1006300041F4801143F4801338D0A0FB02CE4FF078
:100640000005E1FB02E506F00042E0FB03E54FF0A8
:100650000006E1FB03569CF0000F18BF4EF0010EA0
:10066000A4F1FF04B6F5007F64F5407404D25FEA9C
:100670004E0E6D4146EB060642EAC62141EA55514F
:100680004FEAC52040EA5E504FEACE2EB4F1FD0C91
:1006900088BFBCF5E06F1ED8BEF1004F08BF5FEA0F
:1006A000500E50F1000041EB045170BD06F00046C1
:1006B00046EA010140EA020081EA0301B4EB5C046E
:1006C000C2BFD4EB0C0541EA045170BD41F4801166
:1006D0004FF0000E013C00F3AB8014F1360FDEBF8B
:1006E000002001F0004170BDC4F10004203C35DA67
:1006F0000C341BDC04F11404C4F1200500FA05F3EA
:1007000020FA04F001FA05F240EA020001F000428A
:1007100021F0004110EBD37021FA04F642EB060100
:100720005EEA430E08BF20EAD37070BDC4F10C042A
:10073000C4F1200500FA04F320FA05F001FA04F2EE
:1007400040EA020001F0004110EBD37041F10001DA
:100750005EEA430E08BF20EAD37070BDC4F12005E5
:1007600000FA05F24EEA020E20FA04F301FA05F24D
:1007700043EA020321FA04F001F0004121FA04F2F5
:1007800020EA020000EBD3705EEA430E08BF20EAC5
:10079000D37070BD94F0000F0FD101F000464000FF
:1007A00041EB010111F4801F08BF013CF7D041EA81
:1007B000060195F0000F18BF704703F00046520085
:1007C00043EB030313F4801F08BF013DF7D043EA56
:1007D0000603704794EA0C0F0CEA135518BF95EA0C
:1007E0000C0F0CD050EA410618BF52EA4306D1D193
:1007F00081EA030101F000414FF0000070BD50EAB2
:10080000410606BF1046194652EA430619D094EA3B
:100810000C0F02D150EA013613D195EA0C0F05D125
:1008200052EA03361CBF104619460AD181EA030179
:1008300001F0004141F0FE4141F470014FF0000031
:1008400070BD41F0FE4141F4780170BD70B54FF0CC
:10085000FF0C4CF4E06C1CEA11541DBF1CEA13554C
:1008600094EA0C0F95EA0C0F00F0A7F8A4EB05042E
:1008700081EA030E52EA03354FEA013100F0888025
:100880004FEA03334FF0805545EA131343EA1263EE
:100890004FEA022245EA111545EA10654FEA0026A3
:1008A0000EF000419D4208BF964244F1FD0404F55C
:1008B000407402D25B084FEA3202B61A65EB0305B8
:1008C0005B084FEA32024FF480104FF4002CB6EB75
:1008D000020E75EB030E22BFB61A754640EA0C00F5
:1008E0005B084FEA3202B6EB020E75EB030E22BF35
:1008F000B61A754640EA5C005B084FEA3202B6EB76
:10090000020E75EB030E22BFB61A754640EA9C0034
:100910005B084FEA3202B6EB020E75EB030E22BF04
:10092000B61A754640EADC0055EA060E18D04FEAC2
:10093000051545EA16754FEA06164FEAC30343EA62
:1009400052734FEAC2025FEA1C1CC0D111F4801F2F
:100950000BD141EA00014FF000004FF0004CB6E728
:1009600011F4801F04BF01430020B4F1FD0C88BFC7
:10097000BCF5E06F3FF6AFAEB5EB030C04BFB6EBD2
:10098000020C5FEA500C50F1000041EB045170BDC5
:100990000EF0004E4EEA113114EB5C04C2BFD4EBF2
:1009A0000C0541EA045170BD41F480114FF0000E76
:1009B000013C90E645EA060E8DE60CEA135594EAF2
:1009C0000C0F08BF95EA0C0F3FF43BAF94EA0C0FF5
:1009D0000AD150EA01347FF434AF95EA0C0F7FF46A
:1009E00025AF104619462CE795EA0C0F06D152EABE
:1009F00003353FF4FDAE1046194622E750EA4106A2
:100A000018BF52EA43067FF4C5AE50EA41047FF4B2
:100A10000DAF52EA43057FF4EBAE12E74FF0FF3C17
:100A200006E000BF4FF0010C02E000BF4FF0010CE8
:100A30004DF804CD4FEA410C7FEA6C5C4FEA430C61
:100A400018BF7FEA6C5C1BD001B050EA410C0CBFB0
:100A500052EA430C91EA030F02BF90EA020F002012
:100A6000704710F1000F91EA030F58BF994208BF79
:100A700090422CBFD8176FEAE37040F00100704736
:100A80004FEA410C7FEA6C5C02D150EA013C07D18D
:100A90004FEA430C7FEA6C5CD6D152EA033CD3D0D8
:100AA0005DF8040B704700BF8446104662468C46D2
:100AB0001946634600E000BF01B5FFF7B7FF002805
:100AC00048BF10F1000F01BD4DF808EDFFF7F4FF2E
:100AD0000CBF012000205DF808FB00BF4DF808EDB9
:100AE000FFF7EAFF34BF012000205DF808FB00BFDC
:100AF0004DF808EDFFF7E0FF94BF012000205DF8FE
:100B000008FB00BF4DF808EDFFF7CEFF94BF0120B2
:100B100000205DF808FB00BF4DF808EDFFF7C4FFAB
:100B200034BF012000205DF808FB00BF4FEA410CF4
:100B30007FEA6C5C02D150EA013C0AD14FEA430CD7
:100B40007FEA6C5C02D152EA033C02D14FF0000014
:100B500070474FF0010070474FEA410212F5001252
:100B600015D211D56FF47873B3EB625212D94FEAF4
:100B7000C12343F0004343EA505311F0004F23FADE
:100B800002F018BF404270474FF00000704750EA33
:100B9000013005D111F0004008BF6FF000407047F0
:100BA0004FF00000704700BF4A0011D212F500124A
:100BB00011D20DD56FF47873B3EB62520ED44FEAB5
:100BC000C12343F0004343EA505323FA02F0704735
:100BD0004FF00000704750EA013002D14FF0FF3073
:100BE00070474FF0000070474FEA4102B2F1E04316
:100BF00024BFB3F5001CDCF1FE5C0DD901F0004C04
:100C00004FEAC0024CEA5070B2F1004F40EB830053
:100C100008BF20F00100704711F0804F21D113F17F
:100C20003872BCBF01F00040704741F480114FEAB8
:100C30005252C2F11802C2F1200C10FA0CF320FA41
:100C400002F018BF40F001004FEAC1234FEAD3235E
:100C500003FA0CFC40EA0C0023FA02F34FEA4303C8
:100C6000CCE77FEA625307D150EA01331EBF4FF051
:100C7000FE4040F44000704701F0004040F0FE406C
:100C800040F40000704700BF53B94AB9002908BFBB
:100C900000281CBF4FF0FF314FF0FF3000F0AAB921
:100CA000ADF1080C6DE904CE00F03CF8DDF804E08D
:100CB000DDE9022304B0704738B500220023044662
:100CC0000D46FFF70BFF28B920462946BDE83840FE
:100CD00000F00AB8204605F1004100F005F8404256
:100CE00061EB410138BD00BFD0B50C4B0022064678
:100CF0000F46FFF781FCFFF757FF0446FFF702FCA2
:100D0000074B0022FFF778FC02460B463046394677
:100D1000FFF7BAFAFFF748FF2146D0BD0000F03DCB
:100D20000000F0412DE9F047089D04468E46002B57
:100D30004DD18A42944669D9B2FA82F252B101FA8F
:100D400002F3C2F1200120FA01F10CFA02FC41EA9F
:100D5000030E94404FEA1C48210CBEFBF8F61FFA24
:100D60008CF708FB16E341EA034306FB07F19942BF
:100D70000AD91CEB030306F1FF3080F01F81994272
:100D800040F21C81023E63445B1AA4B2B3FBF8F04C
:100D900008FB103344EA034400FB07F7A7420AD9D3
:100DA0001CEB040400F1FF3380F00A81A74240F2FB
:100DB00007816444023840EA0640E41B00261DB166
:100DC000D4400023C5E900433146BDE8F0878B429B
:100DD00009D9002D00F0EF800026C5E9000130465A
:100DE0003146BDE8F087B3FA83F6002E4AD18B4234
:100DF00002D3824200F2F980841A61EB03030120DE
:100E00009E46002DE0D0C5E9004EDDE702B9FFDEC9
:100E1000B2FA82F2002A40F09280A1EB0C014FEA74
:100E20001C471FFA8CFE0126200CB1FBF7F307FBD1
:100E3000131140EA01410EFB03F0884208D91CEB74
:100E4000010103F1FF3802D2884200F2CB80434611
:100E5000091AA4B2B1FBF7F007FB101144EA0144F0
:100E60000EFB00FEA64508D91CEB040400F1FF317F
:100E700002D2A64500F2BB800846A4EB0E0440EA6D
:100E800003409CE7C6F12007B34022FA07FC4CEA76
:100E9000030C20FA07F401FA06F31C43F9404FEA69
:100EA0001C4900FA06F3B1FBF9F8200C1FFA8CFE7E
:100EB00009FB181140EA014108FB0EF0884202FAD2
:100EC00006F20BD91CEB010108F1FF3A80F0888093
:100ED000884240F28580A8F102086144091AA4B250
:100EE000B1FBF9F009FB101144EA014100FB0EFED1
:100EF0008E4508D91CEB010100F1FF346CD28E4500
:100F00006AD90238614440EA0840A0FB0294A1EB90
:100F10000E01A142C846A64656D353D05DB1B3EBED
:100F2000080261EB0E0101FA07F722FA06F3F1401D
:100F30001F43C5E9007100263146BDE8F087C2F1C4
:100F40002003D8400CFA02FC21FA03F3914001433C
:100F50004FEA1C471FFA8CFEB3FBF7F007FB103675
:100F60000B0C43EA064300FB0EF69E4204FA02F421
:100F700008D91CEB030300F1FF382FD29E422DD974
:100F8000023863449B1B89B2B3FBF7F607FB1633A9
:100F900041EA034106FB0EF38B4208D91CEB010129
:100FA00006F1FF3816D28B4214D9023E6144C91AA9
:100FB00046EA004638E72E46284605E70646E3E6B9
:100FC0001846F8E64B45A9D2B9EB020864EB0C0EC3
:100FD0000138A3E74646EAE7204694E74046D1E7D2
:100FE000D0467BE7023B614432E7304609E7644480
:100FF000023842E7704700BF80B500AF07220349BF
:10100000034800F009FC00BF80BD00BF00000020C5
:1010100000140140000000002DE9B04F8CB006AF75
:10102000786039603B68FB600023FB75FB681B78C8
:101030003B2B40F0548100233B6109E03B69FA6897
:1010400013441A78FB7D1344FB753B6901333B6104
:101050003B692B2BF2DD3B682C331B78FA7D9A42DF
:1010600040F03D813B6807331B781B023A6806322B
:10107000127813431846FFF755FA9BA3D3E90023D0
:10108000FFF7BAFA02460B4610461946FFF7ACFDC9
:1010900002467B681A603B6809331B781B023A687A
:1010A00008321278134307EE903AF8EEE77A7B683D
:1010B000C3ED017A7B68D3ED017A9FED917AF4EE6E
:1010C000C77AF1EE10FA19DB7B68D3ED017A9FED58
:1010D0008D7A77EEC77A17EE900AFFF735FA82A37A
:1010E000D3E90023FFF788FA02460B46104619465B
:1010F000FFF77AFD02467B685A6012E07B685B6806
:101100001846FFF721FA78A3D3E90023FFF774FA12
:1011100002460B4610461946FFF766FD02467B68FD
:101120005A603B680B331B781B023A680A3212780C
:1011300013431846FFF7F6F96DA3D3E90023FFF731
:101140005BFA02460B4610461946FFF74DFD024674
:101150007B689A603B680D331B781B023A680C323F
:101160001278134307EE903AF8EEE77A7B68C3ED06
:10117000037A3B6819331B781B023A6818321278DD
:101180001343A3F6AB231846FFF7CCF95AA3D3E9D0
:101190000023FFF731FA02460B4610461946FFF7C7
:1011A00023FD02467B681A613B681D331B781B02D6
:1011B0003A681C3212781343A3F6AB231846FFF7A4
:1011C000B1F94DA3D3E90023FFF716FA02460B4607
:1011D00010461946FFF708FD02467B685A613B68D6
:1011E0002A331B789B1103F00103002B14BF01234A
:1011F0000023DAB27B685A763B682A331B785B118E
:1012000003F00103002B14BF01230023DAB27B6833
:101210001A763B682B331B785B1003F00103002B1D
:1012200014BF01230023DAB27B689A763B682B3324
:101230001B789B1003F00103002B14BF0123002334
:10124000DAB27B68DA767B681B681846FFF77CF9B0
:1012500082468B467B685B681846FFF775F9044643
:101260000D467B689B681846FFF76EF980468946F5
:101270007B68DB681846FFF767F902460B46CDE945
:101280000423CDE90289CDE9004552465B461E485C
:1012900003F086FC7B681B691846FFF755F9044686
:1012A0000D467B685B691846FFF74EF902460B4610
:1012B000CDE9002322462B46144803F071FC7B68DD
:1012C0005B7E19467B681B7E1A467B689B7E1846B0
:1012D0007B68DB7E009303460D4803F061FC00BF92
:1012E0001837BD46BDE8B08F7B14AE47E17A843F26
:1012F0007B14AE47E17A943F9A9999999999B93FAD
:1013000000FEFF4600FF7F47C0880008F488000801
:101310001489000880B500AF01228021044801F043
:101320007DFB01224021034801F078FB00BF80BD16
:10133000000C02400014024080B485B000AFF86099
:10134000B9607A603B60FB687A685A60FB68BA688B
:101350001A60FB681A68FB68DA60FB681A68FB6849
:101360001A61FB6800229A60FB683A685A61FB6860
:10137000BA699A6100BF1437BD465DF8047B7047B7
:1013800080B483B000AF78607B68002B01D100236C
:1013900001E07B689B6818460C37BD465DF8047B0E
:1013A000704790B585B000AF78607B68002B01D1A5
:1013B000002308E07B685C687868FFF7E1FF03467C
:1013C000E31AFB60FB6818461437BD4690BD80B534
:1013D00086B000AFF860B9607A6000237B610023BB
:1013E0003B617B68002B05D0FB68002B02D0BB68FB
:1013F000002B01D1002341E0F868FFF7D2FF3861EC
:101400003B69002B01D1002338E03A697B689A429E
:1014100001D23B697B607B687B61FB685B69002B69
:101420001FD0FB685B6998471BE0BA68531CBB6020
:10143000FB68DB68581CF968C86012781A70FB6892
:10144000DA68FB681968FB685B680B449A4203D34F
:10145000FB681A68FB68DA60FB689B685A1CFB68CB
:101460009A607B695A1E7A61002BDED1FB689B690A
:10147000002B02D0FB689B6998477B681846183799
:10148000BD4680BD80B586B000AFF860B9607A60B7
:1014900000237B6100233B617B68002B05D0FB6848
:1014A000002B02D0BB68002B01D1002341E0F8687B
:1014B000FFF766FF38613B69002B01D1002338E05C
:1014C0003A697B689A4201D23B697B60FB685B6941
:1014D000002B02D0FB685B6998477B687B611BE04F
:1014E000FB681A69511CFB681961BB68591CB9601B
:1014F00012781A70FB681A69FB681968FB685B68E8
:101500000B449A4203D3FB681A68FB681A61FB68B4
:101510009B685A1EFB689A607B695A1E7A61002B91
:10152000DED1FB689B69002B02D0FB689B69984762
:101530007B6818461837BD4680BD80B483B000AFC5
:1015400078607B681B6803F01003102B0CBF01232D
:101550000023DBB218460C37BD465DF8047B7047AC
:1015600080B483B000AF78607B681B6803F0200311
:10157000202B0CBF01230023DBB218460C37BD46DD
:101580005DF8047B704780B483B000AF78607B68FF
:101590001B6803F04003402B0CBF01230023DBB288
:1015A00018460C37BD465DF8047B704780B485B0A3
:1015B00000AF78607B681B68FB60FB687B685B68DA
:1015C000FB60FB6800BF1437BD465DF8047B7047C5
:1015D00080B483B000AF78607B686FF040021A601F
:1015E00000BF0C37BD465DF8047B704780B483B004
:1015F00000AF78607B686FF020021A6000BF0C3784
:10160000BD465DF8047B704780B489B000AF786058
:101610007B680C33FB60FB6853E8003FBB60BB6832
:1016200043F01003FB617B680C33FA69BA617B619C
:101630007969BA6941E800233B613B69002BE7D136
:1016400000BF00BF2437BD465DF8047B704780B4FF
:1016500089B000AF78607B680C33FB60FB6853E8AF
:10166000003FBB60BB6843F02003FB617B680C3329
:10167000FA69BA617B617969BA6941E800233B6123
:101680003B69002BE7D100BF00BF2437BD465DF8A2
:10169000047B704780B483B000AF78607B685B6880
:1016A000DBB218460C37BD465DF8047B704780B44A
:1016B00083B000AF78600B46FB70FA787B685A60A5
:1016C00000BF0C37BD465DF8047B704780B582B023
:1016D00000AF78607B68DBB219460748FFF7E7FF89
:1016E00000BF0548FFF74FFF0346002BF9D07B688A
:1016F00018460837BD4680BD0048004080B400AFA2
:1017000072B600BF00BFBD465DF8047B704780B471
:1017100000AF62B600BF00BFBD465DF8047B7047F6
:1017200080B582B002AF214B0093214B4FF4806211
:1017300020492148FFF700FE1C4B00931C4B4FF43F
:1017400080621E491E48FFF7F7FD184B0093184BA7
:101750004FF480621B491C48FFF7EEFD1B48FFF762
:1017600076FF1A48FFF750FF1948FFF770FF184837
:10177000FFF74AFF1748FFF76AFF1648FFF744FFD5
:10178000154800F02FF8154800F02CF8144800F028
:1017900029F80E48FFF71CFF0D48FFF719FF0D4809
:1017A000FFF716FF00BFBD4680BD00BF0F17000842
:1017B000FD1600088016002064160020600E002030
:1017C000440E002040060020240600200044004073
:1017D0000048004000140140400A00202002002080
:1017E0006012002080B582B000AF7860FFF786FFFE
:1017F0007B6804334FF480620021184602F04EFBF0
:101800007B6800221A707B6800225A80FFF77FFFF6
:1018100000BF0837BD4680BD80B586B000AFF86018
:10182000B9601346FB8000237B6111E07B69BA68D5
:1018300013441B781946F868FFF739FF00BFF868B2
:10184000FFF7A1FE0346002BF9D07B6901337B61D2
:10185000FB887A699A42E9DB00BF00BF1837BD46B2
:1018600080BD000080B582B000AF1648FFF778FE5B
:101870000346002B0ED01348FFF7B8FE1148FFF7C0
:1018800009FF0346FB71FB1D012219460E48FFF7B5
:101890009EFD12E00B48FFF750FE0346002B0CD0D4
:1018A0000848FFF783FE094B01221A700648FFF72C
:1018B00067FD03469AB2054B5A8000BF0837BD4604
:1018C00080BD00BF00440040440E0020400A0020BC
:1018D00080B582B000AF1648FFF742FE0346002BEA
:1018E0000ED01348FFF782FE1148FFF7D3FE0346E0
:1018F000FB71FB1D012219460E48FFF768FD12E03F
:101900000B48FFF71AFE0346002B0CD00848FFF7E0
:101910004DFE094B01221A700648FFF731FD0346C0
:101920009AB2054B5A8000BF0837BD4680BD00BF44
:1019300000480040240600202002002080B582B02C
:1019400000AF1648FFF70CFE0346002B0ED01348DD
:10195000FFF74CFE1148FFF79DFE0346FB71FB1D90
:10196000012219460E48FFF732FD12E00B48FFF73F
:10197000E4FD0346002B0CD00848FFF717FE094B87
:1019800001221A700648FFF7FBFC03469AB2054B8A
:101990005A8000BF0837BD4680BD00BF001401401B
:1019A000641600206012002080B58CB000AF07F1F3
:1019B0001C0300221A605A609A60DA601A610023E0
:1019C000BB614F4B1B6B4E4A43F0040313634C4BFC
:1019D0001B6B03F00403BB61BB6900237B61484BB5
:1019E0001B6B474A43F020031363454B1B6B03F00B
:1019F00020037B617B6900233B61414B1B6B404AA9
:101A000043F0800313633E4B1B6B03F080033B6189
:101A10003B690023FB603A4B1B6B394A43F00103DF
:101A20001363374B1B6B03F00103FB60FB68002360
:101A3000BB60334B1B6B324A43F002031363304BE2
:101A40001B6B03F00203BB60BB6800237B602C4B65
:101A50001B6B2B4A43F008031363294B1B6B03F0EA
:101A600008037B607B6800233B60254B1B6B244A8B
:101A700043F040031363224B1B6B03F040033B60B6
:101A80003B68002240211F4800F0C8FF00224FF4AD
:101A900080511D4800F0C2FF002280211B4800F049
:101AA000BDFF4023FB6101233B6200237B620023D7
:101AB000BB6207F11C031946124800F013FE4FF4F5
:101AC0008053FB6101233B6200237B620023BB62E6
:101AD00007F11C0319460C4800F004FE8023FB614B
:101AE00001233B6200237B620023BB6207F11C03DE
:101AF0001946064800F0F6FD00BF3037BD4680BDF0
:101B0000003802400014024000040240000C024071
:101B100080B500AF2F4B304A9A6000F067FC00F0B0
:101B200075F8FFF741FF00F015FB00F073FB00F0C4
:101B3000D3FBFFF7EFFBFFF7F3FD284803F0B6F800
:101B4000274B1B78002B0FD0254B00221A70244BFB
:101B50005B881A4623492448FFF794FCFFF74CFAA8
:101B60001F48FFF73FFE2EE0204B1B78002B11D0C3
:101B70001E4B00221A701D4B5B881A461C491D48DB
:101B8000FFF780FC1A491C4803F00AF81748FFF7D2
:101B900029FE18E0194B1B78002B14D0174B00229C
:101BA0001A70164B5B881A4615491648FFF76AFCEF
:101BB000124B5B882C2B03D911491348FFF72CFAE1
:101BC0000E48FFF70FFEFFF717FA4FF47A7000F098
:101BD0007FFCB5E700ED00E0000001086489000823
:101BE000200200202402002024060020400A0020B9
:101BF000440A0020440E0020708900086012002072
:101C000064120020641600200402002080B594B005
:101C100000AF07F1200330220021184602F03EF900
:101C200007F10C0300221A605A609A60DA601A61A8
:101C30000023BB60284B1B6C274A43F0805313647E
:101C4000254B1B6C03F08053BB60BB6800237B609B
:101C5000224B1B68214A43F4804313601F4B1B68CF
:101C600003F480437B607B6801233B624FF4803345
:101C70007B620223BB634FF48003FB6304233B645A
:101C8000A8237B640223BB640423FB6407F12003C5
:101C9000184600F0DDFE0346002B01D000F020F8CE
:101CA0000F23FB6002233B6100237B614FF4A053B1
:101CB000BB614FF48053FB6107F10C03052118460B
:101CC00001F03EF90346002B01D000F009F800BFF7
:101CD0005037BD4680BD00BF003802400070004054
:101CE00080B400AF72B600BFFEE7000080B483B0DE
:101CF00000AF00237B60104B5B6C0F4A43F48043C2
:101D000053640D4B5B6C03F480437B607B68002362
:101D10003B60094B1B6C084A43F080531364064B2D
:101D20001B6C03F080533B603B6800BF0C37BD4623
:101D30005DF8047B704700BF0038024080B400AFFC
:101D4000FEE780B400AFFEE780B400AFFEE780B4EA
:101D500000AFFEE780B400AFFEE780B400AF00BF85
:101D6000BD465DF8047B704780B400AF00BFBD4640
:101D70005DF8047B704780B400AF00BFBD465DF8DE
:101D8000047B704780B500AF00F082FB00BF80BDD0
:101D900080B500AFFFF766FD00BF80BD80B500AF26
:101DA000FFF796FD00BF80BD80B500AFFFF7C6FD11
:101DB00000BF80BD80B400AF01231846BD465DF86A
:101DC000047B704780B582B000AF7860396002F064
:101DD0003BF8034616221A604FF0FF3318460837C7
:101DE000BD4680BD80B582B000AF78604FF0FF3156
:101DF0007868FFF7E7FFFEE780B586B000AFF860D0
:101E0000B9607A6000237B610AE0AFF3008001468D
:101E1000BB685A1CBA60CAB21A707B6901337B6115
:101E20007A697B689A42F0DB7B6818461837BD46B2
:101E300080BD80B586B000AFF860B9607A600023DD
:101E40007B6109E0BB685A1CBA601B781846FFF733
:101E50003DFC7B6901337B617A697B689A42F1DBE7
:101E60007B6818461837BD4680BD80B483B000AF8C
:101E700078604FF0FF3318460C37BD465DF8047BA1
:101E8000704780B483B000AF786039603B684FF42E
:101E900000525A60002318460C37BD465DF8047B9B
:101EA000704780B483B000AF7860012318460C37C8
:101EB000BD465DF8047B704780B485B000AFF86024
:101EC000B9607A60002318461437BD465DF8047B7C
:101ED0007047000080B586B000AF7860144A154B9B
:101EE000D31A7B617B693B61134B1B68002B02D1CA
:101EF000114B124A1A60104B1A687B6813443A69F6
:101F00009A4207D201F0A0FF03460C221A604FF05C
:101F1000FF3309E0084B1B68FB60074B1A687B68BE
:101F20001344054A1360FB6818461837BD4680BD48
:101F30000000022000040000801A0020981A0020EF
:101F400080B400AF064BD3F88830054A43F47003E1
:101F5000C2F8883000BFBD465DF8047B704700BF03
:101F600000ED00E080B400AF044BDB681B0A03F017
:101F700007031846BD465DF8047B704700ED00E09E
:101F800080B483B000AF0346FB7197F90730002B94
:101F90000BDBFB7903F01F02074997F907305B0958
:101FA000012000FA02F241F8232000BF0C37BD46A1
:101FB0005DF8047B704700BF00E100E080B483B0AF
:101FC00000AF03463960FB7197F90730002B0ADB3D
:101FD0003B68DAB20C4997F907301201D2B20B44D0
:101FE00083F800230AE03B68DAB20849FB7903F082
:101FF0000F03043B1201D2B20B441A7600BF0C3718
:10200000BD465DF8047B704700E100E000ED00E0B4
:1020100080B489B000AFF860B9607A60FB6803F003
:102020000703FB61FB69C3F10703042B28BF0423EB
:10203000BB61FB690433062B02D9FB69033B00E05B
:1020400000237B614FF0FF32BB6902FA03F3DA43EE
:10205000BB681A407B699A404FF0FF317B6901FAF7
:1020600003F3D9437B680B40134318462437BD461E
:102070005DF8047B704780B483B000AF78607B6804
:10208000DB6843F400527B68DA6000BF0C37BD4662
:102090005DF8047B704780B483B000AF78607B68E4
:1020A0001B6923F490427B681A617B685B6923F0AB
:1020B0002A027B685A6100BF0C37BD465DF8047B7D
:1020C0007047000080B485B000AF7860084B1A6B91
:1020D00007497B6813430B63054B1A6B7B681340FE
:1020E000FB60FB6800BF1437BD465DF8047B70479A
:1020F0000038024080B485B000AF7860084B1A6C9D
:1021000007497B6813430B64054B1A6C7B681340CB
:10211000FB60FB6800BF1437BD465DF8047B704769
:102120000038024080B485B000AF7860084B5A6C2C
:1021300007497B6813434B64054B5A6C7B6813401B
:10214000FB60FB6800BF1437BD465DF8047B704739
:102150000038024080B58EB000AF07F11C030022AA
:102160001A605A609A60DA601A615A619A613B1D7E
:1021700000221A605A609A60DA601A615A614FF45C
:102180000030FFF7B7FF0120FFF79CFF0C237B60B7
:102190000223BB600323FB6000233B6100237B61C0
:1021A0000723BB613B1D1946184801F0BAF9FFF738
:1021B000D9FE0346002203211846FFF729FF0346F4
:1021C00019462620FFF7FAFE2620FFF7D9FE4FF426
:1021D0001653FB6100233B6200237B620023BB623A
:1021E0000C23FB6200233B6300237B6307F11C038A
:1021F0001946074801F0A8FD0548FFF74CFF0448C1
:10220000FFF739FF00BF3837BD4680BD00000240F0
:102210000044004080B58EB000AF07F11C030022DF
:102220001A605A609A60DA601A615A619A613B1DBD
:1022300000221A605A609A60DA601A615A614FF49B
:102240008020FFF757FF0820FFF73CFF4FF4407353
:102250007B600223BB600323FB6000233B61002300
:102260007B610723BB613B1D1946194801F059F9F1
:10227000FFF778FE0346002202211846FFF7C8FE4A
:10228000034619462720FFF799FE2720FFF778FE1F
:102290004FF4E133FB6100233B6200237B620023A8
:1022A000BB620C23FB6200233B6300237B6307F1CB
:1022B0001C031946074801F047FD0648FFF7EBFEEF
:1022C0000448FFF7D8FE00BF3837BD4680BD00BFC9
:1022D000000C02400048004080B58EB000AF07F10E
:1022E0001C0300221A605A609A60DA601A615A610F
:1022F0009A613B1D00221A605A609A60DA601A6186
:102300005A612020FFF70EFF4020FFF7DBFE4FF45D
:1023100084437B600223BB600323FB6000233B619B
:1023200000237B610823BB613B1D1946184801F05F
:10233000F8F8FFF717FE0346002201211846FFF7C1
:1023400067FE034619464720FFF738FE4720FFF790
:1023500017FE4FF41653FB6100233B6200237B62A0
:102360000023BB620C23FB6200233B6300237B63DF
:1023700007F11C031946074801F0E6FC0548FFF782
:102380008AFE0448FFF777FE00BF3837BD4680BDA0
:102390000018024000140140DFF834D00D480E4907
:1023A0000E4A002302E0D458C4500433C4188C42AF
:1023B000F9D30B4A0B4C002301E013600432A24214
:1023C000FBD3FFF7BDFD01F045FDFFF7A1FB704713
:1023D0000000022000000020E80100204C8E0008D0
:1023E000E8010020981A0020FEE7000080B500AF49
:1023F0000E4B1B680D4A43F4007313600B4B1B68B4
:102400000A4A43F480631360084B1B68074A43F48D
:1024100080731360032000F031F90F2000F008F8FA
:10242000FFF764FC0023184680BD00BF003C02405B
:1024300080B582B000AF7860124B1A68124B1B78DF
:1024400019464FF47A73B3FBF1F3B2FBF3F318467A
:1024500000F03BF90346002B01D001230EE07B681E
:102460000F2B0AD8002279684FF0FF3000F011F9E5
:10247000064A7B681360002300E0012318460837F2
:10248000BD4680BD08000020100000200C00002088
:1024900080B400AF064B1B781A46064B1B681344EA
:1024A000044A136000BFBD465DF8047B704700BF5F
:1024B00010000020841A002080B400AF034B1B687A
:1024C0001846BD465DF8047B704700BF841A0020A3
:1024D00080B584B000AF7860FFF7EEFFB8607B682E
:1024E000FB60FB68B3F1FF3F05D00A4B1B781A462F
:1024F000FB681344FB6000BFFFF7DEFF0246BB68CA
:10250000D31AFA689A42F7D800BF00BF1037BD4609
:1025100080BD00BF1000002080B485B000AF78609F
:102520007B6803F00703FB600C4BDB68BB60BA6899
:102530004FF6FF031340BB60FB681A02BB681343EE
:1025400043F0BF6343F40033BB60044ABB68D3600D
:1025500000BF1437BD465DF8047B704700ED00E016
:1025600080B400AF044BDB681B0A03F00703184676
:10257000BD465DF8047B704700ED00E080B483B099
:1025800000AF03463960FB7197F90730002B0ADB77
:102590003B68DAB20C4997F907301201D2B20B440A
:1025A00083F800230AE03B68DAB20849FB7903F0BC
:1025B0000F03043B1201D2B20B441A7600BF0C3752
:1025C000BD465DF8047B704700E100E000ED00E0EF
:1025D00080B489B000AFF860B9607A60FB6803F03E
:1025E0000703FB61FB69C3F10703042B28BF042326
:1025F000BB61FB690433062B02D9FB69033B00E096
:1026000000237B614FF0FF32BB6902FA03F3DA4328
:10261000BB681A407B699A404FF0FF317B6901FA31
:1026200003F3D9437B680B40134318462437BD4658
:102630005DF8047B7047000080B582B000AF786021
:102640007B68013BB3F1807F01D301230FE00A4A8D
:102650007B68013B53600F214FF0FF30FFF78EFF87
:10266000054B00229A60044B07221A60002318468B
:102670000837BD4680BD00BF10E000E080B582B0E5
:1026800000AF78607868FFF747FF00BF0837BD46A6
:1026900080BD80B586B000AF0346B9607A60FB7339
:1026A00000237B61FFF75CFF78617A68B96878691D
:1026B000FFF78EFF024697F90F3011461846FFF7D5
:1026C0005DFF00BF1837BD4680BD80B582B000AF4A
:1026D00078607868FFF7B0FF034618460837BD46B4
:1026E00080BD000080B489B000AF786039600023FD
:1026F0007B6100233B610023BB610023FB616BE135
:102700000122FB6902FA03F37B613B681B687A696B
:1027100013403B613A697B699A4240F05A813B68B9
:102720005B6803F00303012B05D03B685B6803F093
:102730000303022B30D17B689B68BB61FB695B00A4
:10274000032202FA03F3DB43BA691340BB613B681F
:10275000DA68FB695B0002FA03F3BA691343BB61F1
:102760007B68BA699A607B685B68BB610122FB6920
:1027700002FA03F3DB43BA691340BB613B685B6851
:102780001B0903F00102FB6902FA03F3BA69134360
:10279000BB617B68BA695A603B685B6803F00303FE
:1027A000032B17D07B68DB68BB61FB695B000322EE
:1027B00002FA03F3DB43BA691340BB613B689A68D2
:1027C000FB695B0002FA03F3BA691343BB617B68E0
:1027D000BA69DA603B685B6803F00303022B23D11C
:1027E000FB69DA087B68083253F82230BB61FB6969
:1027F00003F007039B000F2202FA03F3DB43BA69DD
:102800001340BB613B681A69FB6903F007039B0037
:1028100002FA03F3BA691343BB61FB69DA087B6808
:102820000832B96943F822107B681B68BB61FB69F9
:102830005B00032202FA03F3DB43BA691340BB6176
:102840003B685B6803F00302FB695B0002FA03F379
:10285000BA691343BB617B68BA691A603B685B68FD
:1028600003F44033002B00F0B4800023FB60604B86
:102870005B6C5F4A43F4804353645D4B5B6C03F4D1
:102880008043FB60FB685B4AFB699B08023352F89C
:102890002330BB61FB6903F003039B000F2202FAA4
:1028A00003F3DB43BA691340BB617B68524A93422E
:1028B0002BD07B68514A934225D07B68504A934283
:1028C0001FD07B684F4A934219D07B684E4A93428F
:1028D00013D07B684D4A93420DD07B684C4A93429B
:1028E00007D07B684B4A934201D107230EE00823AF
:1028F0000CE006230AE0052308E0042306E0032396
:1029000004E0022302E0012300E00023FA6902F060
:10291000030292009340BA691343BB613549FB69D6
:102920009B080233BA6941F823203B4B9B68BB618B
:102930003B69DB43BA691340BB613B685B6803F4E6
:102940008013002B03D0BA693B691343BB61324A41
:10295000BB699360304BDB68BB613B69DB43BA69A1
:102960001340BB613B685B6803F40013002B03D08A
:10297000BA693B691343BB61274ABB69D360264BE5
:102980005B68BB613B69DB43BA691340BB613B6871
:102990005B6803F40033002B03D0BA693B6913432F
:1029A000BB611D4ABB6953601B4B1B68BB613B6924
:1029B000DB43BA691340BB613B685B6803F4803357
:1029C000002B03D0BA693B691343BB61124ABB6950
:1029D0001360FB690133FB61FB690F2B7FF690AE3F
:1029E00000BF00BF2437BD465DF8047B704700BFC1
:1029F000003802400038014000000240000402405C
:102A000000080240000C0240001002400014024086
:102A100000180240001C0240003C014080B483B01A
:102A200000AF78600B467B8013467B707B78002B71
:102A300003D07A887B689A6103E07B881A047B68FC
:102A40009A6100BF0C37BD465DF8047B70470000FB
:102A500080B586B000AF78607B68002B01D1012380
:102A600067E27B681B6803F00103002B75D0884B7D
:102A70009B6803F00C03042B0CD0854B9B6803F080
:102A80000C03082B12D1824B5B6803F48003B3F56F
:102A9000800F0BD17E4B1B6803F40033002B5BD0FF
:102AA0007B685B68002B57D1012342E27B685B683F
:102AB000B3F5803F06D1764B1B68754A43F48033EB
:102AC00013601DE07B685B68B3F5A02F0CD1704BE1
:102AD0001B686F4A43F4802313606D4B1B686C4A7C
:102AE00043F4803313600BE0694B1B68684A23F49E
:102AF00080331360664B1B68654A23F480231360A0
:102B00007B685B68002B13D0FFF7D6FC386108E0C8
:102B1000FFF7D2FC02463B69D31A642B01D9032389
:102B200007E25B4B1B6803F40033002BF0D014E08A
:102B3000FFF7C2FC386108E0FFF7BEFC02463B69C4
:102B4000D31A642B01D90323F3E1514B1B6803F41F
:102B50000033002BF0D100E000BF7B681B6803F05E
:102B60000203002B63D04A4B9B6803F00C03002B3D
:102B70000BD0474B9B6803F00C03082B1CD1444B34
:102B80005B6803F48003002B16D1414B1B6803F0F4
:102B90000203002B05D07B68DB68012B01D00123E9
:102BA000C7E13B4B1B6823F0F8027B681B69DB0025
:102BB000374913430B603AE07B68DB68002B20D079
:102BC000344B01221A60FFF777FC386108E0FFF709
:102BD00073FC02463B69D31A022B01D90323A8E1F7
:102BE0002B4B1B6803F00203002BF0D0284B1B6813
:102BF00023F0F8027B681B69DB00254913430B6057
:102C000015E0244B00221A60FFF756FC386108E0FB
:102C1000FFF752FC02463B69D31A022B01D903236A
:102C200087E11B4B1B6803F00203002BF0D17B688C
:102C30001B6803F00803002B36D07B685B69002B10
:102C400016D0154B01221A60FFF736FC386108E0F8
:102C5000FFF732FC02463B69D31A022B01D903234A
:102C600067E10B4B5B6F03F00203002BF0D01BE01E
:102C7000094B00221A60FFF71FFC38610EE0FFF7D6
:102C80001BFC02463B69D31A022B07D9032350E1F0
:102C90000038024000004742800E4742884B5B6F7D
:102CA00003F00203002BEAD17B681B6803F00403E6
:102CB000002B00F097800023FB75814B1B6C03F009
:102CC0008053002B0FD10023BB607D4B1B6C7C4AD3
:102CD00043F0805313647A4B1B6C03F08053BB604A
:102CE000BB680123FB75774B1B6803F48073002BD3
:102CF00018D1744B1B68734A43F480731360FFF759
:102D0000DBFB386108E0FFF7D7FB02463B69D31ACB
:102D1000022B01D903230CE16A4B1B6803F4807377
:102D2000002BF0D07B689B68012B06D1644B1B6F96
:102D3000634A43F0010313671CE07B689B68052B23
:102D40000CD15F4B1B6F5E4A43F0040313675C4B6F
:102D50001B6F5B4A43F0010313670BE0584B1B6F7B
:102D6000574A23F001031367554B1B6F544A23F056
:102D7000040313677B689B68002B15D0FFF79CFB4F
:102D800038610AE0FFF798FB02463B69D31A41F22B
:102D90008832934201D90323CBE0494B1B6F03F0E8
:102DA0000203002BEED014E0FFF786FB38610AE047
:102DB000FFF782FB02463B69D31A41F28832934205
:102DC00001D90323B5E03E4B1B6F03F00203002B38
:102DD000EED1FB7D012B05D1394B1B6C384A23F01A
:102DE000805313647B689B69002B00F0A180344BF7
:102DF0009B6803F00C03082B5CD07B689B69022B5B
:102E000041D1314B00221A60FFF756FB386108E0D0
:102E1000FFF752FB02463B69D31A022B01D9032369
:102E200087E0274B1B6803F00073002BF0D17B6811
:102E3000DA697B681B6A1A437B685B6A9B011A43E9
:102E40007B689B6A5B08013B1B041A437B68DB6A57
:102E50001B061B4913434B601B4B01221A60FFF7F3
:102E60002BFB386108E0FFF727FB02463B69D31ACA
:102E7000022B01D903235CE0114B1B6803F00073A4
:102E8000002BF0D054E0104B00221A60FFF714FB27
:102E9000386108E0FFF710FB02463B69D31A022BAA
:102EA00001D9032345E0064B1B6803F00073002B98
:102EB000F0D13DE07B689B69012B07D1012338E00D
:102EC0000038024000700040600047421B4B5B68C6
:102ED000FB607B689B69012B28D0FB6803F48002B0
:102EE0007B68DB699A4221D1FB6803F03F027B6873
:102EF0001B6A9A421AD1FA6847F6C07313407A687F
:102F0000526A9201934211D1FB6803F440327B680C
:102F10009B6A5B08013B1B049A4207D1FB6803F0E4
:102F200070627B68DB6A1B069A4201D0012300E0D5
:102F3000002318461837BD4680BD00BF0038024048
:102F400080B584B000AF786039607B68002B01D118
:102F50000123CCE0684B1B6803F007033A689A42F0
:102F60000CD9654B3A68D2B21A70634B1B6803F0F8
:102F700007033A689A4201D00123B8E07B681B68D6
:102F800003F00203002B20D07B681B6803F00403CE
:102F9000002B05D0594B9B68584A43F4E05393608B
:102FA0007B681B6803F00803002B05D0534B9B681C
:102FB000524A43F460439360504B9B6823F0F00205
:102FC0007B689B684D4913438B607B681B6803F0EB
:102FD0000103002B44D07B685B68012B07D1474B72
:102FE0001B6803F40033002B19D101237FE07B68B9
:102FF0005B68022B03D07B685B68032B07D13F4BD8
:103000001B6803F00073002B09D101236FE03B4BD9
:103010001B6803F00203002B01D1012367E0374B4B
:103020009B6823F003027B685B68344913438B6021
:10303000FFF742FAF8600AE0FFF73EFA0246FB6843
:10304000D31A41F28832934201D903234FE02B4B2C
:103050009B6803F00C027B685B689B009A42EBD193
:10306000254B1B6803F007033A689A420CD2224BA7
:103070003A68D2B21A70204B1B6803F007033A6813
:103080009A4201D0012332E07B681B6803F00403FD
:10309000002B08D0194B9B6823F4E0527B68DB6857
:1030A000164913438B607B681B6803F00803002BF1
:1030B00009D0124B9B6823F460427B681B69DB00DC
:1030C0000E4913438B6000F021F802460B4B9B68BE
:1030D0001B0903F00F030A49CB5C22FA03F3094AE8
:1030E0001360094B1B681846FFF7A2F90023184626
:1030F0001037BD4680BD00BF003C02400038024092
:1031000074890008080000200C0000202DE9B04F51
:1031100094B000AF00237B640023FB6400233B6476
:103120000023BB64794B9B6803F00C03082B0DD084
:10313000082B00F2E180002B02D0042B03D0DBE04F
:10314000734BBB64DBE0734BBB64D8E06F4B5B68D5
:1031500003F03F037B646D4B5B6803F48003002B3B
:1031600063D06A4B5B689B090022BB63FA63BB6B4D
:10317000C3F308033B6300237B63D7E90C45224676
:103180002B464FF000004FF00001590141EAD26197
:10319000500102460B462146511A3961294663EB1C
:1031A00001037B614FF000024FF00003D7E904AB4D
:1031B00059468B01514643EA916351468A01514673
:1031C000B2EB0108594663EB01094FF000024FF0E2
:1031D00000034FEAC90343EA58734FEAC802904616
:1031E0009946234618EB0303BB602B4649EB0303C8
:1031F000FB604FF000024FF00003D7E9024529467B
:103200004B02214643EAD15321464A021046194651
:103210007B6C0022BB62FA62D7E90A23FDF734FD1A
:1032200002460B461346FB6458E0384B5B689B092B
:10323000002218461146C0F308033B6200237B625C
:10324000D7E9088942464B464FF000004FF0000195
:10325000590141EAD261500102460B464146B2EBA8
:10326000010A494663EB010B4FF000024FF00003E7
:103270004FEA8B1343EA9A634FEA8A12B2EB0A04CD
:1032800063EB0B054FF000024FF00003EB0043EA45
:103290005473E20014461D464346E3183B604B4618
:1032A00045EB03037B604FF000024FF00003D7E9CA
:1032B000004529468B02214643EA915321468A0262
:1032C000104619467B6C0022BB61FA61D7E90623E0
:1032D000FDF7DAFC02460B461346FB640B4B5B68BA
:1032E0001B0C03F0030301335B003B64FA6C3B6C83
:1032F000B2FBF3F3BB6402E0054BBB6400BFBB6CE5
:1033000018465037BD46BDE8B08F00BF00380240B8
:103310000024F40000127A0080B489B000AFF86095
:10332000B9607A60FB681A68BB687B617B6993FA55
:10333000A3F33B613B69B3FA83F3DBB25B00032188
:1033400001FA03F3DB431A40BB68FB61FB6993FAA4
:10335000A3F3BB61BB69B3FA83F3DBB25B007968AB
:1033600001FA03F31A43FB681A6000BF2437BD4615
:103370005DF8047B704780B485B000AFF860B96039
:103380007A60FB685A68BB68DB431A40BB6879689F
:1033900001FB03F31A43FB685A6000BF1437BD46B4
:1033A0005DF8047B704780B489B000AFF860B96005
:1033B0007A60FB689A68BB687B617B6993FAA3F3C8
:1033C0003B613B69B3FA83F3DBB25B00032101FA93
:1033D00003F3DB431A40BB68FB61FB6993FAA3F379
:1033E000BB61BB69B3FA83F3DBB25B00796801FAB6
:1033F00003F31A43FB689A6000BF2437BD465DF8AB
:10340000047B704780B489B000AFF860B9607A601F
:10341000FB68DA68BB687B617B6993FAA3F33B6165
:103420003B69B3FA83F3DBB25B00032101FA03F3D8
:10343000DB431A40BB68FB61FB6993FAA3F3BB61F2
:10344000BB69B3FA83F3DBB25B00796801FA03F37B
:103450001A43FB68DA6000BF2437BD465DF8047B81
:10346000704780B489B000AFF860B9607A60FB68DB
:103470001A6ABB687B617B6993FAA3F33B613B6982
:10348000B3FA83F3DBB29B000F2101FA03F3DB43B2
:103490001A40BB68FB61FB6993FAA3F3BB61BB698C
:1034A000B3FA83F3DBB29B00796801FA03F31A43A2
:1034B000FB681A6200BF2437BD465DF8047B704785
:1034C00080B489B000AFF860B9607A60FB685A6A6E
:1034D000BB681B0A7B617B6993FAA3F33B613B6981
:1034E000B3FA83F3DBB29B000F2101FA03F3DB4352
:1034F0001A40BB681B0AFB61FB6993FAA3F3BB612B
:10350000BB69B3FA83F3DBB29B00796801FA03F37A
:103510001A43FB685A6200BF2437BD465DF8047B3E
:10352000704780B588B000AF786039600023FB61D8
:103530000023BB613B681B687B617B6993FAA3F343
:103540003B613B69B3FA83F3DBB2FB6150E03B685C
:103550001A680121FB6901FA03F31340BB61BB69DF
:10356000002B42D03B685B68012B03D03B685B6853
:10357000022B0DD13B689B681A46B9697868FFF742
:1035800012FF3B68DB681A46B9697868FFF7F3FEFB
:103590003B681B691A46B9697868FFF733FF3B68D7
:1035A0005B68022B1AD1BB69FB60FB6893FAA3F33B
:1035B000BB60BB68B3FA83F3DBB2072B07D83B6869
:1035C0005B691A46B9697868FFF74BFF06E03B680C
:1035D0005B691A46B9697868FFF772FF3B685B68F8
:1035E0001A46B9697868FFF797FEFB690133FB61FA
:1035F0003B681A68FB6922FA03F3002BA7D100236A
:1036000018462037BD4680BD80B400AF044B9B6890
:1036100003F00C031846BD465DF8047B704700BFFD
:103620000038024080B400AF044B9B6803F0F00305
:103630001846BD465DF8047B704700BF0038024065
:1036400080B400AF044B9B6803F4E0531846BD46BA
:103650005DF8047B704700BF0038024080B400AFC3
:10366000044B9B6803F460431846BD465DF8047B39
:10367000704700BF0038024080B400AF044B5B6865
:1036800003F480031846BD465DF8047B704700BF15
:103690000038024080B400AF044B5B689B09C3F361
:1036A00008031846BD465DF8047B704700380240A9
:1036B00080B400AF044B5B6803F440331846BD464A
:1036C0005DF8047B704700BF0038024080B400AF53
:1036D000044B5B6803F03F031846BD465DF8047B6E
:1036E000704700BF0038024080B582B000AF7860FC
:1036F00000F020F802467B681A607B681B68184659
:1037000000F040F802467B685A607B685B681846A8
:1037100000F04EF802467B689A607B685B6818464A
:1037200000F05AF802467B68DA6000BF0837BD46F1
:1037300080BD000080B582B000AF00237B60FFF742
:1037400063FF0346082B0CD0082B0FD8002B02D0A8
:10375000042B03D00AE0094B7B600AE0084B7B6036
:1037600007E0082000F04CF8786002E0034B7B6033
:1037700000BF7B6818460837BD4680BD0024F400B2
:1037800000127A0080B582B000AF7860FFF74AFF80
:1037900003461B0903F00F03044AD35C1A467B68F7
:1037A000D34018460837BD4680BD00BF7489000865
:1037B00080B582B000AF7860FFF742FF03469B0AF6
:1037C000044AD35C1A467B68D34018460837BD4686
:1037D00080BD00BF8489000880B582B000AF7860EA
:1037E000FFF73CFF03465B0B044AD35C1A467B6839
:1037F000D34018460837BD4680BD00BF8489000805
:1038000090B587B000AF786000237B610023FB6038
:1038100000233B61FFF730FFF860FB68002B04D00A
:10382000FB68B3F5800F03D005E0124B7B6105E028
:10383000114B7B6102E00F4B7B6100BF7B68082B63
:1038400013D1FFF743FF02467B69B3FBF2F4FFF7A6
:1038500021FF034603FB04F4FFF72AFF03461B0C7A
:1038600001335B00B4FBF3F33B613B6918461C3743
:10387000BD4690BD0024F40000127A0080B483B0ED
:1038800000AF78607B68DB6803F40053B3F5005F3A
:103890000CBF01230023DBB218460C37BD465DF890
:1038A000047B704780B483B000AF786039607B6878
:1038B0001B6923F440523B681A437B681A6100BFBE
:1038C0000C37BD465DF8047B704780B483B000AF11
:1038D000786039607B685B6923F440723B681A4307
:1038E0007B685A6100BF0C37BD465DF8047B7047AA
:1038F0002DE9B04FC0B000AFC7F8FC00C7F8F81012
:10390000C7F8F420C7F8F030D7F8F430B3F5004F1B
:1039100040F00C81D7F8F8300022C7F8E830C7F83B
:10392000EC20D7E93A4522462B46911839665B418F
:103930007B66D7E91823214612EB0108294643EBA1
:1039400001094FF000024FF000034FEAC90343EAB8
:1039500058734FEAC80290469946234618EB030372
:10396000C7F8E0302B4649EB0303C7F8E430D7F83B
:10397000F03000229A4693461AEB0A03BB654BEBE4
:103980000B03FB65D7E91623D7E93801FDF77CF96E
:1039900002460B46644BA3FB02235B099BB21B014F
:1039A0009CB2D7F8F8300022C7F8D830C7F8DC202E
:1039B000D7E9368942464B46911839655B417B65AC
:1039C000D7E9142341465118B96449464B41FB6479
:1039D0004FF000024FF00003D7E912AB5946CB007D
:1039E000514643EA51735146CA00104619460346F0
:1039F00042469B18C7F8D0304B460A4642EB0303B9
:103A0000C7F8D430D7F8F0300022C7F8C830C7F86C
:103A1000CC20D7E932120B46DB183B64134642EB4D
:103A200003037B64D7E91023D7E93401FDF72CF9B0
:103A300002460B4611463C4BA3FB01235B09642263
:103A400002FB03F3CB1ADB0003F13202364BA3FB7C
:103A500002235B099BB25B009BB203F4F8739BB239
:103A600023449CB2D7F8F8300022C7F8C030C7F81A
:103A7000C420D7E9308942464B469118B9635B416F
:103A8000FB63D7E90E2341465118396349464B4140
:103A90007B634FF000024FF00003D7E90CAB5946AF
:103AA000CB00514643EA51735146CA0010461946AD
:103AB000034642469B18C7F8B8304B460A4642EBCD
:103AC0000303C7F8BC30D7F8F0300022C7F8B03095
:103AD000C7F8B420D7E92C120B46DB18BB6213469B
:103AE00042EB0303FB62D7E90A23D7E92E01FDF776
:103AF000CBF802460B460C4BA3FB02135B09642177
:103B000001FB03F3D31ADB003233074AA2FB032382
:103B10005B099BB203F007039BB223449BB21A4696
:103B2000D7F8FC309A6007E11F85EB51D7F8F830E1
:103B30000022C7F8A830C7F8AC20D7E92A89424646
:103B40004B46911839625B417B62D7E908234146B5
:103B50005418494643EB01054FF000024FF00003B3
:103B6000EB0043EA5473E20014461D464346E31853
:103B7000C7F8A0304B4645EB0303C7F8A430D7F88D
:103B8000F0300022C7F89830C7F89C204FF00002B0
:103B90004FF00003D7E9264529468B00214643EA2A
:103BA000917321468A00D7E92801FDF76DF8024696
:103BB0000B46644BA3FB02235B099BB21B019CB227
:103BC000D7F8F8300022C7F89030C7F89420D7E92A
:103BD000248942464B469118B9615B41FB61D7E9A4
:103BE000062341465118396149464B417B614FF0EC
:103BF00000024FF00003D7E904AB5946CB00514611
:103C000043EA51735146CA001046194603464246DC
:103C10009B18C7F888304B460A4642EB0303C7F8A7
:103C20008C30D7F8F0300022C7F88030C7F88420F5
:103C30004FF000024FF00003D7E9208949468B007E
:103C4000414643EA917341468A00D7E92201FDF7D4
:103C50001BF802460B463B4BA3FB02135B09642196
:103C600001FB03F3D31A1B013233364AA2FB0323B1
:103C70005B099BB203F0F0039BB223449CB2D7F8DC
:103C8000F8300022BB67FA67D7E91E8942464B46E7
:103C90009118B9605B41FB60D7E902234146511896
:103CA000396049464B417B604FF000024FF0000302
:103CB000D7E900AB5946CB00514643EA5173514610
:103CC000CA0010461946034642469B183B674B46BE
:103CD0000A4642EB03037B67D7F8F0300022BB664D
:103CE000FA664FF000024FF00003D7E91A894946FF
:103CF0008B00414643EA917341468A00D7E91C0193
:103D0000FCF7C2FF02460B460E4BA3FB02135B09F6
:103D1000642101FB03F3D31A1B013233094AA2FBCE
:103D200003235B099BB203F00F039BB223449BB2B6
:103D30001A46D7F8FC309A6000BF07F58077BD4679
:103D4000BDE8B08F1F85EB5180B588B000AF7860BB
:103D500039600123FB770023BB617868FFF78EFD94
:103D60000346002B5ED17B68DB6823F4164323F007
:103D70000C033A6851683A68D26811433A6812698C
:103D800011433A6892690A431A437B68DA603B68D8
:103D90009B6819467868FFF785FD3B685B691946A3
:103DA0007868FFF792FD07F108031846FFF79CFCBF
:103DB0007B681F4A934202D17B69BB6121E07B682B
:103DC0001C4A934202D13B69BB611AE07B681A4AE4
:103DD000934202D13B69BB6113E07B68174A93426F
:103DE00002D17B69BB610CE07B68154A934202D12A
:103DF0003B69BB6105E07B68124A934201D13B6994
:103E0000BB61BB69002B0DD03B681B68002B09D040
:103E10000023FB773B689A693B681B68B96978683F
:103E2000FFF766FDFB7F18462037BD4680BD00BF0B
:103E300000100140004400400048004000140140D0
:103E4000004C004000500040014B1868704700BF14
:103E50001400002070B50D4D0D4C641BA4100026FD
:103E6000A64209D10B4D0C4C04F01CFD641BA410A0
:103E70000026A64205D170BD55F8043B984701368F
:103E8000EEE755F8043B98470136F2E7448E000808
:103E9000448E0008448E0008488E00080244034601
:103EA000934200D1704703F8011BF9E72DE9FF4762
:103EB00055EC104B002D0E4619462B46BBBF05F1A5
:103EC00000431D4600232D230B700D9BDDF830A011
:103ED000914623F02008BCBF22461446B8F1460F95
:103EE00005D0B8F1450F00D10136022100E00321D1
:103EF00003AB019302AB009345EC104B53463246A3
:103F000001F0FAFEB8F1470F074602D119F0010F90
:103F100022D0B8F1460F07EB060910D13B78302BC1
:103F20000AD10022002320462946FCF7CDFD18B90E
:103F3000C6F10106CAF80060DAF8003099440022A0
:103F4000002320462946FCF7BFFD08B1CDF80C90B0
:103F50003022039B4B4507D3039B0E9ADB1B38464D
:103F6000136004B0BDE8F087591C03911A70F0E7A4
:103F7000F7B503460029B8BF494203F8022BB4BF86
:103F80002D222B22092942702ADD0DF10704A446B7
:103F90000A27A6460A4691FBF7F607FB16153035A9
:103FA000632A04F1FF340EF8015C3146F1DC303154
:103FB000AEF1020504F8011C441C294661450AD3F0
:103FC0000DF10902A2EB0E02654588BF00221344E1
:103FD000181A03B0F0BD11F8012B04F8012FEDE71A
:103FE000302330318370C170031DF1E72DE9F04FAC
:103FF0002DED028B8DB00C46DDF8608016461F4615
:10400000054603F08DF9D0F800A05046FCF7E0F823
:1040100000230A9323680593D8F8003094F818B069
:10402000073323F0070303F10802C8F80020D3E99F
:104030000023C4E91223D4E9128929F0004307932D
:10404000CDF8188008EE100A9F4BDDE906014FF00D
:10405000FF32FCF76BFD88BBDDE906019A4B4FF0A0
:10406000FF32FCF745FD48BB00220023404649468D
:10407000FCF734FD10B12D2384F84330934B944862
:10408000BBF1470F94BF9846804603232361059BED
:1040900023F0040222604FF00009009733460BAA78
:1040A0002146284600F0D8F9013040F090804FF0CA
:1040B000FF300DB0BDEC028BBDE8F08F42464B46A1
:1040C00040464946FCF732FD40B14B46002BBCBF91
:1040D0002D2384F843307F487F4BD1E763680BF092
:1040E000DF0206925A1C3FD106236360059B61687C
:1040F00043F48062002303930AABCDE901B309AB1B
:1041000049EC108B009322600DF123032846FFF742
:10411000CDFE069B0999472B804608D1C81C02DBBF
:104120006368994241DDABF1020B5FFA8BFBBBF197
:10413000650F20D801395A4604F150000991FFF764
:1041400017FF0A9A1318012A8146236102DC2268AC
:10415000D20701D5013323619DF82330002B9CD079
:104160002D2384F8433098E7069A472ABED1002BC6
:10417000BCD10123B9E7BBF1660F18D100296368F0
:104180000BDD216113B92268D00702D501330B443E
:104190002361A1654FF00009DEE713B92268D20759
:1041A00001D50233F4E70123F2E74FF0670B0A9BD6
:1041B000994205DB23682161D807EAD54B1CE7E764
:1041C0000029D4BFC1F1020201221344E0E72368B1
:1041D0005A0507D42369424631462846B84701307C
:1041E0002CD164E7BBF1650F40F2E080D4E9120105
:1041F00000220023FCF768FC002834D0374A012352
:1042000031462846B84701303FF451AFDDE9092374
:104210009A4202DB2368D80710D518EE103A5246AE
:1042200031462846B84701303FF441AF4FF000080F
:1042300004F11A090A9B013B434509DC23689B07EB
:1042400000F10581E0680B9B9842B8BF184630E743
:1042500001234A4631462846B84701303FF427AF8C
:1042600008F10108E6E7099B002B39DC1B4A012312
:1042700031462846B84701303FF419AFDDE909233C
:10428000134302D12368D907D8D518EE103A524605
:1042900031462846B84701303FF409AF4FF00009D6
:1042A00004F11A0A099B5B424B4501DC0A9B92E729
:1042B0000123524631462846B84701303FF4F7AE55
:1042C00009F10109EEE700BFFFFFEF7F90890008C9
:1042D000948900089C89000898890008A089000832
:1042E0000A9AA36D9A42A8BF1A46002A914637DC63
:1042F0004FF0000B29EAE97904F11A02A36D059346
:10430000A3EB09035B4533DCDDE909239A423BDB80
:104310002368DA0738D40A9B059A09999A1AA3EBFD
:1043200001099145A8BF9146B9F1000F35DC4FF066
:10433000000829EAE97904F11A0ADDE909239B1A40
:10434000A3EB090343457FF779AF0123524631467A
:104350002846B84701303FF4AAAE08F10108ECE75F
:104360001346314642462846B8470130C0D19EE642
:104370000123314628460592B84701303FF497AEF5
:10438000059A0BF1010BB9E718EE103A5246314687
:104390002846B8470130BED189E6059A4B464244CB
:1043A00031462846B8470130C1D180E60A9A012A31
:1043B00001DCDB0738D50123424631462846B847A1
:1043C00001303FF474AE18EE103A5246314628469A
:1043D000B84701303FF46BAED4E91201002200234C
:1043E000FCF772FBD8B90A9B08F10102013B314688
:1043F0002846B84701300ED159E6012352463146CE
:104400002846B84701303FF452AE08F101080A9B34
:10441000013B4345F1DC4B4604F15002DCE64FF032
:10442000000804F11A0AF2E701234246DFE70123FC
:104430004A4631462846B84701303FF438AE08F1C5
:104440000108E3680B995B1A4345F0DCFAE64FF08C
:10445000000804F11909F4E72DE9F04716469946DA
:104460008A680B69DDF820809342B8BF1346336039
:1044700091F8432007460C460AB1013333602368A4
:10448000990642BF336802333360256815F006058C
:1044900006D104F1190AE36832689B1AAB4226DCA4
:1044A00094F84320131E226818BF012392062BD4D0
:1044B00004F1430249463846C04701301ED0236804
:1044C000E568326803F00603042B08BFAD1AA36841
:1044D00022690CBF25EAE57500259342C4BF9B1AEB
:1044E000ED1800261A34B5421AD1002008E0012345
:1044F000524649463846C047013003D14FF0FF309D
:10450000BDE8F0870135C6E7E1185A1C302081F874
:104510004300224494F8451082F843100233C7E761
:104520000123224649463846C0470130E6D00136CD
:10453000D9E700002DE9FF470F7E0C9D782F9146AB
:1045400080460C469A4601F1430207D8622F0AD8EA
:10455000002F00F0D880582F00F0A38004F142050E
:1045600084F842703AE0A7F16303152BF6D801A155
:1045700051F823F0CD450008E14500085D450008ED
:104580005D4500085D4500085D450008E1450008FF
:104590005D4500085D4500085D4500085D45000873
:1045A000ED46000811460008CF4600085D450008AA
:1045B0005D4500080F4700085D45000811460008EA
:1045C0005D4500085D450008D74600082B681A1DA8
:1045D0001B682A6004F1420584F842300123A3E0FD
:1045E00020682968060601F104030AD50E682B60CD
:1045F000002E03DA2D23764284F843305E480A23E6
:1046000019E00E682B6010F0400F18BF36B2EFE7CC
:104610002B682068191D2960010601D51E6802E07B
:104620004606FBD51E8854486F2F0CBF08230A236B
:10463000002184F843106568A560002DA2BF2168A1
:1046400021F0040121600EB9002D4DD01546B6FBB6
:10465000F3F103FB1167C75D05F8017D3746BB42E7
:104660000E46F4D9082B0BD12368DE0708D5236941
:1046700061689942DEBF302305F8013C05F1FF3542
:10468000521B2261CDF800A04B4603AA21464046AA
:10469000FFF7E2FE01304CD14FF0FF3004B0BDE82F
:1046A000F087354881F845702968236851F8046B14
:1046B00029601D0614D5DF0744BF43F020032360A3
:1046C0001EB9236823F0200323601023B0E723687A
:1046D00043F0200323607823284884F84530E3E73B
:1046E000590648BFB6B2E6E71546BBE72B68266811
:1046F0006169181D286035061B6801D5196002E044
:104700007006FBD51980002323611546BAE72B6894
:104710001A1D2A601D68626800212846FBF760FDAB
:1047200008B1401B606063682361002384F8433054
:10473000A8E723692A4649464046D0470130ABD016
:1047400023689B0713D4E068039B9842B8BF1846C0
:10475000A4E70123324649464046D04701309BD06A
:104760000135E36803995B1AAB42F2DCEBE7002505
:1047700004F11906F5E700BFA2890008B389000813
:104780002DE9F04F87B0174603938B685A1EB2F598
:10479000AE7F83BF6FF4AE755B190293002386BFB3
:1047A00040F25D138B6002930B688B46002543F447
:1047B000F0634BF81C3BCDE9045580460C465E4641
:1047C000AA46A9460195A26852B13B681B784E2BB8
:1047D00064D8402B3CD8A3F12B01C8B20E283AD99B
:1047E000B9F1000F03D0236823F4807323600AF12A
:1047F000FF3ABAF1010F00F213815E4500F2058124
:104800000125284607B0BDE8F08FA3F161020D2A0B
:10481000E6D801A151F822F057490008E147000805
:10482000E1470008E1470008B74900088F49000840
:10483000E1470008E147000865490008E147000832
:10484000E1470008E1470008E14700081D4900086A
:10485000A3F14102DBE70E29C2D801A050F821F0F4
:104860000F490008E14700080F490008A349000864
:10487000E1470008BD480008F9480008F948000869
:10488000F9480008F9480008F9480008F948000804
:10489000F9480008F9480008F94800086E2B09D8C3
:1048A000602BB2D8542B77D0592B99D1072D97D1A3
:1048B000082529E0742B6FD0792BF6E72168C8050D
:1048C0001AD5029B21F08001216009F101091BB179
:1048D000013B01320293A260A368013BA3602369FC
:1048E000013323617B68013B002B7B6040F38480B4
:1048F0003B6801333B6066E71AEB050F7FF470AF4E
:10490000226822F4C072226006F8013BE4E72268C4
:1049100010067FF565AF22F08002F4E7BAF1000FD0
:104920000ED1B9F1000F0ED1226802F4E061B1F5A9
:10493000E06F08D122F4F06222604FF0010AE3E751
:10494000BAF1020F55D0012D02D0042D7FF448AFEB
:104950000135EDB2D8E7BAF1010F7FF441AF4FF066
:10496000020AD1E77DB9B9F1000F7FF43CAF2268AC
:1049700002F4E061B1F5E06F7FF439AF22F4F06248
:1049800022600125C0E7032DE2D0052DDEE7022DD0
:104990007FF426AF0325B7E7062D7FF421AF072567
:1049A000B2E7226891057FF51BAF22F420722260E6
:1049B000CDF80490A8E7226802F4A061B1F5806FF9
:1049C00006D050057FF50CAFB9F1000F3FF40FAFE3
:1049D000910558BF019922F4F06258BFA9EB01017B
:1049E00042F4C07258BFCDE9041622604FF00009AE
:1049F0008AE74FF0030A87E7D4F88031394640460A
:104A0000984700283FF4DFAEEAE6D4F87C3116F888
:104A1000011D3A46404698472369013B2361ECE675
:104A20006B1E062B25D8022D36D85E457FF6E8AEE4
:104A3000D4F87C3116F8011D3A4640469847236960
:104A4000013B2361F1E70298D4F87C3110F8011D95
:104A500002903A46404698472369013B23610AF198
:104A6000FF3A5FFA8AFABAF1020FECD1033DEDB2D8
:104A7000761B2368DA052FD55B0510D55E457FF6DA
:104A8000BFAED4F87C3116F8011D3A46404698472F
:104A90002369013B2361F1E7AA460296DFE716F896
:104AA000011C2369652903F1FF3306F1FF352361FA
:104AB0000CD045290AD0D4F87C313A464046984774
:104AC000236916F8021C013BB51E2361D4F87C3122
:104AD0003A46404698472E46256815F0100559D1AC
:104AE0003570236803F4C063B3F5806F1BD1019B5D
:104AF0004B45A3EB090223D100225946404600F062
:104B000025FF2268039B12F0020F57EC106B1B6805
:104B100021D003991A1D0A601B68C3E90067E36886
:104B20000133E3606DE6049B002BE5D005990A2371
:104B30002A460131404600F091FF049B059EC21AAF
:104B400004F26F139E4228BF04F5B776124930462F
:104B500000F0BAF8D0E7039912F0040F03F1040251
:104B60000A60D9D1D3F8008010EE102A10EE100A96
:104B70003B463946FBF7DAFF28B1084800F09EF8BB
:104B800088ED000ACBE730463946FCF72DF8C8F827
:104B90000000C4E7002534E6C4890008388E000808
:104BA0000FB40A4B13B51C6824B1A36913B920468E
:104BB00001F0AAFF05AB049AA1680193204603F017
:104BC00081FB02B0BDE8104004B070471400002023
:104BD00070B50E46054618B183690BB901F094FF14
:104BE000AB69AC6813B9284601F08EFF2C4B9C4290
:104BF00020D16C68636EDB0705D4A389980502D4C5
:104C0000A06D02F092FBA38919071DD52369DBB1C2
:104C1000013EA36816F8011F013BA36039BB002BBE
:104C200038DA22460A21284600F01AFF013011D056
:104C30000A2511E01B4B9C4201D1AC68DAE71A4B04
:104C40009C4208BFEC68D5E72146284600F05AFF91
:104C50000028DDD04FF0FF35636EDA0705D4A38955
:104C60009B0502D4A06D02F061FB284670BD002BAD
:104C700004DAA2699A4206DC0A2904D023685A1C85
:104C800022601970C5E72246284600F0E9FE01308F
:104C9000BFD1DFE723680A255A1C22601D70DBE7BD
:104CA000D48B0008F48B0008B48B0008024B01463B
:104CB0001868FFF78DBF00BF140000209FED010AA8
:104CC000704700BF0000C07F0EB400B59CB01DABA4
:104CD000029006906FF0004109480791049109493C
:104CE00053F8042B05910068019302A903F0C0F961
:104CF000029B00221A701CB05DF804EB03B07047F1
:104D0000140000200802FFFF70B504460D4645EC74
:104D1000104B164602F00AFF51EC100B7EB1C5F3A2
:104D20000A53C3F16B03002B09DD1B0503F17F550B
:104D3000002405F5401522462B46FBF75DFC70BDAF
:104D40002DE9F04F2DED028B9DB01F4600231893E7
:104D5000A24B13921B680593044618468846FBF73E
:104D600037FA4FF0000A05464FF0000BCDF85C8093
:104D7000179B1A782B2A4ED03BD80D2A34D8082AF4
:104D800034D8002A3ED000230A93179E3378302B64
:104D900040F0B080737803F0DF03582B68D10A9B92
:104DA000019318AB029700938D4A19AB17A92046BF
:104DB00001F0AEFF10F00707054605D0062F2CD1F5
:104DC0000136002317960A93139B002B40F0908521
:104DD0000A9BEBB152460BF1004343EC102B1DB084
:104DE000BDEC028BBDE8F08F202ACCD101331793A4
:104DF000BEE72D2AC7D101220A925A1C17925B786E
:104E0000002BC2D1139BCDF85C80002B40F06E8547
:104E100052465B46E1E70022EEE7189A3AB13521A7
:104E20001AA802F08EFF1899204602F04DFB013FB0
:104E3000042F06D8DFE807F00A0314170A00DDE99B
:104E40001AAB2807C0D54BF0004BBDE7DDE91AA32C
:104E5000199A23F4801302F2334243EA025BF0E72B
:104E6000DFF880B1EDE76FF0004B4FF0FF3AE8E775
:104E7000179B5A1C17925B78302BF9D0002BA3D0CC
:104E800001234FF000090493179B0893CDF81C9061
:104E90004F460A2217980678A6F13003D9B209299D
:104EA0002AD905992A4603F09AFB98B30020324686
:104EB0003D4605900346652A01D0452A18D11DB903
:104EC000049A02439ED00025DDF85C8008F10102BF
:104ED000179298F801202B2A75D02D2A7BD04FF0FD
:104EE000000CA2F13001092940F28280CDF85C80EB
:104EF00000269DE00023C4E7082FD8BF079900F1E2
:104F00000100DABF02FB0133079302FB09390137C5
:104F10001790BFE7179B5A1917925A5D002F37D089
:104F200005903D46A2F13003092B12D90123C2E7B7
:104F3000179B5A1C17925A780130302AF8D0A2F1E8
:104F40003103082B00F2D984179B059000200893A9
:104F50000546303A00F1010314D005991944059132
:104F60002B4600EB050E0A21734513D12B18082B95
:104F700005F1010505441CDC07990A2303FB012305
:104F800007930023179A511C179152781846C9E7C6
:104F90003846D2E7082B04DC079E4E4307960133C0
:104FA000E2E703F1010CBCF1100FD8BF01FB09F9D6
:104FB000F5E7102DDCBF0A2303FB0929E1E70023F5
:104FC000059301237CE74FF0000C08F102021792D1
:104FD00098F8022085E74FF0010CF6E77C8C00087A
:104FE000CC8900080000F07F179A511C1791527865
:104FF000302AF9D0A2F1310108293FF679AFA2F1A8
:10500000300E179A0692179A511C17915278A2F1F6
:105010003006092E37D9069E891B082944F61F66DB
:1050200002DC7645A8BF7646BCF1000F00D0764280
:10503000002D4DD1049901437FF4C6AE002B7FF4BF
:10504000E1AE692A27D024DC492A24D04E2A7FF4F5
:10505000D9AE9F4917A802F0B3F800283FF4D2AEAA
:10506000179B1B78282B2DD19A491AAA17A802F052
:10507000BBF8052826D11B9BDDF868A043F0FF4B49
:105080004BF4E00BA0E60A2101FB0E2EAEF1300E30
:10509000B9E76E2ADBE7904917A802F091F80028DB
:1050A0003FF4B0AE179B8D49013B17A8179302F050
:1050B00087F810B9179B01331793DFF830B24FF020
:1050C000000A81E6864803F02FFA5BEC10AB7BE622
:1050D000059B0798F31A002F08BF2F46102D069343
:1050E000A846A8BF4FF01008FBF70CFA092D82461E
:1050F0008B4613DD7B4B03EBC80353E91223FBF70D
:105100007BFA824648468B46FBF7FCF902460B4683
:1051100050465946FBF7BAF882468B460F2D38DCCD
:10512000069B002B3FF450AE24DD162B0BDC6D49A3
:1051300001EBC301D1E9000152465B46FBF75CFA83
:1051400082468B4640E6069AC5F12503934220DB52
:10515000644CC5F10F0504EBC50152465B46D1E92D
:105160000001FBF749FA069B5D1B04EBC504D4E97B
:105170000023E3E7069B16330BDB059B9E1B594B75
:1051800003EBC606D6E9002350465946FBF75EFB03
:10519000D6E7069BA5EB08089844B8F1000F74DD2C
:1051A00018F00F030AD04F4901EBC30152465B468A
:1051B000D1E90001FBF720FA82468B4638F00F0850
:1051C0004FD0B8F59A7F22DD00252E46079505952C
:1051D0002223DFF818B123604FF0000A079B002B51
:1051E0003FF4F2AD1899204602F06EF90599204679
:1051F00002F06AF93146204602F066F90799204626
:1052000002F062F92946204602F05EF9DCE5364BF1
:10521000049300234FEA2818504659469946B8F19E
:10522000010F21DC0BB182468B462F4BABF1547B37
:1052300003EBC90952465B46D9E90001FBF7DCF9EB
:105240002A4B0A460B402A498B428246BCD8A1F51C
:1052500080118B4286BFDFF89CB04FF0FF3A02F11D
:10526000547B0023049384E018F0010F05D0049BC5
:10527000D3E90023FBF7C0F90123049A083209F1AE
:1052800001094FEA68080492C9E7EAD0C8F10008AA
:1052900018F00F020AD0134B03EBC20350465946D5
:1052A000D3E90023FBF7D2FA82468B465FEA28183F
:1052B000D7D0B8F11F0F1FDD00252E4607950595A5
:1052C00022234FF0000A4FF0000B236086E700BF57
:1052D0009D890008E089000895890008248B000852
:1052E000388E0008188D0008F08C00080000F07F50
:1052F0000000A07CFFFFEF7F18F0100318BF6A23A7
:10530000DFF8AC93049350465946002318F0010F80
:1053100004D0D9E90023FBF76FF901235FEA68089D
:1053200009F10809F2D10BB182468B46049BC3B147
:10533000CBF30A52C2F16B03002B594611DD1F2B30
:1053400040F32481342BDEBFC2F14B024FF0FF3318
:1053500003FA02F24FF0000ACCBF4FF05C7B02EA86
:10536000010B0022002350465946FBF7ADFB0028F5
:10537000A2D1079B009308992B463A46204602F09B
:105380000BF9079000283FF41FAF059B9E1B069B5F
:10539000002BB4BF334600230C93069B002523EA61
:1053A000E37312932E46079B2046596802F04CF88F
:1053B000059000283FF40CAF079B1A69023203F1F5
:1053C0000C0192000C3002F031F84BEC10AB1AAA31
:1053D00019A9204602F026FC4BEC18AB18900028C7
:1053E0003FF4F6AE0121204602F070F9064600288F
:1053F0003FF4EEAE199B0499002BABBF0C9A129AA6
:10540000129FDDF83090ACBF03EB0209D71A1A9A4D
:10541000A3EB01089044A14B08F1FF389845C2F175
:10542000360280F2C780A3EB08031F2BA2EB030216
:105430004FF0010100F3B18001FA03F30D93002353
:10544000089309EB0208049BC14517441F444B46CF
:10545000A8BF4346BB42A8BF3B46002BC2BFA8EB38
:105460000308FF1AA9EB03090C9B002B17DD31463B
:105470001A46204602F0EAF9064600283FF4A8AE94
:105480000146189A204602F037F90B9000283FF4A5
:105490009FAE1899204602F017F80B9B1893B8F1AD
:1054A000000F00F38C80069B002B08DD129A0599F3
:1054B000204602F0CBF9059000283FF489AE002F7A
:1054C00008DD05993A46204602F01AFA05900028B0
:1054D0003FF47EAEB9F1000F08DD31464A46204662
:1054E00002F00EFA064600283FF472AE059A1899AB
:1054F000204602F091FA054600283FF469AEC368E1
:105500000B930023C360314602F06AFA002860DA88
:105510000B9B53EA0A0340F08280CBF31303002B6A
:105520007DD12BF000431B0D1B05B3F1D66F76D94F
:105530006B6913B92B69012B71DD294601222046C5
:1055400002F0DEF93146054602F04AFA002866DD2F
:105550000499534A5B46002900F0818002EA0B015E
:10556000B1F1D66F7BDCB1F15C7F7FF7A9AE4D4B1B
:10557000504659460022FBF73FF80B46034308BF4D
:10558000222382468B4608BF23602BE64FF0FF3272
:1055900002FA03F303EA0A0AE3E6C8F17F4808F5D2
:1055A0007F0808F57B4808F1E20801FA08F3089340
:1055B0000D9146E70023089301230D9341E71899C5
:1055C0004246204602F09CF9189000287FF46BAF09
:1055D000FEE55F466ED10B9ACBF3130342B3324A1A
:1055E000934228D1049B5146EBB12D4B3B40B3F184
:1055F000D46F4FF0FF3219D81B0DC3F16B0302FAC1
:1056000003F3994217D1294B9F4202D101313FF454
:10561000DFAD234B3B4003F5801B4FF0000A049B9A
:10562000002BA4D1DEE54FF0FF33EAE71346E8E7AD
:1056300053EA0A038CD0089BDBB13B42EFD00B9BB3
:10564000049A50465946C3B1FFF75EFB02460B462B
:1056500051EC180BFAF71AFE82468B46DFE713402F
:10566000A3F580136FEA135B6FEA0B5B4FF0FF3A11
:10567000D5E70D9B13EA0A0FE0E7FFF745FB02466B
:105680000B4651EC180BFAF7FFFD0022002382466F
:105690008B46FBF719FA0028C1D011E602FCFFFF88
:1056A0000000F07F00005039FFFF0F00FFFFEF7F89
:1056B000F88900083146284602F010FB59EC108B9F
:1056C00010EE100A00224FF080434946FBF710FA13
:1056D00000287AD00B9B002B4AD0954B0022CDE9B5
:1056E0000823DFF84C924FF00008924B3B400D939B
:1056F0000D9A914B9A4240F0B080DDE90801A7F184
:10570000547B4BEC10ABCDE9080102F00FFADDE958
:10571000080153EC102BFAF76FFF52465B46FAF77D
:10572000B5FD0B468349854A19409142824660D9AE
:1057300018EE903A02F15472934204D118EE103AE6
:1057400001333FF445ADDFF800B24FF0FF3A18994E
:10575000204601F0B9FE0599204601F0B5FE31461C
:10576000204601F0B1FE2946204601F0ADFE1AE6C2
:10577000BAF1000F1BD1CBF31303F3B96C4B00222A
:1057800040464946FBF7AAF9D0B9404649466C4B1A
:105790000022FAF731FF8046894609F10043CDF82F
:1057A00050801593DDE91423CDE908239DE7BAF174
:1057B000010F02D1002F3FF483AD624B00228EE730
:1057C000DFF87C914FF00008E7E75D4B4046494623
:1057D0000022FAF711FF0B9B8046894633B901F18D
:1057E00000430E900F93DDE90E23DDE7CDE90E892E
:1057F000F9E703F1547B049B002BA8D12BF0004365
:105800000D9A1B0D1B059A42A1D140464946FBF754
:1058100053FAFAF7C3FE02460B4640464946FAF7EA
:1058200033FD0B9ACBF3130343EA0A031343804679
:10583000894655D036A3D3E90023FBF74FF900285A
:105840007FF4D0AC34A3D3E9002340464946FBF7AC
:1058500063F900283FF47BAFC4E4049B33B30D9B92
:10586000B3F1D46F22D82EA3D3E900234046494692
:10587000FBF73EF9A0B149464046FBF795F90128F0
:1058800038BF0120FAF73EFE0B9B8046894623BBBA
:1058900001F1004310901193DDE91023CDE90823B5
:1058A000099B0D9A03F1D6639B1A0993DDE9080160
:1058B000B0EE480AF0EE680ACDE9080102F036F9C8
:1058C000DDE9080153EC102BFAF796FE53EC182B88
:1058D000FAF7DCFC82468B468DE7CDE91089DBE7E1
:1058E00011A3D3E90023FBF7F9F8B2E700230A93E9
:1058F000139A179B1360FFF76BBA652A3FF45FABEF
:10590000452A3FF45CAB0123FFF794BBAFF3008063
:105910009535A094FFFFDF3F35E5AF350000E03F50
:105920000000C0FFFFFFDF419535A094FFFFCF3F90
:105930000000F03F0000F07F0000E07FFFFF9F7C51
:105940000000E03F0000F0BFFFFFEF7F014BFFF7DB
:10595000F7B900BF7C000020012B2DE9F04701D0F2
:10596000242B06D9FEF770FA162303600020BDE849
:10597000F087DFF8E4C00D462E4615F8014B14F809
:105980000C7017F00807F7D12D2C32D12C78012795
:10599000B51C002B5BD0102B09D1302C07D12C78F3
:1059A00004F0DF04582C4DD16C781023023507F138
:1059B000004808F1FF384FF0000CB8FBF3F96646D9
:1059C00003FB198AA4F1300EBEF1090F16D87446F4
:1059D000A34224DDBCF1000F1EDBB1451CD301D175
:1059E000A24519DB06FB03464FF0010C15F8014BED
:1059F000E8E72B2C04BF2C78B51CCAE7A4F1410EB4
:105A0000BEF1190F01D8373CE2E7A4F1610EBEF1F7
:105A1000190F04D8573CDBE74FF0FF3CE6E7BCF139
:105A2000000F05DA22230360464642B930469EE75E
:105A300007B17642002AF9D0BCF1000F00D0691EF0
:105A40001160F3E73024002BB1D10823AFE7302CED
:105A5000A5D00A23ABE700BF218A0008FFF77CBF6F
:105A6000F8B50E461446054618B183690BB901F026
:105A70004BF8214B9C422BD16C68A369A360A3898E
:105A80001A072FD523696BB323692068C01A63698D
:105A9000F6B28342374604DC2146284600F0A0FFD8
:105AA00030BBA368013BA36023685A1C22601E70B0
:105AB00063690130834204D0A389DB0706D50A2E2F
:105AC00004D12146284600F08BFF88B93846F8BD3E
:105AD0000A4B9C4201D1AC68CFE7094B9C4208BFFE
