:020000040800F2
:100000001007002029020008F716000891150008C3
:10001000F51600081F040008CD1A000800000000B3
:10002000000000000000000000000000FB160008B7
:100030002104000800000000F9160008FD16000861
:10004000430200084302000843020008430200087C
:10005000430200084302000843020008430200086C
:10006000430200084302000843020008430200085C
:10007000430200084302000843020008430200084C
:10008000430200084302000843020008430200083C
:10009000430200084302000843020008430200082C
:1000A00043020008B117000843020008A517000822
:1000B000430200084302000843020008430200080C
:1000C00043020008430200084302000843020008FC
:1000D00043020008430200084302000843020008EC
:1000E00043020008430200084302000843020008DC
:1000F00043020008430200084302000843020008CC
:1001000043020008430200084302000843020008BB
:1001100043020008430200084302000843020008AB
:10012000430200084302000843020008430200089B
:10013000430200084302000843020008430200088B
:10014000430200084302000843020008430200087B
:10015000430200084302000843020008430200086B
:10016000430200084302000843020008430200085B
:100170004302000843020008430200080000000098
:10018000430200084302000800F002F800F03CF8C7
:100190000AA090E8000C82448344AAF10107DA45E2
:1001A00001D100F031F8AFF2090EBAE80F0013F0F8
:1001B000010F18BFFB1A43F001031847501F00003E
:1001C000701F0000103A24BF78C878C1FAD85207CF
:1001D00024BF30C830C144BF04680C6070470000C1
:1001E0000023002400250026103A28BF78C1FBD840
:1001F000520728BF30C148BF0B6070471FB501F0E0
:100200006FFF1FBD10B510BD00F0CFF81146FFF70E
:10021000F5FF01F081FC00F0EDF803B4FFF7F2FF09
:1002200003BC00F0F5F80000094880470948004782
:10023000FEE7FEE7FEE7FEE7FEE7FEE7FEE7FEE796
:10024000FEE7FEE704480549054A064B70470000F3
:1002500095170008890100081001002010070020F0
:10026000100300201003002053EA020C00F0698004
:100270002DE9F04B4FF00006002B1FBFB3FA83F5BA
:1002800003FA05F424FA05F65E4012BF1643B2FAEB
:1002900082F502FA05F4C5F120051EBF22FA05FC1D
:1002A00044EA0C04203556EA044C4FEA144418BFC3
:1002B000641C4FF000084FF00009904271EB030CF2
:1002C00039D3002919BFB1FA81F701FA07F6B0FA5C
:1002D00080F700FA07F6C7F120071EBF20FA07FCD7
:1002E00046EA0C062037B6FBF4FCA7EB0507103FE7
:1002F00007F01F0BCBF120060CFA0BFB2CFA06F6CD
:1003000044BFB3460026202FA4BF5E464FF0000B2B
:100310005BEA060C08BF4FF0010B19EB0B09ABFBB6
:10032000027C48EB0608C01B06FB02CC0BFB03CC8F
:1003300071EB0C01C1E70B46024641464846BDE859
:10034000F08B13B54FF000004FF00001AFF30080C9
:10035000BDE81C4070474FF0000200B513469446BC
:100360009646203922BFA0E80C50A0E80C50B1F10D
:100370002001BFF4F7AF090728BFA0E80C5048BF21
:100380000CC05DF804EB890028BF40F8042B08BFBF
:10039000704748BF20F8022B11F0804F18BF00F8BB
:1003A000012B7047704770477047754600F02CF876
:1003B000AE4605006946534620F00700854618B052
:1003C00020B5FFF73FFFBDE820404FF000064FF09B
:1003D00000074FF000084FF0000B21F00701AC467A
:1003E000ACE8C009ACE8C009ACE8C009ACE8C00999
:1003F0008D46704710B50446AFF300802046BDE837
:100400001040FFF70ABF000000487047B00000200E
:1004100001491820ABBEFEE7260002007047FEE748
:10042000704772B6FEE700002DE9F84FDFF8BCA177
:100430000022012503264FF00F090AF1040BAAF14F
:10044000040E00BF0B6805FA02F42340A34270D1EA
:100450000F7907F00307012F01D0022F16D187680B
:100460004FEA420806FA08FC27EA0C07D1F80CC04C
:100470000CFA08FC4CEA070CC0F808C04768A74310
:100480000C79C4F3001494403C4344600C79E44379
:10049000A4070AD0C4684FEA420C06FA0CF7BC4322
:1004A0008F6807FA0CF72743C7600C7904F0030440
:1004B000022C12D1D40800EB840CDCF82040570742
:1004C000FF0E09FA07F824EA0804D1F8108008FAA8
:1004D00007F848EA0408CCF8208004684FEA420C88
:1004E00006FA0CF7BC430F7907F0030707FA0CF77D
:1004F000274307604C6814F4403F70D03C4C276899
:1005000047F480472760246822F0030704F48044FE
:100510000094384C07EB040CDCF8084897074FEAC6
:10052000177809FA08F7BC43334FB84202D10027C5
:1005300024E054E0314FB84201D101271EE0304F92
:10054000B84201D1022719E02E4FB84201D103274A
:1005500014E02D4FB84201D104270FE02B4FB842D1
:1005600001D105270AE02A4FB84201D1062705E04C
:10057000284FB84201D1072700E0082707FA08F7FB
:100580002743CCF80878DAF800405746D1F804C081
:100590009C435FEACC2C00D51C433C60DBF8004058
:1005A0005F46D1F804C09C435FEA8C2C00D51C4305
:1005B0003C60DEF800407746D1F804C09C435FEA17
:1005C0008C3C00D51C433C60084F083F3C68D1F888
:1005D00004C09C435FEACC3C00D51C433C60521CE9
:1005E000102AFFF42FAFBDE8F88F0000083C01404F
:1005F0004438024000300140000002400004024044
:1006000000080240000C02400010024000140240AA
:1006100000180240001C02400AB1816170470904C1
:10062000FBE70000014880687047000008000020D8
:1006300002488168027811448160704708000020F8
:100640000B4810B5016841F400710160016841F484
:1006500080610160016841F480710160032000F055
:100660006FF80F2000F006F800F024F8002010BD0D
:10067000003C024070B50D4D04464FF47A71287865
:10068000B1FBF0F00A490968B1FBF0F000F00AFB99
:1006900048B9102C07D200222146501E00F030F835
:1006A00000206C6070BD012070BD000008000020BB
:1006B000140000200A4808B5016841F48041016037
:1006C000006800F4804000900548001F016841F078
:1006D00080510160006800F08050009008BD00006B
:1006E00044380240002809DB00F01F02012191403C
:1006F0004009800000F1E020C0F8001170470000C0
:10070000F0B40E4B1B680C46C3F30223C3F107057C
:10071000042D00D90425191D072901D2002300E06A
:10072000DB1E012606FA05F1491E214099409E4034
:10073000761E16403143F0BC01F0C9B90CED00E063
:10074000064900F0070208684FF6FF03184040EA28
:100750000220034A10430860704700000CED00E0DF
:100760000000FA052DE9F0470E46050065D0DFF8D8
:100770001481D8F80000F7B200F00700B04207D2A9
:1007800088F80070D8F8000000F00700B04254D19B
:1007900028683D4C810712D5400703D5206840F4F6
:1007A000E05020602878000703D5206840F46040BE
:1007B00020602068A96820F0F000084320602878B5
:1007C000C0072DD0304968680839012812D00228A6
:1007D00013D0032811D00968890700292DDA216870
:1007E00021F0030101432160FFF71CFF814641F224
:1007F000883A0EE009688903EFE709688901ECE7A8
:10080000FFF710FFA0EB0901514502D90320BDE815
:10081000F0872068696800F00C00B0EB810FEFD121
:10082000D8F80010404601F00701B14207D907701F
:10083000006800F00700B04201D00120E7E7287807
:10084000400705D52068E96820F4E050084320609F
:100850002878000706D52068296920F4604040EA1E
:10086000C100206000F038F82168084AC1F3031184
:10087000515CC8400649086006480068FFF7FAFE68
:100880000020C4E7003C024008380240F420000881
:10089000140000200C000020044805490068096885
:1008A000044AC1F38221515CC84070471400002003
:1008B0000838024004210008044805490068096816
:1008C000044AC1F34231515CC84070471400002013
:1008D0000838024004210008154810B5006810F0DF
:1008E0000C02144813D04110042A0FD0082A0ED14C
:1008F0000F4C241F2268236802F03F025B0207D5D9
:100900002068C0F38810A0FB010106E0084610BD76
:100910002168C1F38811A1FB00010023FFF7A4FCAB
:100920002168C1F30141491C4900B0FBF1F010BD41
:10093000083802400024F4002DE9F84F04006ED07E
:100940002078DFF84C93C007A9F104054AD009F1DB
:1009500004000168C1F38101012908D00068C0F3D7
:10096000810002280AD1D9F80000400206D5286883
:10097000800337D560680028E1D033E06068B0F5C7
:10098000803F10D0B0F5A02F286810D020F4803020
:100990002860286820F4802028606068A8B1FFF7EC
:1009A00041FE06460DE0286840F48030F4E740F44C
:1009B00080202860F7E700BFFFF734FE801B642823
:1009C00073D828688003F7D50CE0FFF72BFE0646A6
:1009D00005E000BFFFF726FE801B6428F0D82868DA
:1009E0008003F7D42078DFF8AC8280074FF0000A4C
:1009F0003ED5A748001D016811F00C0F08D0006813
:100A0000C0F3810002280BD1D9F80000400207D4BE
:100A10002868800716D5E068012800D112E033E18C
:100A2000E068B8B10120C8F80000FFF7FBFD0646FA
:100A300005E000BFFFF7F6FD801B0228C0D828683C
:100A40008007F7D52868216920F0F80040EAC10046
:100A500028600DE0C8F800A0FFF7E4FD064604E0BA
:100A6000FFF7E0FD801B02281FD828688007F7D415
:100A70002078000722D5864F87486169703771B1A9
:100A800001210160FFF7CEFD064604E0FFF7CAFD35
:100A9000801B022809D838688007F7D50EE0C0F817
:100AA00000A0FFF7BFFD064605E082E0FFF7BAFDB4
:100AB000801B02287DD838688007F7D4207840074B
:100AC00068D5DFF8CCB100270BF13C0BDBF8000058
:100AD000C0000BD4DBF8001041F08051CBF80010BF
:100AE000DBF80000012700F0805000906B4E30686A
:100AF000C00510D4306840F480703060FFF792FD7C
:100B0000009005E0FFF78EFD0099401A022850D8AA
:100B10003068C005F6D55E4EA0686C3601280FD04F
:100B20000528306810D020F001003060306820F0D7
:100B300004003060A068B8B1FFF774FD00900FE0CA
:100B4000306840F00100F4E740F004003060F7E75F
:100B5000FFF768FD0099411A41F28830814266D85A
:100B600030688007F4D50EE0FFF75CFD009007E0E9
:100B7000FFF758FD0099411A41F28830814256D85A
:100B800030688007F4D42FB1DBF8001021F08051D9
:100B9000CBF80010A069C8B33D49091D0968C1F32D
:100BA000810102294AD00228504607D0C8F86000C7
:100BB00000E03CE0FFF736FD04463BE04746C8F85E
:100BC0006000FFF72FFD064605E000BFFFF72AFD96
:100BD000801B02282BD828688001F7D4D4E90701AC
:100BE0000843A16A2E4A490802EB0141626A41EAC0
:100BF0008211084394F82C1040EA0161C9F80010F2
:100C000001203866FFF70EFD044606E03EE000BF17
:100C1000FFF708FD001B022809D828688001F7D5D6
:100C200034E000BFFFF7FEFC001B022802D90320BE
:100C3000BDE8F88F28688001F4D427E00128F7D0B8
:100C4000D9F80000E26900F4800191421CD1226AC7
:100C500000F03F01914217D147F6C071626A01402E
:100C6000B1EB821F10D1A26A4FF0FF3300F4403184
:100C700003EB5202B1EB024F06D194F82C1000F0B6
:100C80007060B0EB016F01D00120D1E70020CFE709
:100C90000438024000004742800E47420070004086
:100CA0000000FFFF10B5401EB0F1807F01D301208E
:100CB00010BD4FF0E02460610F21601700F007FFC6
:100CC0000020A06107202061002010BD7047704700
:100CD00070B590F83C20012A32D0012480F83C40C5
:100CE000022280F83D2003685A689D6822F0700651
:100CF0000A6832435A60134B02689A4214D0B2F128
:100D0000804F11D0104B9A420ED0104B9A420BD00C
:100D10000F4B9A4208D00F4B9A4205D00E4B9A4285
:100D200002D00E4B9A4204D1496825F08003194342
:100D3000916080F83D40002180F83C10084670BD6D
:100D4000022070BD00000140000400400008004087
:100D5000000C004000040140004001400018004029
:100D600010B5040003D094F83D0010B107E0012055
:100D700010BD002084F83C00204600F01FF802203F
:100D800084F83D00211D206800F018FD012084F842
:100D9000460084F83E0084F83F0084F8400084F860
:100DA000410084F8420084F8430084F8440084F849
:100DB000450084F83D00002010BD000010B586B04D
:100DC000044614216846FFF7C6FA1B49206888428A
:100DD00030D11A480021026842F001020260006826
:100DE00000F00100059015481438026842F0100226
:100DF0000260006800F0100005904FF40070009051
:100E00000220CDE901010120CDE9031069460C481B
:100E1000FFF70AFB002211461920FFF771FC192089
:100E2000FFF760FC002211461B20FFF769FC1B2026
:100E3000FFF758FC06B010BD0000014044380240E6
:100E40000010024090F83D10012901D001207047A8
:100E5000022180F83D100168CA6842F00102CA60B0
:100E600000681149884214D0B0F1804F11D00F4969
:100E700088420ED00E4988420BD00E49884208D0D5
:100E80000D49884205D00D49884202D00C4988425C
:100E900004D1816801F00701062903D0016841F0FF
:100EA0000101016000207047000001400004004083
:100EB00000080040000C00400004014000400140D8
:100EC0000018004070B5044690F83C000025012849
:100ED00017D0012684F83C60022084F83D00206889
:100EE000826822F0770222F47F42826008685028EC
:100EF00038D00DDC20284FD005DC90B3102811D15C
:100F00004AE0022070BD302846D040280AD13BE09C
:100F100060282FD070280DD0B0F5805F03D0B0F5D9
:100F2000005F12D0012584F83D60002084F83C0069
:100F3000284670BDCB68D1E90121206800F0AFFCE4
:100F40002068816841F0770109E0CB68D1E901218F
:100F5000206800F0A4FC2068816841F48041816031
:100F6000E1E719E0CA684968206800F0AAFC50214E
:100F7000206806E0CA684968206800F0F3FC602138
:100F8000206800F096FCCEE7CA684968206800F047
:100F900098FC40212068F4E7226801461046F0E7FB
:100FA0002DE9F04132492DED028B0068884234D1A1
:100FB000304D314F002628784FF0010805F10C0420
:100FC00078B3012829D1A86838600021204600F0B4
:100FD00061FA686021680A6A22F00A020A622168DE
:100FE0000A6A0A622E7000F07FFE9FED241B53EC0C
:100FF000112B00F08DFE41EC180B386800EB00104F
:1010000000F072FE53EC182B00F0C6FD00F092FDCC
:10101000786085F8018020684662BDEC028BBDE8EF
:10102000F081FFE72068016A41F21112114207D1F5
:10103000016A9210114203D1016821F0010101609F
:101040003E606E60AE60206846622068016A21F0F2
:101050000A0101622068016A41F00201016285F81B
:1010600000802068016841F001010160D5E70000BF
:101070000000014018000020000000209CC420B0A7
:101080007268913F2DE9F041054690F83C0000263A
:101090000C46012810D0012085F83C0072B1042ACA
:1010A0001CD0082A2CD00C2A50D00126002085F80C
:1010B0003C003046BDE8F0810220FBE7D4E9001295
:1010C000E368286800F00EFC2868816921F00C01B3
:1010D000816128688169A26811430FE0D4E9001298
:1010E000E368286800F050FC2868816921F44061B9
:1010F000816128688169A26841EA02218161D5E79E
:101100002868D4E9002C277B016A21F480710162F0
:10111000C169036A21F0030141EA0C0121F0F00CDE
:1011200039074FF420674CEA116123F4206307EA82
:1011300002221A43C16102622868C16921F00C01D0
:10114000C1612868C169A268114328E02868D4E910
:101150000027E168036A23F480530362D0F81CC0BF
:10116000036A2CF4407C4CEA07274FF6FF7C27F4F7
:1011700070470CEA013139434FF4204723F42043F0
:1011800007EA02321A43C16102622868C16921F488
:101190004061C1612868C169A26841EA0221C16158
:1011A00084E710B5040003D094F83D0010B107E0C7
:1011B000012010BD002084F83C00204600F01EF8FD
:1011C000022084F83D00211D206800F0F7FA01207C
:1011D00084F8460084F83E0084F83F0084F840001C
:1011E00084F8410084F8420084F8430084F8440005
:1011F00084F8450084F83D00002010BD70470000D1
:1012000030B50446002551B104290DD0082910D06D
:1012100094F8410094F84520012811D10EE094F88B
:101220003E0094F84220F7E794F83F0094F84320FA
:10123000F2E794F8400094F84420EDE7012A01D049
:10124000012030BD022059B1042912D0082919D03B
:1012500084F8410084F845000C2944D0012540E081
:1012600084F83E0084F842002068C26842F002021E
:1012700010E084F83F0084F843002068C26842F020
:10128000040207E084F8400084F844002068C26843
:1012900042F00802C2600122206800F0F3FA14490B
:1012A0002068884214D0B0F1804F11D01149884293
:1012B0000ED0114988420BD01049884208D01049FD
:1012C000884205D00F49884202D00F49884204D194
:1012D000816801F00701062903D0016841F001018E
:1012E0000160284630BD2068C26842F01002D1E794
:1012F000000001400004004000080040000C0040D5
:1013000000040140004001400018004070B5044650
:10131000006801694FF00005C943890715D4C16809
:10132000C943890711D4E91E016101202077206893
:1013300080698007204602D0FFF732FE04E000F00B
:1013400098F8204600F096F8257720680169C9438F
:10135000490717D4C168C943490713D46FF0040182
:101360000161022020772068806910F4407F2046C8
:1013700002D0FFF715FE04E000F07BF8204600F0F5
:1013800079F8257720680169C943090716D4C1682F
:10139000C943090712D46FF00801016104202077C6
:1013A0002068C0698007204602D0FFF7F9FD04E0FD
:1013B00000F05FF8204600F05DF8257720680169AD
:1013C000C943C90617D4C168C943C90613D46FF00D
:1013D00010010161082020772068C06910F4407F67
:1013E000204602D0FFF7DCFD04E000F042F8204682
:1013F00000F040F8257720680169C943C90708D182
:10140000C168C943C90704D1891E0161204600F0A3
:1014100033F820680169C943090609D4C168C94382
:10142000090605D46FF0800101612046FFF74EFCEC
:1014300020680169C943490609D4C168C9434906FE
:1014400005D46FF040010161204600F038F82068B3
:101450000169C94389060BD4C168C943890607D409
:101460006FF0200101612046BDE87040FFF72FBCFE
:1014700070BD70477047000000680449884203D17E
:1014800003488168491C81607047000000000140EA
:10149000180000200246002041B1042909D0082983
:1014A0000AD00C2901D11068006C70471068406B9D
:1014B00070471068806B70471068C06B704770474A
:1014C00070B5040004D094F83D00002510B106E08A
:1014D000012070BD84F83C50204600F023F8242001
:1014E00084F83D002068C16821F40051C1602046A5
:1014F00000F066FA2068016921F4904101612068DA
:10150000416921F02A0141612068C16841F400511C
:10151000C1602564202084F83D0084F83E0000204E
:1015200070BD000010B586B0044614216846FEF771
:1015300012FF14492068884221D113480021026813
:1015400042F480220260006800F4802005900E487A
:101550001038026842F008020260006800F00800DB
:1015600005904FF4407000900220CDE90101032066
:1015700003900720049069460448FEF755FF06B023
:1015800010BD00000048004040380240000C0240FE
:10159000FEE7000070B586B014216846FEF7DBFE5A
:1015A0001E480025016841F004010160016801F056
:1015B00004010591016841F080010160016801F0BA
:1015C00080010591016841F010010160016801F09E
:1015D00010010591016841F008010160016801F006
:1015E00008010591016841F00101016000680C4E9D
:1015F00000F001004FF4806405900022214630463F
:10160000FFF70AF80120CDE900400220CDE90205EC
:1016100069463046FEF708FF06B070BD303802401C
:101620000010024010B58AB00024234804940594A9
:1016300006940794089409940094019402941D4917
:1016400003940160A721C0E9011440F2E731C0E929
:10165000031444618461FFF783FB08B1FEF7E1FEE8
:101660004FF48050049004A91348FFF72BFC08B1F5
:10167000FEF7D7FE1048FFF794FD08B1FEF7D1FE44
:10168000089408A90C480994FFF722FB08B1FEF75B
:10169000C8FE0120CDE900400294002269460648B8
:1016A0000394FFF7EFFC002801D0FEF7BAFE0AB062
:1016B00010BD000000000140240000200C4810B5BF
:1016C0000A4901604FF4E1314160002181600C2240
:1016D000C160C0E904128161C161FFF7F1FE002819
:1016E00003D0BDE81040FEF79CBE10BD004800408E
:1016F0006C000020FEE7FEE770477047FEF798BFDA
:1017000030B593B030216846FEF725FE14210CA8B1
:10171000FEF721FE1D480025016841F0805101605F
:10172000006800F0805011901948016841F4804130
:1017300001600068022400F48040119001200090B4
:10174000000401908001CDE9064008AA0420A821E8
:1017500082E813000B906846FFF7EEF808B172B606
:10176000FEE70CA90F2081E831004FF4A0500F9044
:101770004FF48050109005210CA8FEF7F3FF0028CD
:1017800001D072B6FEE713B030BD00004038024011
:10179000007000400248016841F470010160704728
:1017A00088ED00E00148FFF7B1BD000024000020F3
:1017B0000148FFF7ABBD000024000020F0B502682F
:1017C000254C264D264E274F274B4FF0804CA042EC
:1017D00009D0604507D0A84205D0B04203D0B84236
:1017E00001D0984204D122F0700E4A6842EA0E02FB
:1017F000A0421BD0604519D0A84217D0B04215D0E6
:10180000B84213D0984211D0184DA8420ED0184DAE
:10181000A8420BD0174DA84208D0174DA84205D0BA
:10182000164DA84202D0164DA84203D122F44075AD
:10183000CA682A434D6922F080022A4302608A68FE
:10184000C2620A688262A04201D0984201D109694D
:10185000016301214161F0BD00000140000400402E
:1018600000080040000C004000040140004001401E
:10187000004401400048014000180040001C0040A6
:101880000020004010B501F01F030121046A9940B7
:101890008C430462016A9A401143016210BD10B585
:1018A000846842EA032224F47F440A43224382608C
:1018B00010BD826822F070020A4342F00701816085
:1018C000704710B5036A046A24F001040462846955
:1018D00024F0F00444EA021423F00A020A4384616B
:1018E000026210BD70B5046A24F0010404628469C8
:1018F000056A154EB04214D0B0F1804F11D0134E8E
:10190000B0420ED0124EB0420BD0124EB04208D0B0
:10191000114EB04205D0114EB04202D0104EB0422E
:1019200003D124F00304144301E044F001041A0736
:1019300024F0F00444EA126225F00A0301F00A01DF
:1019400019438261016270BD000001400004004043
:1019500000080040000C004000040140004001402D
:101960000018004010B5036A23F010030362836976
:10197000046A23F4704343EA023224F0A00343EAEA
:1019800001118261016210BD30B5046A24F01004B7
:1019900004628469056A24F4407444EA022222F451
:1019A00070444FF6FF7202EA03322243A02425F06E
:1019B000A00304EA011119438261016230BD0000F5
:1019C00070B5044600680169E26821F44051114392
:1019D00001612169A068E269084361691143084314
:1019E0002168CA6849F20C639A430243CA602068BE
:1019F0004169A26921F44071114341613149206874
:101A0000884202D03049884202D1FEF755FF01E0FA
:101A1000FEF742FFE2690023192164253226B2F560
:101A2000004F626828D0A0FB0101930F9200FEF7DF
:101A30001BFC0146B0FBF5F06FF01802504301EBC0
:101A4000800006EB0010B0FBF5F000F0F002B1FBF7
:101A5000F5F002EB0012B1FBF5F06FF018035843FC
:101A600001EB800006EB0010B0FBF5F000F00F007A
:101A700021681044886070BDA0FB010192185B4191
:101A8000FEF7F2FB0146B0FBF5F00201B1FBF5F009
:101A90006FF01803584301EB800006EBC000B0FB69
:101AA000F5F000F0F80002EB4002B1FBF5F058430E
:101AB00001EB800006EBC000B0FBF5F000F0070082
:101AC000D6E700000010014000140140FEE70907BE
:101AD000090E002804DB00F1E02080F800147047B4
:101AE00000F00F0000F1E02080F8141D70470000A6
:101AF000084810B5002101704170816041600C30D0
:101B0000FFF7A0F903480021BDE810400C30FFF7B3
:101B100077BB000018000020FEF792FDFFF7F0FDF4
:101B2000FFF738FDFFF77EFDFFF7C8FDFFF7E0FF89
:101B3000FEE7000021F00042A2F16052B2F5801FE2
:101B400001F0004328BFD2F17F6C0BD95FEA001C83
:101B500043EAC20242EB507018BF704728BF20F022
:101B600001007047B2F5801FBCBF184670474FEAAE
:101B7000410C1CF5001F02D2084600F0B6BA70B541
:101B800000F070F900000089FFF7F6BF4FF0004049
:101B9000A0F580007047000010B591EA030F48BF20
:101BA00083F0004300F1BA81841A71EB030C05D273
:101BB000121943EB0C03001B61EB0C01DFF824E16D
:101BC0004FEA1154A4EB135C1EEA430F18BF9EEAC0
:101BD000445F73D023EA0E03DCF1200E21EA0451A6
:101BE00043F4801332D322FA0CFE10EB0E0023FADA
:101BF0000CFE41EB0E01CCF1200E03FA0EFE10EBB1
:101C00000E0051F10001B1F5801FCCF1200E32D24F
:101C100001EB045112FA0EF2BDE8104058BF7047B4
:101C2000401C38BF5FEA420218BF7047002814BF4B
:101C300020F0010041F100014FEA410313F5001FBC
:101C400038BF7047A1F1C04100F05AB9012A43EBF7
:101C50000302ACF1200CDCF11F0E32BF4FF0000E7E
:101C600023FA0CF310EB030041EB0451B4EB115FCA
:101C7000D0D0A1EB045101F5801149085FEA300092
:101C800001EB04510ED350F1000038BF12FA0EFEE2
:101C900008D1BDE81040C9E7401C38BF5FEA4202E6
:101CA000CAD1C3E7BDE810404FEA410313F5001F56
:101CB00038BF7047A1F1C04100F022B99EEA445FED
:101CC00008D011EA5E0FBDE8104004BF01F00041EA
:101CD00000207047BDE8104070B500F0C3F800BFA9
:101CE00064FBBE3E0000E0FFB0FA80F310FA03F19F
:101CF0000AD0C3F11D0303F580634FEA41504FEA58
:101D0000035202EBD12170474FF0000070470000F2
:101D1000DFF848C170B51CEA111E1EBF1CEA13157E
:101D20009EEA0C0F95EA0C0F00F06F8081EA030425
:101D300023EA4C134EEAD47E21EA4C1141F480117F
:101D400043F48013AE44A1FB024CA0FB0365AEF14B
:101D50007F7E361955EB0C05A1FB034C4CF10003BB
:101D6000A0FB021C16EB0C06654153F1000309426F
:101D700018BF46F0010613F4007F0BD14FEA033180
:101D80004FEA0530340341EA155140EA16506FF02E
:101D900003020AE04FEAC3214FEAC520F40241EAF8
:101DA000555140EA56506FF0020202EB2E4201EB11
:101DB000025585EACE710AD05FEA440C18BF24F0C0
:101DC000004450F1000041F1000120EAD47040F2DB
:101DD000FE7C624500D270BDA84214BF4FF0804423
:101DE0004FF04044002E08BF0024BEF1806FA8BF12
:101DF000A1F1C041BDE8704080F282804FF0000048
:101E000001F1C04101F0004170479EEA0C0F0CEA5D
:101E1000131518BF95EA0C0F06D04FF0000081EAA9
:101E2000030E0EF0004170BD00F01CF88900013E69
:101E300000F007B800F009B84FEA430C5FEA5C5CB9
:101E400008D081EA030100F05BB84FEA410C5FEA79
:101E50005C5CF6D14FF00000014970470000FF07BD
:101E60000000F87F0EF1020E2EF0030E5EF8046BF8
:101E7000364205D4012A43EB030515F5001F12D89D
:101E8000012841EB010C1CF5001F0CD80ED14FEAC4
:101E9000D17C15F5001F0CEB4C0C0CF1020C08BFAB
:101EA0004CEBD37C04E04FF0080C01E04FEAD37C0C
:101EB0000CEB4C0526FA05F606F00706B6F1040C05
:101EC00006D20EEB860CBDE870404CF0010C60476A
:101ED000DFE80CF0090B02024FF000414FF0000068
:101EE000A1F5002170BD19461046012851EB0104EF
:101EF00018BFD4F5001484BF002001F0004170BD6C
:101F00000808A0F500114FEA3101704710B591EAB9
:101F1000030F48BF83F000433FF546AE841A71EBD0
:101F2000030C07D212198CF0004C43EB0C03001B7E
:101F300061EB0C01DFF8A4E14FEA1154A4EB135C50
:101F40001EEA430F18BF9EEA445F00F0B08023EA08
:101F50006E03524221EA0451C3EB6E0338BF5B1E8D
:101F6000DCF1200E25D322FA0CFE10EB0E0043FA12
:101F70000CFE41EB0E01CCF1200E03FA0EFE10EB2D
:101F80000E0051F10001CCF1200E29D412FA0EF20C
:101F900001EB0451BDE8104058BF7047401C1CBF06
:101FA000B2F1004F704700280CBF491C20F001001F
:101FB000704712EB020E43EB030218BF4FF0010E05
:101FC0004EEA4202ACF1200CDCF11E0E54D943FA69
:101FD0000CFE10EB0E0051F1FF31CCF11E0ED5D5E9
:101FE0000EF1010E12FA0EFE404141EB010101EB30
:101FF000445C5FEA5C5C10D910EBDE7001EB0451CD
:1020000038BFBEF1004FBDE8104018BF7047002830
:102010000CBF491C20F00100704730D24FEAD42C8D
:1020200011F5001124F400641BD0B1FA81F20B3ACF
:10203000A41AA41ED2F12003914030FA03F31943ED
:10204000904001EBCC71002C01EB0451BDE8104035
:10205000A8BF704701F1C0414FF0000001F00041FE
:102060007047B0FA80F310FA03F100D110BDE41A02
:10207000173C4805C90AE4E701EB045110BD4910BB
:1020800001EB0451BDE810404FEA300002E04FF090
:10209000000170474A0008BF0042F8D0B2F5001FA7
:1020A00028BF704701F000414FF0000070479EEAE2
:1020B000445F07D011EA5E0FBDE8104004BF002165
:1020C00000207047BDE8104070B5FFF7CBFE00BFA1
:1020D00040DFF63E83F00041104670470000E0FF0D
:1020E0004FF04070E1EE100A7047FF2141EAD050F6
:1020F000C00570470000000000000000010203045A
:102100000607080900000000010203042C21000852
:102110000000002018000000C4010008442100084D
:1021200018000020F8060000E00100080000000090
:10213000000000000100000010000000000000008E
:042140000024F40083
:040000050800018965
:00000001FF
