:020000040800F2
:10000000081B00206102000865220008D51D0008B9
:100010006122000845140008253500080000000092
:100020000000000000000000000000008134000813
:1000300051140008000000007D34000885340008D9
:100040007B0200087B0200087B0200087B0200089C
:100050007B0200087B0200087B0200087B0200088C
:100060007B0200087B0200087B0200087B0200087C
:100070007B0200087B020008491400084D140008A8
:100080007B0200087B0200087B0200087B0200085C
:100090007B0200087B0200087B0200087B0200084C
:1000A0007B0200087B0200087B0200087B0200083C
:1000B0007B0200087B0200087B0200087B0200082C
:1000C0007B0200087B0200087B0200087B0200081C
:1000D0007B0200088D3400087B0200087B020008C8
:1000E0007B0200087B0200087B02000800F002F897
:1000F00000F0A6F814A696E8000CB244B344DA4522
:1001000001D100F09DF8BAE80F000FA696E8300084
:10011000A5EB040504EB0607AAEB0704A7F101070A
:100120004FEA15154FEA3414A4F10104AC4201D38F
:1001300000F086F813F0010F18BFFB1A43F001031B
:1001400000F001F8DBE71847605E0000805E000009
:10015000103A24BF78C878C1FAD8520724BF30C8F3
:1001600030C144BF04680C60704700007047000055
:100170000023002400250026103A28BF78C1FBD8B0
:10018000520728BF30C148BF0B6070476E2900F08E
:100190008F81702900F0D382662903F0B587652925
:1001A00003F0B287672903F0AF87612903F0AE87B8
:1001B00003681B0A28BF41F08001692900F03C81D7
:1001C000642900F03981752900F036816F2900F02B
:1001D0006182782900F09F82E92900F0FB81E429FF
:1001E00000F0F881F52900F0F581EF2900F05E823A
:1001F000F82900F09E820368DB0928BF41F08001E6
:10020000632900F09F87732900F0A487E32900F099
:10021000AF87F32900F0B487002070471FB501F0C5
:1002200005F804000020002103F058FF401C606026
:100230000020002103F03CFFE0601FBD10B510BDA1
:1002400000F0C6FF1146FFF7E9FF03F083FA01F063
:10025000A3F803B4FFF7F2FF03BC01F0EBF80000D2
:100260000948804709480047FEE7FEE7FEE7FEE74A
:10027000FEE7FEE7FEE7FEE7FEE7FEE70448054986
:10028000054A064B7047000089340008ED0000085D
:1002900008150020081B0020081700200817002060
:1002A0007CB51D4616460C00009007D04142A14285
:1002B00002D32044401E01E04FF0FF30064B7B4448
:1002C0002A4669460190304600F00BF9002C02D016
:1002D000009A002111707CBD470200004FF000021F
:1002E0000429C0F0128010F0030C00F01B80CCF148
:1002F000040CBCF1020F18BF00F8012BA8BF20F8B6
:10030000022BA1EB0C0100F00DB85FEAC17C24BF09
:1003100000F8012B00F8012B48BF00F8012B7047B3
:100320004FF0000200B5134694469646203922BF8E
:10033000A0E80C50A0E80C50B1F12001BFF4F7AFD9
:10034000090728BFA0E80C5048BF0CC05DF804EBBB
:10035000890028BF40F8042B08BF704748BF20F829
:10036000022B11F0804F18BF00F8012B7047704727
:100370007047704770B5044685690068C10601D5AD
:10038000302600E02026C00707D070BDD4E9012147
:1003900030469047206A401C20626D1EF6D570BD25
:1003A00070B5044685690078C00707D170BDD4E9EF
:1003B000012120209047206A401C20626D1EF6D546
:1003C00070BD09684A0501D540B27047C905FCD522
:1003D00000B2704709684A0501D5C0B27047C90527
:1003E000FCD580B2704770B50C460546012A05D091
:1003F0002878800600D5EA69002302E0012305E0A1
:100400005B1C934202D2E05C0028F9D1A869E6188F
:10041000C01AA861286A184428622846FFF7AAFF74
:1004200004E0D5E9012114F8010B9047B442F8D358
:100430002846FFF7B5FF70BD2DE9F04106460024C0
:1004400010687529314616A510D0FFF7BAFF0028AD
:1004500002DA404213A507E031688A0701D512A5E8
:1004600002E0490704D511A5012401E0FFF7B2FF1E
:1004700000210A2206F1240709E0B0FBF2FCB0FBE0
:10048000F2F302FB1C00303078541846491C002857
:10049000F3D123462A463046BDE8F04100F063BA66
:1004A000000000002D0000002B00000020000000D4
:1004B00011680268006A530501D508700AE0D30587
:1004C00001D5088006E0130603D5C217C1E9000272
:1004D00000E008600120704701694A1C0261087849
:1004E000704700B58FB0CDE9013100210591054974
:1004F0007944CDE903101146684600F02BF90FB09E
:1005000000BD0000E5FFFFFFD1E900239A4202D2BF
:10051000531C0B60107070472DE9FF5F15468A462B
:100520000446DFF8AC80F8440027D8E900103E46C6
:10053000CDE9001010E03AF816106A4602A800F063
:1005400023FE411C07D02178890603D5E2693918BA
:1005500091420DD80744761C2078800602D5E069C8
:10056000B84205DDAE42E6DB3AF816000028E2D1DB
:10057000A069C01BA0612046FFF7FCFED8E900106F
:10058000CDE90010002017E03AF818106A4602A8DA
:1005900000F0FAFDB0F1FF3F81460BD000250DF1D0
:1005A000080B05E0D4E901211BF8050090476D1CFC
:1005B0004D45F7D308F10100B0428046E4DB206AE4
:1005C000384420622046FFF7EBFEBDE8FF9F0000A5
:1005D000E63B00002DE9F0418046D21D22F00702E3
:1005E0000025D2E90002F52915A614D0011E72F1EA
:1005F000000106DA0023D0EB030063EB020211A630
:1006000008E0D8F800108B0701D50FA602E04907D3
:1006100001D50EA601251146002408F1240704E0A7
:1006200000F05CF930323A55641C50EA0102F7D10F
:100630002B46324621464046BDE8F04100F093B9D2
:10064000000000002D0000002B0000002000000032
:1006500030B4002100F1240408E002F00705D208BC
:10066000303542EA4372DB086554491C52EA0305FF
:10067000F3D10468002310A2250708D504F0200454
:100680000C4304D0C46901230CA2641EC46130BCB5
:1006900000F069B910B5044621461068FFF79AFECC
:1006A00002462046BDE810400023D1E7D21D22F0CB
:1006B0000701D1E90023CBE7000000003000000073
:1006C000F0B40D460188090502D5214C7C4402E0B6
:1006D0001F4C7C440E34002100F1240608E002F097
:1006E0000F071209E75D42EA03721B097754491CA0
:1006F00052EA0307F3D102780023120704D5702DC4
:1007000006D009B1022311342246F0BC00F02BB907
:1007100001231034F8E770B504460D4621461068F1
:10072000FFF758FE024629462046BDE870400023E8
:10073000C6E7D21D22F00703D3E90023C0E7036810
:10074000126843F0200303600823C3610023B7E766
:10075000483A00002DE9F05F894604464FF0000A50
:10076000DFF874B1FB44C0F820A02046E168884758
:10077000002874D0252806D0D4E901219047206AAA
:10078000401C2062F1E700265F462046E16888476A
:100790002028054607DB312D05D2781910F8200CEA
:1007A00008B10643F1E7B00701D526F00406C4F806
:1007B0001CA00027C4F818A02A2D09D0284603F051
:1007C0006FFC38B304EB8708303DC8F8185019E0C7
:1007D00059F8041B204604EB87029161E1688847C1
:1007E000012F054618D1E069002820DA26F02006FE
:1007F0001DE0D8F8180000EB800005EB4000303811
:10080000C8F818002046E1688847054603F048FC10
:100810000028EED1012F0AD02E2D08D12046E16804
:1008200088477F1C0546022F46F02006C4DBA069DE
:10083000002803DA404246F00106A061F00701D02B
:1008400026F010066C2D0BD0682D09D04C2D39D018
:100850006A2D35D0742D35D07A2D33D016E038E09E
:10086000E1682F4620468847B842054609D16C2FDB
:1008700026D04FF48060E16806432046884705464D
:1008800004E06C2F1AD04FF4807006430DB3A5F12D
:100890004100192802D8203546F400664A46294608
:1008A000204626604E46FFF771FC80B101280BD030
:1008B000F61D26F0070000F1080956E74020E4E79E
:1008C0008020D8E70020D6E706F104094DE7284646
:1008D00052E7206ABDE8F09FD839000030B5B0F18A
:1008E0000A0271F100034FEA900E4EEA817EB0EBEE
:1008F0000E0061EB91014FEA101E4EEA017E10EBF3
:100900000E0041EB11114FEA102E4EEA016E10EB72
:100910000E0041EB11214FEA104E4EEA014E10EB52
:100920000E0041EB1141401841F100014FEAD000A7
:1009300040EA41704FEAD1014FEA810444EA9074E1
:1009400010EB800544EB01046D1944EB0404521BC9
:10095000A3414FF0000348BF0A3200D530BD401C10
:1009600041F1000130BD2DE9F0470D469946924610
:10097000044600F124080168880604D5E06921F0E6
:100980001001216000E00120A84201DD471B00E0CA
:100990000027A1697A1902EB0900081AA0612078E2
:1009A000C00602D42046FFF7E5FC002608E0D4E9A3
:1009B00001211AF806009047206A401C761C20622C
:1009C0004E45F4DB2078C0060AD52046FFF7D2FC5E
:1009D00006E0D4E9012130209047206A401C2062C3
:1009E000381EA7F10107F4DC07E0D4E9012118F86B
:1009F00005009047206A401C2062281EA5F10105D1
:100A0000F3DC2046FFF7CCFC2078000602D502205C
:100A1000BDE8F0870120FBE72DE9FF4F0C461E469D
:100A20004FF0FF378BB0D2E90001DDF860800A900B
:100A30008A46C1F30A5505B93D46002108464FF0E4
:100A40000000BAF1000F00F4400005DA00EB80006E
:100A50004FF4400101EA50004FEA9059B9F1010FFB
:100A600000DDB9460A9850EA4A000ED044F610500C
:100A7000A5F2FF3545432F14B8F1000F1ED0754283
:100A8000291E1EDDC9F100021CE0B8F1010F4FF074
:100A9000000001D0302103E0F24305E02154401C66
:100AA000B042FBDB30460022002121540B99C1F8F3
:100AB0000880C1E900200FB0BDE8F08FBD1B6D1CA0
:100AC000DEE74A4600DA694206A800F0F3FB06AB0F
:100AD00093E8070003AB83E8070050460A9902F049
:100AE00003FF8DE80700A0F500501F380090039821
:100AF000002D0ADD42F21F014A460844002303A9E3
:100B00000390684603F06CF909E0A0F500504A46EE
:100B10001F38002303A90390684603F076F98DE897
:100B200007000004000C03D04FF0FF30410800E044
:100B30001046B8F1000F03D00022009215461EE0C7
:100B4000751E05D4FFF7CAFE303262556D1EF9D509
:100B5000B3460122084302D000227F1C04E0207823
:100B6000302801D100227F1E002A099784D01DE081
:100B7000112D07DAFFF7B2FE303262556D1C50EAD4
:100B80000102F5D1084302D00098C8B10EE000215F
:100B9000681E05E0235C625C63542254401E491CBD
:100BA0008142F7DBAB46A81B401E0990002004F8E9
:100BB0000B000B98099AC0F80880C0E9002B7AE76F
:100BC00011264FF0000857E72DE9F04F88460446FC
:100BD000D21D22F0070191B0D1E90001CDE90A014F
:100BE00003F04AFA02460B98C00F01D02D2007E00F
:100BF0002068810701D52B2002E0202101EAC000F6
:100C0000032A099001D0072A05DB03464146204606
:100C100000F010FB0BE12078800601D5E06900E0D0
:100C20000620B8F1650F814606D0B8F1660F18D0DE
:100C3000B8F1670F70D131E00020B9F1110F0090C9
:100C400001DB112301E009F101030AAA01A90CA8A3
:100C5000FFF7E2FEDDE90C70002609F1010583468D
:100C600047E001204B4600904FF000470AAA01A937
:100C70000CA8FFF7D1FEDDE90DB00C995D4600260A
:100C800010B909F101000D18B9EB050003D4C0F14A
:100C9000FF3609F10105A5EB09002BE0B9F1010FC1
:100CA00001DA4FF001090020B9F1110F0090484618
:100CB00001DD112300E003460AAA01A90CA8FFF7F1
:100CC000ABFEDDE90C704D46002683462078000718
:100CD0000AD4AB4500DA5D4601A8012D04DD4119B7
:100CE00011F8011C302907D04F4502DA17F1040F23
:100CF00004DA012082460FE06D1EEEE7002F02DCD1
:100D0000ED1B3E4403E0781CA84200DD7D1CB81BAF
:100D100000F1010A4FF000472078000703D4AA45EC
:100D200001DB4FF0FF3A0021B7F1004F0DF143080E
:100D30008DF8431024D002202B23002F01DA7F42AC
:100D40002D230A21021EA0F1010000DC5FB197FBF8
:100D5000F1FC97FBF1F201FB1C7C17460CF1300C07
:100D600008F801CDEEE7A8F101000370218809051C
:100D700001D5452100E06521A0F1010800F8011C22
:100D800009980FA9A1EB0807FF1D00B10120411927
:100D900001EBEA70A1693844081A401EA06120786E
:100DA000C00602D42046FFF7E5FA099828B1D4E935
:100DB00001219047206A401C20622078C00622D57D
:100DC0002046FFF7D7FA1EE0002E04DBB34502DD14
:100DD00001A8805D00E03020D4E901219047206A1D
:100DE000401C2062761CAAF101005FEA000A0AD1C9
:100DF00000F01CFAC0680168405CD4E9012190470A
:100E0000206A401C2062281EA5F10105DCDC07E0F9
:100E1000D4E9012118F8010B9047206A401C206298
:100E2000381EA7F10107F3DC2046FFF7B9FA0320CB
:100E300011B041E62DE9F04F04460D46D21D22F0D7
:100E4000070089B0D0E900974846394603F014F905
:100E50000246F80F01D02D2307E02068810701D555
:100E60002B2302E0202101EAC0038DF820300BB1D2
:100E7000012000E00020032A824601D0072A04DB7B
:100E80002946204600F0D6F93FE12078800601D4BB
:100E90000D2500E0E569C7F30A560D2D49DA00215A
:100EA0004FEA175B08464FF00000002F00F44000A7
:100EB00007DA00EB80004FF4400100EBD07001EA4C
:100EC00060008115012901DD4FF0FF3100224FEA5A
:100ED000850CBCF1180F06D31346ACF118004FF087
:100EE0008052C24003E04FF4801323FA0CF30CF15C
:100EF0000C0CBCF1200F04D3ACF1200C09FA0CF05F
:100F000001E007FA0CF000294FF0004801DD18B9A4
:100F10000FE00ED140450CD319EB02095F4121B916
:100F2000404502D19F4329EA0209BBEB175F00D07D
:100F3000761C2088000502D57B48784402E07A4878
:100F40007844193808AA302302F80A30037C0AF1E1
:100F50000101002E0AF1020A53546A4602DC4FF0E6
:100F6000300101E04FF031014FF001088DF8001021
:100F700002D0A6F2FF3603E059EA470100D06B4EDB
:100F8000002D02DC2178090704D54FF002082E213C
:100F90008DF80110C44600210BE0C7F303433F0165
:100FA000C35C491C6D1E02F80830052908F10108D0
:100FB00001DA002DF1DC00210CE000EB1973491C73
:100FC0001B786D1E082902F808304FEA091908F14C
:100FD000010801DA002DF0DC21688B0602D516E04D
:100FE000A8F10108E04505DD02EB080313F8013C18
:100FF000302BF5D0B8F1000F09DD02EB080313F830
:10100000013C2E2B03D1090701D4A8F10108002DC2
:1010100005DD3E2102F808106D1E08F10108407C34
:10102000002E02F8080008F1010804DA2D207642AB
:1010300002F8080002E02B2002F808000A214FF411
:101040007A70864208F101080BDB96FBF0F330332F
:1010500002F8083096FBF0F308F1010800FB136674
:1010600001E0642E0CDB642096FBF0F3303302F8D1
:10107000083096FBF0F308F1010800FB136601E06D
:101080000A2E06DB96FBF1F0303002F8080008F17A
:10109000010896FBF1F001FB1060303002F8080007
:1010A000A16908F1010808EB050202EB0A00081A21
:1010B000A0612078C00602D42046FFF75BF9216AC0
:1010C00008AE01EB0A00206204E0D4E9012116F821
:1010D000010B9047BAF1010AF7D22078C00602D579
:1010E0002046FFF747F96E4609E016F8010B3E2847
:1010F0000FD0D4E901219047206A401C2062B8F14A
:101100000108F2D22046FFF74BF909B00320BDE8F1
:10111000F08F206A2844206203E0D4E901213020C6
:1011200090476D1EEBD3F8E72632000002FCFFFF6C
:1011300010B5436913B1AFF3008001E0FFF753F935
:10114000012010BD127800F124010A7000224A70BB
:101150000122EDE711684FF0FF32E9E710B543696E
:1011600013B1AFF3008001E0FFF7D6F9012010BD05
:10117000128800F1240182840022C2840122EDE75A
:1011800011684FF0FF32E9E72DE9F04116460C46B1
:10119000054600F043F8036893F80101012807D0E1
:1011A000FF2C12D8185D80B101202C70BDE8F081B1
:1011B000D3F807013246214603F20713C718284621
:1011C000BC46BDE8F041002360474FF0FF30EDE73B
:1011D000754600F0EBF8AE4605006946534620F030
:1011E0000700854618B020B5FFF748F8BDE8204055
:1011F0004FF000064FF000074FF000084FF0000BD3
:10120000AC46ACE8C009ACE8C009ACE8C009ACE841
:10121000C00921F007018D467047000010B500F0AD
:1012200005F8001D10BD00BFB52E00000048704736
:10123000300000202DE9F0411F46044603260168D6
:10124000072A01F4006004DB08B116A505E016A525
:1012500003E008B115A500E015A521F010002060FD
:10126000A069C01EA0610FB1401EA0612046FFF71B
:1012700081F84FB1D4E9012138469047206A401CDB
:101280002062C01C206206E0206AFAE7D4E901214E
:1012900015F8010B9047761EF8D22046FFF780F82C
:1012A000BDE8F0814E414E006E616E00494E460031
:1012B000696E66002DE9F047814616468AB03548CA
:1012C00078440DC88DE80D0032487844801C03AC8A
:1012D0000DC884E80D0041F69B300844372190FB8F
:1012E000F1F290FBF1F5A5F1800501FB12041B3C26
:1012F00002D56442012000E00020DFF898A080467B
:101300000027FA44AAF1BE0A0EE0E0070AD03246EE
:10131000684607EB470101230AEB810102F075FDE6
:101320008DE8070064107F1C002CEED1194F7F441C
:10133000AE3F19E0E80715D007EB04100DF1180ACD
:1013400090E80E008AE80E00C068F04201D19819BA
:1013500008903246012306A903A802F056FD03AB0C
:1013600083E807006D10641C002DE3D14FF00103EA
:1013700032466946B8F1000F03A802D002F030FDF2
:1013800001E002F042FDC9E90001C9F808200AB0F5
:10139000BDE8F087302F000010B50446AFF30080A1
:1013A0002046BDE81040FEF754BF000000487047DB
:1013B000100000204FF0013C50F8042B51F8043B82
:1013C0009A4221D1A2EB0C03934313EACC1317D119
:1013D00050F8042B51F8043B9A4215D1A2EB0C03B0
:1013E000934313EACC130BD150F8042B51F8043B70
:1013F0009A4209D1A2EB0C03934313EACC13DBD03E
:101400004FF00000704700BFD01A01BAB1FA81F165
:1014100001F0180122FA01F0CB40DBB2C0B2C01AD1
:10142000C1F120012CFA01F3D11A914311EAC31141
:10143000E6D1704701491820ABBEFEE72600020046
:1014400070470000FEE7000002F04EB87047000051
:1014500070470000B0B5044600F01EF9054640F2A2
:101460000000C2F200000078611C18BF044400BFF5
:1014700000F012F9401BA042FAD3B0BD2DE9F04FA5
:1014800082B00E68002E00F0FD8041F20042C4F2EE
:101490000102042340F2004E904208BF03234FF69E
:1014A000FF7CC4F2010E009300240123C1F2100C52
:1014B0004FF0000A4FF000094BE000BF41F200027C
:1014C000C4F20102009F904208BF022704F00C03FF
:1014D0000F229A402BEA020207FA03F34FEA9A0519
:1014E0001A4346F825204E6840F20C45F202DEF819
:1014F000082054BF22EA080242EA0802C4F20105A9
:10150000CEF808202A68B30254BF22EA080242EA51
:1015100008022A60B303DEF8042054BF22EA08025E
:1015200042EA0802F303CEF80420DEF800204FF070
:10153000010354BF22EA080242EA0802CEF8002062
:101540000E680AF1010A36FA0AF204F1040400F006
:10155000998003FA0AFB16EA0B08F1D04E6866453B
:1015600012DC122E56D8DFE806F0350B4D495555E2
:10157000555555555555555555555545510000BF6F
:10158000D1F80C9046E000BF4FF6FF72C1F2210285
:1015900096420FDC0022C1F2110296421AD00022BC
:1015A000C1F21202964215D00022C1F221029642E7
:1015B00010D02FE00022C1F2220296420AD000226F
:1015C000C1F23102964205D00022C1F232029642A7
:1015D00020D100BF8A684AB1012A14BFC0F814B0F4
:1015E000C0F810B04FF0080914E000BF4FF0040934
:1015F00010E000BFCA6802F104090BE04FF00009D7
:1016000008E000BFCA6802F1080903E0CA6802F1F5
:101610000C0900BF02462646B8F5807F24BF04327D
:10162000203E17680F25B54027EA050509FA06F69A
:1016300035431560CA79D2067FF582AF41F21803AF
:10164000C4F202031A68AEF57E7642F001021A6017
:101650001A6802F001020192019A2AF0030256F878
:1016600002B040F60002C4F20102904208D040F6F7
:101670000042C4F2010290427FF420AF012725E727
:10168000002723E702B0BDE8F08F0000002A08BF62
:10169000090401617047000041F20050C2F20000ED
:1016A0000068704740F2000041F20051C2F20000B1
:1016B000C2F2000100780A68104408607047000018
:1016C00080B542F20000C4F20200016841F010014E
:1016D0000160032000F07AF80E2000F005F800F019
:1016E00027F8002080BD000070B540F20006C2F26D
:1016F000000640F208013278C2F200014FF47A731A
:101700000968B3FBF2F20446B1FBF2F1084600F0BF
:101710004BFB0F2C4FF0010508D838B94FF0FF30C4
:1017200021460022002500F025F87460284670BD8F
:1017300082B041F21800C4F202000168022241F0B6
:1017400001010160016801F0010101910199416805
:1017500041F080514160406800F080500090009856
:101760000420C4F20100016862F31A61016002B052
:101770007047000010B54EF60C5CCEF2000CDCF8A1
:101780000030C3F3022E8EF00704042C28BF04247B
:10179000BEF103034FF0FF3E0EFA04F438BF0023FE
:1017A000A14399400EFA03F39A43114300F00F024C
:1017B00000F160430901043A03F5644362440028E0
:1017C00048BF02F10C03197010BD00004EF60C5119
:1017D000CEF200010A684FF6FF031A4060F30A22B6
:1017E00042F0806040F0FD7008607047002804BF40
:1017F000012070472DE9F04381B042F20008C4F2A5
:1018000002080446D8F800000D4600F007008842A0
:101810000CD2D8F8000020F007002843C8F80000D8
:10182000D8F8000000F00700A8426CD1206841F20F
:1018300004098107C4F2020917D5410705D5D9F873
:10184000001041F4E061C9F80010010705D5D9F88E
:10185000001041F46051C9F80010D9F80010A268D6
:1018600021F0F0011143C9F80010C00742D1D8F8A7
:10187000000000F00700A8420CD9D8F8000020F0C2
:1018800007002843C8F80000D8F8000000F007005F
:10189000A84238D12068410707D5D9F80010E2687E
:1018A00021F4E0611143C9F80010000708D5D9F808
:1018B0000000216920F4605040EAC100C9F800002E
:1018C000D9F8002002F00C00082841F20020C0F2F4
:1018D0007A004DD145F69673C2F38341C0F60003FA
:1018E000595CD20338D440F60010C0F23D004843A2
:1018F0003EE000BF606859F8041C022808D00128A7
:1019000026D1890306D4012001B0BDE8F08300BFD1
:101910008901F8D5D9F8001021F003010843C9F86E
:101920000000FFF7B9FE064641F28837D9F80000FB
:10193000616800F00C00B0EB810F98D0FFF7ACFEAF
:10194000801BB842F2D9032001B0BDE8F08300BF8C
:101950008907D8D5DEE700BFD9F8002044F2242358
:10196000C2F34042C0F600039A5C4843B0FBF2F079
:10197000D9F8001044F20C22C1F30311C0F60002A2
:10198000515C40F2080220FA01F140F20400C2F278
:1019900000000068C2F200021160FFF7A5FE0020FF
:1019A00001B0BDE8F0830000002804BF01207047AB
:1019B0002DE9F04182B00446007841F20006C007EC
:1019C000C4F202060CD0706800F00C00042840F04D
:1019D00081803068800303D56068002800F046816C
:1019E000207880071BD5706810F00C0F09D0706844
:1019F00000F00C00082840F087807068C00300F1F8
:101A000083803068800703D52069012840F02E814B
:101A10003068616920F0F80040EAC1003060207849
:101A2000000713D4207840072CD4E569002D00F07E
:101A30001881706800F00C00082840F0A780012D84
:101A400040F00481012002B0BDE8F081A0690028C7
:101A500000F084800020C4F242200121C0F88014EC
:101A6000FFF71AFE054600BF706A800700F1B280DA
:101A7000FFF712FE401B0228F6D9032002B0BDE892
:101A8000F08100BFF0695FEAC00808D4F06940F057
:101A90008050F061F06900F080500090009847F2AB
:101AA0000007C4F200073868C00549D4386840F41C
:101AB00080703860FFF7F0FD054600BF3868C0054C
:101AC0003ED4FFF7E9FD401B6428F7D9032002B09C
:101AD000BDE8F081706800F00C00082803D1706840
:101AE000C0033FF576AF61683068002900F00C81D3
:101AF000B1F5A02F00F00081B1F5803F40F01A81D0
:101B000040F480301CE100BF2069002840F2000052
:101B1000C4F2422000F0888001210160FFF7BCFD83
:101B2000054600BF306880073FF572AFFFF7B4FD90
:101B3000401B0228F6D9032002B0BDE8F08100BFA7
:101B4000E168306A002900F09D80052900F092804C
:101B5000012940F0AF8040F00100B1E00020C4F264
:101B600042200021C0F88014FFF796FD054600BF13
:101B7000706A80077FF556AFFFF78EFD401B022885
:101B8000F6D9032002B0BDE8F08100BF0027C4F2FF
:101B9000422700203866FFF77FFD022D05460DD154
:101BA0003068800140F1DE80FFF776FD401B02289F
:101BB0004FF00300F4D902B0BDE8F0813068800135
:101BC0004FD5FFF769FD401B02284FF00300F5D900
:101BD000F1E700BF40F20800C2F20000006844F6DE
:101BE000D351C1F26201A0FB0101480A019000BF7C
:101BF00000BF0198411E002801913FF413AF00BFC0
:101C00000198411E002801913FF40CAF00BF0198DC
:101C1000411E002801913FF405AF00BF0198411E0D
:101C200000280191E4D1FDE600210160FFF734FDB9
:101C3000054600BF306880077FF5F1AEFFF72CFD49
:101C4000401B02284FF00300F4D9B4E77068216A02
:101C500000F480328A4209D1616A00F4701088422F
:101C600004D1002002B0BDE8F08100BF012002B025
:101C7000BDE8F08140F004003062306A40F00100BD
:101C80001EE000BF20F001003062306A20F0040046
:101C90003062FFF701FD054641F28837306A800760
:101CA00020D5FFF7F9FC401BB8424FF00300F5D9EF
:101CB00081E700BF20F001003062306A20F00400AC
:101CC0003062FFF7E9FC054641F28837306A800749
:101CD00008D4FFF7E1FC401BB842F7D9032002B05B
:101CE000BDE8F081B8F1000F3FF59FAEF06920F03C
:101CF0008050F06199E600BF40F480203060306889
:101D000040F480301CE000BF20F480303060306848
:101D100020F480203060FFF7BFFC05463068800368
:101D20007FF55EAEFFF7B8FC401B64284FF0030060
:101D3000F4D940E720F480303060306820F480200F
:101D40003060FFF7A9FC0546306880033FF548AED8
:101D5000FFF7A2FC401B6428F6D9032002B0BDE8BF
:101D6000F08100BF206AB0F5803F05D17168A2689C
:101D700021F40031114371607168626A21F47411B9
:101D800011430843706001203866FFF785FC044664
:101D9000306880013FF565AFFFF77EFC001B02282D
:101DA0004FF00300F4D906E7411E0020B0EB116F9D
:101DB0001CBF012070474EF21002CEF200025160AB
:101DC0004EF62351CEF20001F0230B7007219060F4
:101DD00011607047FEE700002DE9F04FB1F8018077
:101DE00098FAA8F3B3FA83F338FA03F750D040F225
:101DF000011C4FF0011E4FF00F0A4FF0040903E0E1
:101E0000013338FA03F243D028FA03F5ED07F7D08F
:101E1000B3F108050EFA05F545F080664D6838BF48
:101E20000CFA03F6082D0DD1370AD1F810B0C468AA
:101E300097FAA7F7B7FA87F724EA16240BFA07F7F9
:101E40003C43C460370E96FAA6F6B6FA86F63C58BE
:101E5000B6000AFA06F224EA020205FA06F442EA99
:101E600004053D504A6842F00802092AC8D18A6830
:101E70000324B44025EA0404B2402243C251CC6892
:101E800009FA06F5AA43B4402243C251B8E700BF9D
:101E90000020BDE8F08F000041F2040CC4F2020CF7
:101EA000DCF8002002F00C02082A41F20022C0F205
:101EB0007A0216D1DCF80030DB0305D440F60012BC
:101EC000C0F23D0207E000BFDCF80030C3F340433E
:101ED0000133B2FBF3F2DCF80030C3F38343023387
:101EE0005A430260DCF8003044F20C21C3F30313C0
:101EF000C0F60001C95C44F21C2322FA01F14160E2
:101F0000DCF80020C0F60003C2F302229A5C21FA3A
:101F100002F28260DCF80020C2F3C2229A5CD14057
:101F2000C160704770B584B00446C06880045BD45B
:101F30000D46E06841F20C6105F1040C88439CE811
:101F40004E10084318433043E06020696E4620F489
:101F5000405010432061606920F4407040EA0C005A
:101F600060613046FFF798FF43F60000C4F20100BD
:101F700084420FD044F60000C4F20000844205D031
:101F800044F20040C4F2000084422DD108203058B1
:101F900018B929E00C20305830B3296821B3192230
:101FA00050438900B0FBF1F048F21F51C5F2EB112C
:101FB000A0FB01235A094FF69C73C0F6FF7302FB86
:101FC0000300322303EB0010A0FB0101F02000EA24
:101FD000511000EB0210C1F3431180B20844A0601D
:101FE000002004B070BD00BF012004B070BD00002F
:101FF00081B041F21400C4F2020001684EF60C5C9C
:1020000041F0010101600068CEF2000C00F0010017
:1020100000900098DCF800104EF20E414EF20013D2
:10202000CEF200010022CEF200034FF480400A708D
:102030001860DCF800004FF400404A70186001B0EE
:10204000704700002DE9F04385B0002741F21800E9
:10205000CDE90377CDE90177C4F20200016840F6CB
:10206000000941F0100101600168C4F2010901F0AA
:10207000100100910099016809F5006541F0200107
:1020800001600168002201F02001009100990168BF
:102090004FF4005641F00401016000684FF4005114
:1020A00000F00400009000982846FFF7EFFA484639
:1020B0001F2101224FF01F080124FFF7E7FACDE9A5
:1020C0000164022001AE0490284631460397FFF7D1
:1020D000D5F90320049048463146CDE901840397A1
:1020E000FFF7CCF905B0BDE8F0830000F0B58DB086
:1020F000002641F21800CDE90A66CDE90866CDE96F
:102100000666CDE90466CDE90266CDE90066C4F253
:102110000200016840F6000441F48041016001685A
:10212000022701F480410C910C990168C4F201046A
:1021300041F00401016000686D4600F004000C905D
:102140000C98092001900320C0F20247029020461B
:1021500029460097FFF740FE07F102100090042087
:10216000019020462946FFF737FE4420C4F20200C2
:1021700041694BF6EF72CFF6FF7211404161416940
:10218000022363F30D314161416921F02001416176
:10219000416921F040014161416941F080014161A3
:1021A000416921F440714161416921F4406141611B
:1021B00001681140103101600168012262F30D31A4
:1021C0000160016821F020010160016821F04001F7
:1021D0000160016841F080010160016821F44071F3
:1021E0000160016821F4406101604EF60C50CEF2AE
:1021F00000000068C0F30220C11E38BF3146073816
:1022000018BF012088404EF225410001CEF20001A6
:1022100008704EF20410CEF20000202101604FF44D
:10222000E130CDE905060C20CDE9090604F5405062
:1022300005A9CDE907660B96FFF774FE43F60C007F
:10224000C4F20100416821F490414160816821F0AD
:102250002A018160016841F4005101600DB0F0BDB8
:10226000FEE70000FEE7000030B1012818BF70470C
:10227000A720002101F062B8A620002101F05EB87D
:1022800010B528B1012818BF10BDA024C02001E05E
:10229000A124C820002101F051F820460021BDE80A
:1022A000104001F04BB8000070B540F60004C4F2D5
:1022B00001044FF60045204604210022CFF6FF75A9
:1022C0000026FFF7E3F9C820FFF7C4F820460421F1
:1022D0000122FFF7DBF9AE20002101F02FF80020EA
:1022E000002101F02BF81020002101F027F84020F8
:1022F000002101F023F88120002101F01FF8CF20F8
:10230000002101F01BF8A120002101F017F8C820DE
:10231000002101F013F8A620002101F00FF8A820F9
:10232000002101F00BF83F20002101F007F8D32035
:10233000002101F003F80020002100F0FFFFD5206C
:10234000002100F0FBFF8020002100F0F7FFD920E2
:10235000002100F0F3FFF120002100F0EFFFDA2070
:10236000002100F0EBFF1220002100F0E7FFDB204E
:10237000002100F0E3FF4020002100F0DFFF2020DB
:10238000002100F0DBFF0220002100F0D7FF8D20AC
:10239000002100F0D3FF1420002100F0CFFFA42083
:1023A000002100F0CBFFA620002100F0C7FF40F283
:1023B0007000C2F200002946421811F5807182F8BF
:1023C000006482F8086482F8106482F8186482F865
:1023D000206482F8286482F8306482F8386482F8D5
:1023E000406482F8486482F8506482F8586482F845
:1023F000606482F8686482F8706482F8786482F8B5
:10240000806482F8886482F8906482F8986482F824
:10241000A06482F8A86482F8B06482F8B86482F894
:10242000C06482F8C86482F8D06482F8D86482F804
:10243000E06482F8E86482F8F06482F8F864BBD162
:1024400000212A46831812F5807283F8011483F85C
:10245000091483F8111483F8191483F8211483F8EC
:10246000291483F8311483F8391483F8411483F85C
:10247000491483F8511483F8591483F8611483F8CC
:10248000691483F8711483F8791483F8811483F83C
:10249000891483F8911483F8991483F8A11483F8AC
:1024A000A91483F8B11483F8B91483F8C11483F81C
:1024B000C91483F8D11483F8D91483F8E11483F88C
:1024C000E91483F8F11483F8F914BBD100212A46EA
:1024D000831812F5807283F8021483F80A1483F8C3
:1024E000121483F81A1483F8221483F82A1483F838
:1024F000321483F83A1483F8421483F84A1483F8A8
:10250000521483F85A1483F8621483F86A1483F817
:10251000721483F87A1483F8821483F88A1483F887
:10252000921483F89A1483F8A21483F8AA1483F8F7
:10253000B21483F8BA1483F8C21483F8CA1483F867
:10254000D21483F8DA1483F8E21483F8EA1483F8D7
:10255000F21483F8FA14BBD100212A46831812F52D
:10256000807283F8031483F80B1483F8131483F830
:102570001B1483F8231483F82B1483F8331483F883
:102580003B1483F8431483F84B1483F8531483F8F3
:102590005B1483F8631483F86B1483F8731483F863
:1025A0007B1483F8831483F88B1483F8931483F8D3
:1025B0009B1483F8A31483F8AB1483F8B31483F843
:1025C000BB1483F8C31483F8CB1483F8D31483F8B3
:1025D000DB1483F8E31483F8EB1483F8F31483F823
:1025E000FB14BBD100212A46831812F5807283F8B0
:1025F000041483F80C1483F8141483F81C1483F85F
:10260000241483F82C1483F8341483F83C1483F8CE
:10261000441483F84C1483F8541483F85C1483F83E
:10262000641483F86C1483F8741483F87C1483F8AE
:10263000841483F88C1483F8941483F89C1483F81E
:10264000A41483F8AC1483F8B41483F8BC1483F88E
:10265000C41483F8CC1483F8D41483F8DC1483F8FE
:10266000E41483F8EC1483F8F41483F8FC14BBD15D
:1026700000212A46831812F5807283F8051483F826
:102680000D1483F8151483F81D1483F8251483F8AA
:102690002D1483F8351483F83D1483F8451483F81A
:1026A0004D1483F8551483F85D1483F8651483F88A
:1026B0006D1483F8751483F87D1483F8851483F8FA
:1026C0008D1483F8951483F89D1483F8A51483F86A
:1026D000AD1483F8B51483F8BD1483F8C51483F8DA
:1026E000CD1483F8D51483F8DD1483F8E51483F84A
:1026F000ED1483F8F51483F8FD14BBD100212A46AC
:10270000831812F5807283F8061483F80E1483F888
:10271000161483F81E1483F8261483F82E1483F8F5
:10272000361483F83E1483F8461483F84E1483F865
:10273000561483F85E1483F8661483F86E1483F8D5
:10274000761483F87E1483F8861483F88E1483F845
:10275000961483F89E1483F8A61483F8AE1483F8B5
:10276000B61483F8BE1483F8C61483F8CE1483F825
:10277000D61483F8DE1483F8E61483F8EE1483F895
:10278000F61483F8FE14BBD1002100BF421915F5E1
:10279000807582F8071482F80F1482F8171482F8F3
:1027A0001F1482F8271482F82F1482F8371482F845
:1027B0003F1482F8471482F84F1482F8571482F8B5
:1027C0005F1482F8671482F86F1482F8771482F825
:1027D0007F1482F8871482F88F1482F8971482F895
:1027E0009F1482F8A71482F8AF1482F8B71482F805
:1027F000BF1482F8C71482F8CF1482F8D71482F875
:10280000DF1482F8E71482F8EF1482F8F71482F8E4
:10281000FF14BBD100F006F8AF200021BDE87040E6
:1028200000F08CBD70B5B020002100F087FD0020C5
:10283000002100F083FD1020002100F07FFD40F218
:1028400070046FF00705C2F2000400BF6019007A3F
:10285000012100F073FD0835B5F57E7FF6D1B1207A
:10286000002100F06BFD0020002100F067FD10202A
:10287000002100F063FDE51F802600BF15F8080F5A
:10288000012100F05BFD013EF8D1B220002100F0F3
:1028900055FD0020002100F051FD1020002100F026
:1028A0004DFDA51F802600BF15F8080F012100F07F
:1028B00045FD013EF8D1B320002100F03FFD00208E
:1028C000002100F03BFD1020002100F037FD651FC6
:1028D000802600BF15F8080F012100F02FFD013EF2
:1028E000F8D1B420002100F029FD0020002100F0E3
:1028F00025FD1020002100F021FD251F802600BFAE
:1029000015F8080F012100F019FD013EF8D1B5209E
:10291000002100F013FD0020002100F00FFD102029
:10292000002100F00BFDE51E802600BF15F8080F02
:10293000012100F003FD013EF8D1B620002100F096
:10294000FDFC0020002100F0F9FC1020002100F027
:10295000F5FCA51E802600BF15F8080F012100F028
:10296000EDFC013EF8D1B720002100F0E7FC00208B
:10297000002100F0E3FC1020002100F0DFFC013C0E
:10298000802500BF14F8080F012100F0D7FC013D9D
:10299000F8D170BD2DE9F04F91B01A9D082B8446F7
:1029A000074610900D9340F0FD80203A002DD3B2E1
:1029B00000F0EA8101F00702012000FA02F20E9213
:1029C0004A1C0F9202F0070200FA02F201F1020A19
:1029D0000D920AF0070200FA02F2CF1C0C9207F0E7
:1029E000070200FA02F201F1040E0B920EF0070248
:1029F00001F1050800FA02F208F0070501F10609E5
:102A00000A9200FA05F209F00705CC1D00FA05FB51
:102A100004F0070500FA05F644F2AE5503EB430057
:102A2000C0F6000505EB400010900F980992C3B264
:102A30000E985FFA8EF2C04307900D984FEAD20EBF
:102A4000C04306900C985FFA88F2C04305900B983B
:102A50004FEAD208C04304900A985FFA89F2C04353
:102A6000039009985FFA8AF5C043FFB24FEAD20992
:102A7000E2B202906FEA0B00C908DB08ED08FF081C
:102A80004FEAD20ACDF820B0CDE90060F0434FF014
:102A9000000B0F900EE000BF14F80A200F980240C0
:102AA0000BF1010BBBF1060F0CF1010C04F80A202D
:102AB00000F0548210985FFA8CF410F80B6040F22A
:102AC0007000C2F20000F20700EBC40432D1625C75
:102AD000079802406254B20732D5E25C0D98024377
:102AE000E254720732D5625D0C9802436255320798
:102AF00032D5E25D0B980243E255F20632D514F866
:102B00000E200A98024304F80E20B20632D514F8BB
:102B100008200998024304F80820720632D514F8F8
:102B200009200898024304F8092072B2B2F1FF3F6D
:102B3000B2DC32E0625C0E9802436254B207CCD43D
:102B4000E25C06980240E2547207CCD4625D0598BC
:102B5000024062553207CCD4E25D04980240E2554F
:102B6000F206CCD414F80E200398024004F80E208C
:102B7000B206CCD414F808200298024004F80820C9
:102B80007206CCD414F809200198024004F80920F8
:102B900072B2B2F1FF3F3FF77FAF14F80A200098FE
:102BA00002437DE7DC08012758085E0718BF07EBE2
:102BB000D30404FB00F7FEB2002E0F9000F0CE818C
:102BC000203A002DD3B200F0E2800D980C93182823
:102BD00000F2C481012202FA00F041F20002C0F2C8
:102BE0000112104200F0BA810C9B44F2D67203EB42
:102BF0004300C0F6000202EB800B44F64A40C0F6E8
:102C0000000000EB03100B900D984FF0000A674690
:102C10004FF0010EA6E000BF0B9800EB0A0540F252
:102C20007002F8B2CCB2C2F20002E40802EBC009B2
:102C300001F0070819F8040095F900500EFA08F69B
:102C400040EA0602EB0708BF20EA0602481C09F822
:102C50000420C2B2D20800F0070019F802300EFAC0
:102C600000F043EA0004AE0758BF23EA0004881CC2
:102C700009F80240C2B2D20800F0070019F8023089
:102C80000EFA00F043EA00046E0758BF23EA00047E
:102C9000C81C09F80240C2B2D20800F0070019F8B7
:102CA00002300EFA00F043EA00042E0758BF23EA70
:102CB0000004081D09F80240C2B2D20800F0070063
:102CC00019F802300EFA00F043EA0004EE0658BF8D
:102CD00023EA0004481D09F80240C2B2D20800F0FD
:102CE000070019F802300EFA00F043EA0004AE06BD
:102CF00058BF23EA0004881D09F80240C2B2D20876
:102D000000F0070019F802300EFA00F043EA000460
:102D10006E0658BF23EA0004C81D09F80240C2B27B
:102D2000D20800F0070019F802300EFA00F023EA8A
:102D300000040137002D48BF43EA000409F80240AF
:102D4000F8B20F9AA0EB0C009042109804BF07460F
:102D500008310E9E0D980AF1010A013E0BF1010B9C
:102D600000F0FC8010280E963FF456AF0C285D460C
:102D70003FF455AF0C9845F23A2200EBC000C0F684
:102D8000000202EB800048E7062704200F9044F27F
:102D9000AE5203EB4300C0F6000244F64A450B90E6
:102DA00002EB4008F8B2C0F600050E900C9305EB5C
:102DB00003100D9B00224FF0010E4FF000090A9006
:102DC0000AE000BF09F101090E985FFA89F2824218
:102DD00008F1010880F0C280082B45461CD00C2B5E
:102DE00012D0102B0CD0182B40F0B8800C9800EBB0
:102DF000C00545F23A20C0F6000000EB85050AE068
:102E00000A98851808E000BF0B9844F2D674C0F603
:102E1000000404EB8005154440F2700095F9002091
:102E20005FFA8CF5CFB2C2F20000FF0800EBC50BD1
:102E300001F0070A1BF807500EFA0AF4D00725EA3A
:102E4000040601F1010008BF45EA0406C4B20BF80C
:102E50000760E40800F007001BF804500EFA00F0C9
:102E600025EA0006970758BF45EA0006881C0BF8BC
:102E70000460C4B2E40800F007001BF804500EFA26
:102E800000F025EA0006570758BF45EA0006C81CAF
:102E90000BF80460C4B2E40800F007001BF804500B
:102EA0000EFA00F025EA0006170758BF45EA0006AB
:102EB000081D0BF80460C4B2E40800F007001BF81A
:102EC00004500EFA00F025EA0006D70658BF45EA7E
:102ED0000006481D0BF80460C4B2E40800F00700C7
:102EE0001BF804500EFA00F025EA0006970658BFBA
:102EF00045EA0006881D0BF80460C4B2E40800F03F
:102F000007001BF804500EFA00F025EA00065706E9
:102F100058BF45EA0006C81D0BF80460C4B2E408B7
:102F200000F007001BF804500EFA00F045EA000616
:102F3000002A48BF25EA0006082B0CF1010C0BF80B
:102F400004603FF43FAF109A5FFA8CF00F9C801A38
:102F5000A04204BF9446083134E700BF11B0BDE879
:102F6000F08F00002DE9F04F84B0DF0801265D07E7
:102F700018BF06EBD30707FB03FCBCF1000F02935D
:102F8000019000F0AD810298A0F11007FEB27F0120
:102F900047EAD607F8B2062800F2A281012484404D
:102FA00014F0470F00F09C810D9C0090002C00F065
:102FB000CF8044F22624C0F60004019D04EB421B9E
:102FC0004FF0000EADE000BF44F2E620C0F6000076
:102FD00000EB0E0740F27002E8B2CBB2C2F2000280
:102FE000DB0802EBC00801F0070618F803004FF0F9
:102FF000010C97F900700CFA06F640EA06095FEA40
:10300000C77A08BF20EA0609481C08F80390C3B233
:10301000DB0800F0070018F803600CFA00F046EA3D
:103020000002BC0758BF26EA0002881C08F80320EB
:10303000C2B2D20800F0070018F802300CFA00F013
:1030400043EA00047E0758BF23EA0004C81C08F8BE
:103050000240C2B2D20800F0070018F802300CFAA1
:1030600000F043EA00043E0758BF23EA0004081DAD
:1030700008F80240C2B2D20800F0070018F8023087
:103080000CFA00F043EA0004FE0658BF23EA0004ED
:10309000481D08F80240C2B2D20800F0070018F834
:1030A00002300CFA00F043EA0004BE0658BF23EADF
:1030B0000004881D08F80240C2B2D20800F00700E0
:1030C00018F802300CFA00F043EA00047E0658BFFC
:1030D00023EA0004C81D08F80240C2B2D20800F07A
:1030E000070018F802300CFA00F023EA0004002F61
:1030F00048BF43EA00040135019B08F80240E8B2EA
:10310000029AC01A904204BF08311D46DDF80CC077
:1031100000980EF1010EBCF1010C0BF1010B00F057
:10312000DF800228CDF80CC00CD001283FF44CAF52
:1031300000285F463FF44EAF44F2AE30C0F60000C8
:1031400046E700BF44F22E30C0F6000040E700BF63
:1031500044F22626C0F6000606EB421244F2AE3ACE
:103160000392019A4FF0000EC0F6000A4FF00109D9
:10317000A7E000BF44F2E620C0F6000000EB0E0717
:1031800040F27000D6B2CDB2C2F20000ED0800EB02
:10319000C60897F9007001F0070B18F8056009FAE6
:1031A0000BF426EA0403F80708BF46EA0403481CA8
:1031B00008F80530C3B2DB0800F0070018F8034038
:1031C00009FA00F024EA0005BE0758BF44EA0005EA
:1031D000881C08F80350C3B2DB0800F0070018F899
:1031E000034009FA00F024EA00057E0758BF44EACC
:1031F0000005C81C08F80350C3B2DB0800F0070044
:1032000018F8034009FA00F024EA00053E0758BF09
:1032100044EA0005081D08F80350C3B2DB0800F0BB
:10322000070018F8034009FA00F024EA0005FE063A
:1032300058BF44EA0005481D08F80350C3B2DB0834
:1032400000F0070018F8034009FA00F024EA00052E
:10325000BE0658BF44EA0005881D08F80350C3B2F3
:10326000DB0800F0070018F8034009FA00F024EA30
:1032700000057E0658BF44EA0005C81D08F8035043
:10328000C3B2DB0800F0070018F8034009FA00F0A9
:1032900044EA0005002F48BF24EA00050132019CE2
:1032A00008F80350D0B2029B001B984204BF0831BB
:1032B000224600980EF1010EBCF1010C0AF1010A40
:1032C0000ED058B101283FF455AF022857467FF47D
:1032D00057AF44F22E30C0F600004FE703984DE799
:1032E00004B0BDE8F08F00002DE9F04381B09946AD
:1032F00013780D46A3F12001C9B25E291BD8DDF871
:10330000208006464FEA5907541EB9F1080F08BF3E
:10331000062700BFF0B2DAB229464B46CDF800804E
:10332000FFF738FBA3783E44A3F12000C0B25F282A
:1033300004F10104EED301B0BDE8F083B0B540F66E
:103340000004C4F201040A460546002920464FF055
:10335000080118BF0122FEF799F92046102100222A
:10336000FEF794F9204601210022FEF78FF9EA09C1
:1033700020460221FEF78AF9204601210122FEF7AC
:1033800085F9204601210022FEF780F9C5F380125D
:1033900020460221FEF77AF9204601210122FEF79C
:1033A00075F9204601210022FEF770F9C5F340129D
:1033B00020460221FEF76AF9204601210122FEF78C
:1033C00065F9204601210022FEF760F9C5F30012DD
:1033D00020460221FEF75AF9204601210122FEF77C
:1033E00055F9204601210022FEF750F9C5F3C0022D
:1033F00020460221FEF74AF9204601210122FEF76C
:1034000045F9204601210022FEF740F9C5F380026C
:1034100020460221FEF73AF9204601210122FEF75B
:1034200035F9204601210022FEF730F9C5F34002AC
:1034300020460221FEF72AF9204601210122FEF74B
:1034400025F9204601210022FEF720F905F00102AE
:1034500020460221FEF71AF9204601210122FEF73B
:1034600015F9204610210122FEF710F92046082107
:103470000122BDE8B040FEF709B900007047000026
:1034800070470000FEF70EB970470000AFF30080F0
:1034900043F60000C4F201000168C90658BF704736
:1034A00081B0016840F2F042009100994068C2F298
:1034B0000002009000985820C4F20200016821F038
:1034C000010101604168C1F50061918001215170E5
:1034D00041684FF4006262F30F014160016841F0FE
:1034E0000101016001B070474420C4F2020050F8AD
:1034F000441C890458BF70474FF4005140F8401CE9
:1035000043F60001C4F201016FF040020A60016855
:1035100021F00101016040F2F040C2F200000121FF
:1035200001707047FEE7000083B010B581B084469B
:1035300003A840F2F0440EC0C2F20004A06803AB3E
:103540004FF4006162460093FCF7AAFE2178608088
:10355000012911D1A1684422C4F202026088D1601D
:1035600051684FF6FF73994308445060106840F06B
:10357000010010600020207001B0BDE8104003B0D1
:103580007047000040F2F04CC2F2000C9CF8003092
:10359000012B18BF70474423C4F20203D860586857
:1035A0004FF6FF72904308435860186840F00100DE
:1035B000186000208CF800007047000010B540F241
:1035C000F044EFF3108072B6C2F20004E068A18804
:1035D000FCF784FE00206070A08062B610BD000081
:1035E0002DE9F04182B0442440F2F04540F600500D
:1035F00040F2005143F60407C4F20204C2F200058F
:103600004FF001080026C2F20000C2F20001C4F22D
:10361000010785F80080C5F801606E71C5E90201F7
:10362000E060A760E761216260684FF4006161F3C8
:103630000F006060A06961F30F00A061EFF31080DC
:1036400072B6A8686988FCF749FE85F800806E802C
:1036500062B6EFF3108072B6E868A988FCF73EFE08
:103660006FF040006E70AE8062B647F8040C57F8F9
:10367000040C0190019838680190019843F61400F9
:10368000C4F2010050E8001F41F0800140E8001240
:103690005AB350E8001F41F0800140E8001222B305
:1036A00050E8001F41F0800140E80012EAB150E804
:1036B000001F41F0800140E80012002AE2D114E02E
:1036C00050E8001F41F0400140E80012AAB150E864
:1036D000001F41F0400140E8001272B150E8001FA5
:1036E00041F0400140E800123AB150E8001F41F0BB
:1036F000400140E80012002AE2D1206840F00200B8
:103700002060606940F00100606143F60C00C4F283
:10371000010000BF50E8001F41F0100140E8001216
:10372000AAB150E8001F41F0100140E8001272B148
:1037300050E8001F41F0100140E800123AB150E893
:10374000001F41F0100140E80012002AE2D102B04F
:10375000BDE8F08190B0FDF7B3FF00240120CDE972
:103760000B44CDE9094406900A904FF4E0104FF461
:10377000803102250F9006A8CDE90714CDE90D513F
:10378000FEF712F920B1EFF3108072B6FEE700BF2A
:103790000F20CDE901054FF48060CDE9040401A8B4
:1037A00002210394FEF722F820B1EFF3108072B6E5
:1037B000FEE700BFFEF746FCFEF71AFCFEF796FC9C
:1037C000FEF772FD0020FEF74FFD0020FEF758FDCA
:1037D000012428200821002210230094FFF7C2FBB7
:1037E0003A200821012210230094FFF7BBFB4C2054
:1037F0000821042210230094FFF7B4FB22A2232007
:103800001E2110230094FFF76FFDFFF70BF8FFF761
:10381000E7FE21A0FFF788FE0120FDF71BFE22A096
:10382000FFF782FE0120FDF715FE23A0FFF77CFEC7
:103830000120FDF70FFE24A0FFF776FE0120FDF723
:1038400009FE25A0FFF770FE41F20000C4F201005E
:103850004FF400510122FDF719FF40F2F044C2F28B
:10386000000404E0FFF7AAFE0120FDF7F3FD6078F5
:103870000028F9D0E068A188FFF784FE20780128AD
:10388000F0D100BFFEE700BF202053544F5020204E
:1038900020202020000000005465737420436F64D2
:1038A0006520310D0A0000005465737420436F6475
:1038B0006520320D0A0000005465737420436F6464
:1038C0006520330D0A0000005465737420436F6453
:1038D0006520340D0A0000005465737420436F6442
:1038E0006520350D0A0000005FEA400C08BF91F02A
:1038F000000F4FEA8C234FEAC12243EA51514FEAAD
:103900001C5018BF00F5F0404FEA300018BF41F0DE
:1039100000415FEA6C5C00F02980BCF1FF3F08BF0A
:1039200040F080407047130C06BF12044FF0100C9B
:103930004FF0000C130E04BF12020CF1080C130F11
:1039400004BF12010CF1040C930F04BF92000CF1A0
:10395000020CD30F04BF52000CF1010C11464FF0C2
:103960000002A0F11F00A0EB0C00704711F0004F07
:1039700008BF704731F000413FF4D5AF0B0C06BFD4
:1039800009044FF0100C4FF0000C0B0E04BF09029D
:103990000CF1080C0B0F04BF09010CF1040C8B0F88
:1039A00004BF89000CF1020CCB0F04BF49000CF1DD
:1039B000010CCCF1200322FA03F341EA030102FADD
:1039C0000CF2A0EB0C0000F10100704723F07F47E0
:1039D00020F07F4C80EA030000F00040ACEB0703CE
:1039E00003F57C5303F1FF032DE9804909B44FEA45
:1039F000144324EA03484FEA154B25EA0B4E0FF215
:103A0000042606EB13273E7803FB0667C7F500077D
:103A100007FB06F64FEAD64606F102064FEA543790
:103A200007FB066CCCF1005C4FEA1C472CEA074C04
:103A30000CFB06F507FB06F404EB15464FEA961659
:103A400049085FEA320234BF00204FF000404FEADD
:103A5000D13706FB07FC4FEA1C4C0CFB0BF7D21BC3
:103A600003FB0CF761EB07010CFB0EF7B0EB074013
:103A700072EB17420CFB08F734BFA2EB0742B2EB24
:103A8000074261EB17414FEA0C444FEA910706FBEE
:103A900007FC4FEA1C4C0CFB0BF7B0EBC74072EB7A
:103AA000573203FB0CF734BFA2EBC742B2EBC7425D
:103AB00061EB57310CFB0EF7B0EBC70072EB57729E
:103AC0000CFB08F734BFA2EBC702B2EBC70261EBF5
:103AD00057714FEA816141EA92114FEA826242EAEC
:103AE00090124FEA806004EBCC04039F4FEAD13779
:103AF00006FB07FC4FEA1C4C0CFB0BF7D21B03FB2D
:103B00000CF761EB07010CFB0EF7B0EB074072EB13
:103B100017420CFB08F734BFA2EB0742B2EB074297
:103B200061EB17414FEA8C5504EB9C244FEA910757
:103B300006FB07FC4FEA1C4C0CFB0BF7B0EBC74035
:103B400072EB573203FB0CF734BFA2EBC742B2EB68
:103B5000C74261EB57310CFB0EF7B0EBC70072EBBD
:103B600057720CFB08F734BFA2EBC702B2EBC702D7
:103B700061EB57714FEA816141EA92114FEA82622B
:103B800042EA90124FEA806015EB4C2544F10004A4
:103B90004FEAD13706FB07FC4FEA1C4C0CFB0BF736
:103BA000D21B03FB0CF761EB07010CFB0EF7B0EB2C
:103BB000074072EB17420CFB08F734BFA2EB074239
:103BC000B2EB074261EB17414FEA813141EA924182
:103BD0004FEA823242EA90424FEA80304FEA0C7656
:103BE00015EB1C1544F1000448EA03434EEA0B4868
:103BF0004FF0000EB2EB080C71EB030724BF6246D6
:103C000039464EEB0E0E4FF0000B00185241494161
:103C10004BEB0B0BB2EB080C71EB03077BF1000BCA
:103C200024BF624639464EEB0E0E4FF0000B0018D3
:103C3000524149414BEB0B0BB2EB080C71EB030704
:103C40007BF1000B24BF624639464EEB0E0E51EA63
:103C5000020718BF46F0010616EB0E7655F100027A
:103C600054F1000103D5BDE88901BDE80088BDE835
:103C70008901BDE80048B619524141EB0101A3F1A9
:103C80000103704780807F7E7D7C7B7A79787776B0
:103C900076757473727171706F6E6E6D6C6C6B6A29
:103CA0006A696868676666656464636362616160C7
:103CB000605F5F5E5E5D5D5C5C5B5B5A5A59595844
:103CC00058575756565555555454535352525251AE
:103CD000515050504F4F4F4E4E4D4D4D4C4C4C4B04
:103CE0004B4B4A4A4A49494948484847474747464B
:103CF0004646454545444444444343434342424287
:103D0000424141419C46002B30D477002BD04FEAF2
:103D100037071CB503B44FF010004FF01001BAF193
:103D2000000F06D0BCF1000FDCBF40F0080040F0EF
:103D300008014FF000000FBCBDE810400BF1010B73
:103D4000BBF1010F08BF5FEA170722BF12F10102A2
:103D500011F101014FF0004143F1000300F0004078
:103D600043EA00007047F9D35708D0E746EA064611
:103D70004FEA164613F1400F1FDD13F1200FDFBF8E
:103D800016430A46002120335B42BED0C3F1200710
:103D900046EA06464FEA164602FA07F746EA0706DB
:103DA00022FA03F2C3F1200701FA07F742EA0702F9
:103DB00021FA03F14FF00003A7E746EA020646EABC
:103DC00006464FEA164646EA0106BCBF46EA0646E4
:103DD000360C4FF000034FF000024FF0000194E763
:103DE0002DE9804C70B49A46934691E8380007C894
:103DF00031EA400C48BF34EA430C03D5FFF7E6FD37
:103E0000FFF780FFF0BCBDE8008C2DE9804C70B45A
:103E10009A46934691E8380007C810F0804F08BFD3
:103E200013F0804F03D100F005F8FFF76BFFF0BCF3
:103E3000BDE8008C20F07F4723F07F4C80EA030030
:103E400000F0004007EB0C03A3F57C53A3F1FE0345
:103E500092F0000F00F0B38095F0000F00F0778033
:103E60002DE901494FEA114021EA00484FEA144682
:103E700024EA064700FB06FC08FB06F607FB08F8E9
:103E800018EB06484CEB164C00FB07F718EB0748FD
:103E90004CEB17404FEA124B22EA0B4E4FEA154605
:103EA00025EA06470BFB06FC0EFB06F607FB0EFE9B
:103EB0001EEB064E4CEB164C0BFB07F71EEB074EAA
:103EC0004CEB174B18EB0B0840F1000018EB0E0BF6
:103ED00058EB000840F100008F1A4FF000014FF03E
:103EE00000063CBFC943661B14BFB5EB040C0021A0
:103EF0003CBFC943F61B4FEA174427EA04454FEA83
:103F00001C472CEA074C04FB076205FB07F70CFB78
:103F100005F616EB074642EB174204FB0CFC16EBCA
:103F20000C4642EB1C421BEB060658EB02024141D9
:103F30004EEA8E0E46EA9E0601D5BDE80189B61905
:103F4000524141EB0101A3F10103BDE801894FEAB0
:103F5000144524EA05464FEA114721EA074C05FBC0
:103F600007F406FB07F70CFB06F111EB074144EBE6
:103F7000174405FB0CFC11EB0C4144EB1C444FEACD
:103F8000124722EA074C05FB07F206FB07F70CFB7A
:103F900006F616EB074642EB174205FB0CFC16EB48
:103FA0000C4642EB1C456A1854F1000148BF7047AB
:103FB000B619524141EB0101A3F10103704795F09D
:103FC000000F37D04FEA114221EA02464FEA144768
:103FD00024EA074C02FB07F106FB07F70CFB06F48B
:103FE00014EB074441EB174102FB0CFC14EB0C44AF
:103FF00041EB1C414FEA154725EA074C02FB07F548
:1040000006FB07F70CFB06F616EB074645EB1745D4
:1040100002FB0CFC16EB0C4645EB1C42121951F14D
:10402000000148BF7047B619524141EB0101A3F1AD
:10403000010370474FEA144524EA05464FEA114749
:1040400021EA074C05FB07F106FB07F70CFB06F21C
:1040500012EB074241EB174105FB0CFC12EB0C4243
:1040600051EB1C414FF0000648BF7047921841EBDE
:104070000101A3F101037047490050EAC12018BFB4
:1040800004204A0D18BF40F0010040F2FF72B2EB6D
:10409000515F08BF40F00200012808BF05207047AB
:1040A00030380A2801D201207047002070470000F4
:1040B00010B500290AD00878002807D005487844B0
:1040C000FDF778F9002801D0002010BD024878449F
:1040D00010BD00000A1F0000021F000010B50029DB
:1040E0000AD00878002807D005487844FDF762F91F
:1040F000002801D0002010BD0248784410BD000007
:10410000FA1E0000F21E0000FCF75EBDFCF792BE36
:104110000000000000000000303132333435363703
:1041200038394142434445464030580030313233FB
:1041300034353637383961626364656640307800FB
:104140000400000800000000000000020001000060
:104150001030313233343536373839616263646553
:104160006678700030313233343536373839414271
:10417000434445465850000002400000000000A0A3
:104180000000000005400000000000C80000000022
:104190000C4000000000409C00000000194000009E
:1041A0000020BCBE0000000034400000BFC91B8ED0
:1041B00000000004B5400000504BCFD06607E2CFAE
:1041C000010000006C4100003E8251AADFEEA734DE
:1041D00001000000D9420000DCB5A0E23A301F9790
:1041E000FFFFFFFFB4450000FD25A0C8E9A3C14FB4
:1041F000FFFFFFFFFF3F0000000000800000000005
:10420000FF3F0000000000800000000000000000F0
:104210000000000001020304060708090000000076
:104220000102030401020000041464040CB402023D
:1042300042330200000040412111090503FF03053C
:10424000091121414000201008FC57545455FE54D8
:1042500054545404000044442427150D05FF050D53
:1042600015252545440000F808080808887F8808B7
:10427000080808F8000000FF00080402010000011F
:10428000024C807F000000FE0222DA0600FE22229D
:104290002222FE00000000FF08100847407F424233
:1042A00042427F404000008060F80704E4A4A4BFBD
:1042B000A4A4E4040000010000FF40407F4A4A4AF1
:1042C0004A4A7F4040000000F00804020202020453
:1042D00008F00000000000000C090A0C00000C0AA5
:1042E000090C00000000000000C0808080808080F9
:1042F00080FC84808080808080C0C000000000003E
:1043000000FF7F404040404040FF40404040404030
:1043100040FF7F00000000000000000000000000DF
:10432000007F70000000000000000000000000009E
:1043300000000000000000000000000000FCF80089
:10434000000000000000000000000000000000006D
:104350000000FFFE020202020202020202FFFF024E
:104360000202020202020202FF030000000000003B
:1043700000001F1F040404040404040404FFFF04D9
:1043800004040404040404041F00000000000000EE
:10439000000000000000000000000000007F3F005F
:1043A000000000000000000000000000000000000D
:1043B00000000000000000000000000000000000FD
:1043C0000000000000000000000000F8F8F0F070AD
:1043D00020000000000000000000000000000000BD
:1043E00000000000000000000000000000000000CD
:1043F000000000000000800000000000000000003D
:104400000000000000000000000000FFFFFFFF00B0
:10441000000000000000000000000000000000009C
:10442000000080800000000000000000000000008C
:1044300000000000000000FFFFFE0606060606065C
:104440000606060606060606060606FFFFFFFF0628
:1044500006060606060606060606060606060606FC
:1044600006FFFFFFFF070200000000000000000041
:1044700000000000000000FFFFFF0000000000003F
:104480000000000000000000000000FFFFFFFF0030
:10449000000000000000000000000000000000001C
:1044A00000FFFFFFFF000000000000000000000010
:1044B00000000000000000FFFFFF1818181818186F
:1044C0001818181818181818181818FFFFFFFF18D0
:1044D000181818181818181818181818181818185C
:1044E00018FFFFFFFF0000000000000000000000B8
:1044F00000000000000002010100000000000000B8
:104500000000000000000000000000FFFFFFFF00AF
:10451000000000000000000000000000000000009B
:104520000001010000000000000000000000000089
:10453000000000000000000000000000000000007B
:104540000000000000000000000000FFFFFFFF006F
:10455000000000000000000000000000000000005B
:10456000000000000000000000000000000000004B
:10457000000000000000000000000000000000003B
:1045800000000000000000000000001F1F0F0F00CF
:10459000000000000000000000000000000000001B
:1045A000000000000000000000000000000000000B
:1045B000000000000000002F0000000007000700BE
:1045C00000147F147F1400242A7F2A1200626408DA
:1045D0001323003649552250000005030000000057
:1045E0001C224100000041221C000014083E081457
:1045F0000008083E0808000000A060000008080845
:104600000808000060600000002010080402003E5E
:104610005149453E0000427F4000004261514946F9
:10462000002141454B31001814127F1000274545E9
:104630004539003C4A4949300001710905030036FB
:104640004949493600064949291E0000363600000E
:104650000000563600000008142241000014141413
:10466000141400004122140800020151090600320E
:104670004959513E007C1211127C007F494949364C
:10468000003E41414122007F4141221C007F4949B7
:104690004941007F09090901003E4149497A007FEB
:1046A0000808087F0000417F4100002040413F0191
:1046B000007F08142241007F40404040007F020CF0
:1046C000027F007F0408107F003E4141413E007F91
:1046D00009090906003E4151215E007F091929465A
:1046E0000046494949310001017F0101003F404036
:1046F000403F001F2040201F003F4038403F0063E4
:104700001408146300070870080700615149454305
:1047100000007F41410000552A552A5500004141C3
:104720007F000004020102040040404040400000BD
:1047300001020400002054545478007F4844443857
:1047400000384444442000384444487F00385454DE
:10475000541800087E0901020018A4A4A47C007F5C
:10476000080404780000447D4000004080847D00FF
:10477000007F102844000000417F4000007C0418A6
:104780000478007C0804047800384444443800FC71
:10479000242424180018242418FC007C080404088D
:1047A00000485454542000043F444020003C404002
:1047B000207C001C2040201C003C4030403C004439
:1047C00028102844001CA0A0A07C004464544C4441
:1047D0001414141414140000000000000000000061
:1047E00000000000FC000000000002000000000CBF
:1047F000020C020000000000000090D0BCD0BC9071
:104800000003000300001824FE448C00030207028A
:1048100001001824D8B04C80000300010201C03808
:10482000E438E00001020201020208060000000074
:10483000000000000000000000F804020000000179
:104840000204000204F8000000040201000090606D
:10485000F86090000000010000002020FC202000F3
:104860000000010000000000000000000806000039
:104870000000202020202000000000000000000098
:10488000000000000002000000000080601C020028
:10489000040300000000F8040404F800010202020E
:1048A00001000008FC000000000203020000188460
:1048B0004424180003020202020008042424D80041
:1048C00001020202010040B088FC800000000003E9
:1048D00002003C242424C400010202020100F82446
:1048E000242CC0000102020201000C04E41C04009C
:1048F000000003000000D8242424D8000102020292
:10490000010038444444F8000003020201000000A2
:104910001000000000000200000000002000000065
:104920000000060000000020508804020000000083
:1049300001029090909090000000000000000002A2
:10494000048850200002010000001804C42418004C
:10495000000002000000F804E494F80001020202E2
:10496000020000E09CF0800002030000030204FC4F
:104970002424D800020302020100F80404040C00FD
:1049800001020202010004FC0404F8000203020216
:10499000010004FC24740C0002030202030004FC66
:1049A00024740C00020302000000F0080444CC4010
:1049B00000010202010004FC2020FC0402030000AC
:1049C00003020404FC0404000202030202000004C7
:1049D00004FC040406040403000004FC24D00C04BA
:1049E00002030200030204FC0400000002030202AE
:1049F0000203FC3CC03CFC0003000300030004FC79
:104A000030C4FC04020302000300F8040404F800AC
:104A100001020202010004FC242418000203020027
:104A20000000F8848404F80001020207050004FC79
:104A300024649800020302000302182424448C001A
:104A40000302020201000C04FC040C000002030239
:104A5000000004FC0000FC04000102020100047CD0
:104A600080E01C040000030000001CE03CE01C008F
:104A7000000300030000049C609C04000203000388
:104A80000200041CE01C04000002030200000C846D
:104A9000641C04000203020203000000FE02020084
:104AA000000007040400000E30C0000000000001F8
:104AB0000200000202FE00000004040700000004DF
:104AC00002040000000000000000000000000000E0
:104AD00008080808080800000200000000000000A4
:104AE00000000040A0A0C00000010202030204FC7C
:104AF0002020C00000030202010000C0202060004E
:104B000000010202020000C02024FC000001020299
:104B1000030200C0A0A0C0000001020202000020A9
:104B2000F82424040002030202000040A0A0602038
:104B300000070A0A0A0404FC2020C0000203020045
:104B400003020020E4000000000203020000000055
:104B500020E4000008080807000004FC80E0202092
:104B60000203020003020404FC000000020203022C
:104B70000200E020E020C00003000300030020E06A
:104B80002020C00002030200030200C02020C00059
:104B900000010202010020E02020C000080F0A02EC
:104BA000010000C02020E0000001020A0F0820E000
:104BB000402020000203020000000060A0A02000AE
:104BC0000002020203000020F820000000000102A1
:104BD000020020E00020E00000010202030220E0C9
:104BE000208060200000030100006080E080600001
:104BF0000003000300002060806020000203000327
:104C0000020020E02080602008080701000000204A
:104C1000A0602000000203020200000020DE02006B
:104C2000000000070400000000FF00000000000F6B
:104C300000000002DE200000000407000000020166
:104C40000204040200000000000000000000000058
:104C500000000000000000000000000000F800005C
:104C60000000000000333000000000100C06100CA3
:104C70000600000000000000000040C07840C0783E
:104C80004000043F04043F040400007088FC083026
:104C90000000001820FF211E0000F008F000E018BE
:104CA000000000211C031E211E0000F00888700077
:104CB00000001E2123241927211010160E000000C9
:104CC00000000000000000000000000000E01804E8
:104CD0000200000000071820400000020418E00055
:104CE00000000040201807000000404080F0804095
:104CF00040000202010F01020200000000F000006B
:104D000000000101011F010101000000000000007E
:104D1000000080B0700000000000000000000000F3
:104D2000000000010101010101010000000000007C
:104D30000000003030000000000000000000806033
:104D40001804006018060100000000E010080810B8
:104D5000E000000F102020100F00001010F80000DD
:104D600000000020203F2020000000700808088874
:104D70007000003028242221300000300888884844
:104D800030000018202020110E000000C02010F874
:104D9000000000070424243F240000F80888880845
:104DA00008000019212020110E0000E0108888184A
:104DB0000000000F112020110E0000380808C8382C
:104DC00008000000003F000000000070880808880C
:104DD0007000001C222121221C0000E01008081095
:104DE000E0000000312222110F00000000C0C000CE
:104DF00000000000003030000000000000800000D3
:104E000000000000806000000000000080402010D2
:104E100008000001020408102000404040404040CB
:104E2000400004040404040404000008102040802E
:104E30000000002010080402010000704808080863
:104E4000F0000000003036010000C030C828E81033
:104E5000E0000718272423140B000000C038E000EE
:104E60000000203C23020227382008F88888887038
:104E70000000203F202020110E00C0300808080844
:104E80003800071820202010080008F8080808102B
:104E9000E000203F202020100F0008F88888E80854
:104EA0001000203F20202320180008F88888E808F8
:104EB0001000203F200003000000C0300808083820
:104EC000000007182020221E020008F80800000831
:104ED000F808203F210101213F20000808F80808B8
:104EE00000000020203F2020000000000808F808F3
:104EF0000800C08080807F00000008F888C0281863
:104F00000800203F20012638200008F80800000093
:104F10000000203F20202020300008F8F800F8F89A
:104F20000800203F003F003F200008F830C0000884
:104F3000F808203F200007183F00E010080808107C
:104F4000E0000F10202020100F0008F808080808C3
:104F5000F000203F210101010000E01008080810C6
:104F6000E0000F18242438504F0008F888888888FB
:104F70007000203F2000030C3020007088080808D3
:104F800038000038202121221C00180808F80808E1
:104F900018000000203F2000000008F8080000086A
:104FA000F808001F202020201F000878880000C873
:104FB0003808000007380E010000F80800F8000863
:104FC000F800033C0700073C03000818688080686D
:104FD000180820302C03032C30200838C800C838AB
:104FE00008000000203F2000000010080808C83812
:104FF00008002038262120201800000000FE0202B0
:1050000002000000007F40404000000C30C0000063
:105010000000000000010638C00000020202FE008D
:105020000000004040407F00000000000402020237
:10503000040000000000000000000000000000006C
:105040000000808080808080808000020204000058
:105050000000000000000000000000008080808050
:1050600000000019242222223F2008F8008080003E
:105070000000003F112020110E0000000080808001
:105080000000000E11202020110000000080808808
:10509000F800000E112020103F200000808080804A
:1050A0000000001F222222221300008080F0888846
:1050B00088180020203F2020000000008080808091
:1050C0008000006B94949493600008F800808080C6
:1050D0000000203F210000203F2000809898000021
:1050E00000000020203F2020000000000080989851
:1050F000000000C08080807F000008F800008080F1
:105100008000203F24022D302000000808F8000015
:1051100000000020203F20200000808080808080D0
:105120008000203F20003F20003F80800080808062
:105130000000203F210000203F2000008080808070
:105140000000001F202020201F00808000808000A1
:10515000000080FFA12020110E0000000080808050
:105160008000000E112020A0FF80808080008080C1
:10517000800020203F2120000100000080808080EE
:1051800080000033242424241900008080E08080E3
:1051900000000000001F2020000080800000008030
:1051A0008000001F202020103F2080808000008091
:1051B000808000010E3008060100808000800080A1
:1051C00080800F300C030C300F0000808000808046
:1051D00080000020312E0E31200080808000008071
:1051E000808080818E701806010000808080808021
:1051F00080000021302C2221300000000000807C43
:10520000020200000000003F404000000000FF00DC
:10521000000000000000FF0000000002027C80008F
:1052200000000040403F00000000000601010202B3
:105230000404000000000000000000000000000066
:10524000000000000000000000000000000000005E
:10525000000000000000000000000000000000004E
:10526000000000F0F0F0000000000000000000016D
:105270007F010000000000000000001C1C1C00005A
:10528000000000008060301C8C60301C0C000000AE
:10529000000000000000000000000000000000000E
:1052A000000000000000000000E00000000000E03E
:1052B00000000086E69F86868686E69F86000001BF
:1052C0001F01010101011F010100000080C06020D9
:1052D000F820E0C00000000003070C18FF70E18117
:1052E00000000000070F10107F100F070000806003
:1052F000206080000000E02000000F3020309F7010
:10530000DC371030C0000000100E03000718101822
:1053100007000000C02020E0C0000000000080E086
:105320001F38E88703C43C040000070F1810100B57
:10533000070D1010080000808C4C380000000000A1
:10534000000000000000000000000000000000005D
:10535000000000000000000000000000000000004D
:1053600080E0300804000000000000FEFF010000A3
:105370000000000000000000030F1820400000049F
:105380000830E0800000000000000000000001FF85
:10539000FE0000000000004020180F030000000085
:1053A0000000000000000000C000000000000042FB
:1053B00066663C18FF183C6666420000000000006C
:1053C000030000000000000000000000800000005A
:1053D0000000001010101010FF101010101000002E
:1053E00000000000030000000000000000000000BA
:1053F00000000000000000000000000000000000AD
:10540000000000808C4C380000000000000000000C
:10541000000000000000000000000010101010103C
:10542000101010101000000000000000000000002C
:10543000000000000000000000000000000000006C
:105440000000000000000000000000001C1C1C0008
:105450000000000000000000000000000000E03834
:105460000C000000000080701C03000000000060C1
:10547000380E0100000000000000000080C0602025
:105480002060C080000000FEFF010000000001FF5E
:10549000FE000001070E181010180E070100000092
:1054A000808080C0E000000000000000000000FFDD
:1054B000FF000000000000001010101F1F1010104F
:1054C00000000080402020202060C08000000003F9
:1054D0000300804020381F070000001C1A1918180C
:1054E0001818181F00000080C020202060C0800015
:1054F0000000000303001010182FE78000000007D1
:105500000F10101010180F0700000000000000001E
:10551000C0E0F000000000C0B088868180FFFF80FE
:105520008000000000000010101F1F10100000007D
:10553000E060606060606060000000003F1008088C
:105540000818F0E0000000070B101010101C0F03EB
:105550000000000080C040202020E0C0000000FCCF
:10556000FF211008080818F0E0000001070C1810CF
:105570001010080F03000000C0E06060606060E091
:105580006000000003000000E018070000000000B9
:105590000000001F1F00000000000080C0602020ED
:1055A000202060C080000087EF2C1818303068CFB2
:1055B000830000070F0810101010180F07000000DC
:1055C000C0C020202020C0800000001F3F6040405D
:1055D000402010FFFE0000000C1C101010080F03EC
:1055E00000000000000000000000000000000000BB
:1055F0000000000E0E0E0000000000000000001C65
:105600001C1C000000000000000000000000000062
:10561000000000000000000C0C0000000000000072
:1056200000000058380000000000000000000000EA
:10563000008040201000000010284482010000007B
:10564000000000000000000001020408100000003B
:1056500000000000000000000000008484848484B6
:1056600084848484840000000000000000000000A6
:10567000000000001020408000000000000000003A
:1056800000000000018244281000000010080402FD
:1056900001000000000000C020201010101030E0B9
:1056A000C0000003030000F010080C070300000016
:1056B00000001C1C1C0000000000000000C0406036
:1056C00020202040C00000FCFF01F00E03C1FE03BB
:1056D000807F0001070E081111101109040200005B
:1056E000000080E0E000000000000000807C4340FB
:1056F000477FF880000010181F1000000000131FE3
:105700001C1020E0E02020202060C080000000FF6E
:10571000FF10101010182FE78000101F1F1010101E
:105720001010180F0700000080C0402020202060CB
:10573000E00000FCFF01000000000000010000018B
:10574000070E181010100804030020E0E0202020AD
:105750002040C080000000FFFF000000000001FFAB
:10576000FE00101F1F10101018080E07010020E087
:10577000E020202020202060800000FFFF1010107B
:10578000107C00000000101F1F10101010101018C7
:10579000060020E0E020202020206060800000FF44
:1057A000FF101010107C00000100101F1F100000DF
:1057B000000000000000000080C06020202040E0C9
:1057C000000000FCFF0100004040C0C1404000015B
:1057D000070E181010100F0F000020E0E02000004E
:1057E000000020E0E02000FFFF101010101010FF5C
:1057F000FF00101F1F1000000000101F1F100000EE
:10580000202020E0E020202000000000000000FF19
:10581000FF000000000000001010101F1F101010EB
:10582000000000000000202020E0E02020200000F8
:105830000000000000FFFF0000000060E0808080AA
:10584000C07F3F00000020E0E020000020A060209A
:10585000200000FFFF30187CE3C000000000101F94
:105860001F10000001131F1C181020E0E020000092
:1058700000000000000000FFFF000000000000002A
:105880000000101F1F10101010101018060020E04C
:10589000E0E000000000E0E0E02000FF013FFEC08B
:1058A000E01E01FFFF00101F1000031F0300101F68
:1058B0001F1020E0E0C0000000000020E02000FFFA
:1058C0000003071C78E08000FF00101F100000009C
:1058D0000000030F1F00000080C060202060C08017
:1058E000000000FEFF010000000000FFFE000001BC
:1058F000070E181010180C07010020E0E0202020EF
:10590000202060C0800000FFFF2020202020301FCA
:105910000F00101F1F10000000000000000000001A
:1059200080C060202060C080000000FEFF010000F9
:10593000000000FFFE000001070E1111133C7C6700
:10594000210020E0E0202020202060C0800000FF17
:10595000FF101030F0D0080F0700101F1F100000BC
:1059600000030F1C10100080C06020202020404049
:10597000E00000070F0C1818303060E08100001FB5
:105980000C0810101010180F07008060202020E075
:10599000E020202060800100000000FFFF000000E8
:1059A000000100000000101F1F100000000020E098
:1059B000E020000000000020E02000FFFF000000C9
:1059C00000000000FF0000070F1810101010100852
:1059D00007002060E0E02000000020E060200000E0
:1059E000077FF88000807C03000000000000071F94
:1059F0001C070000000020E0E02000E0E020002084
:105A0000E0200007FFF8E01FFFFCE01F000000009F
:105A1000031F0300011F03000000002060E0A0003E
:105A20000020E0602000000000038F7CF8C6010029
:105A300000000010181E130001171F18100020602E
:105A4000E0E02000000020E06020000001073EF8B8
:105A5000E0180700000000000010101F1F101000C9
:105A6000000000806020202020A0E0E02000000056
:105A70000000C0F03E0F0300000000101C1F1710B4
:105A80001010101806000000000000FC04040404BC
:105A900004000000000000FF000000000000000003
:105AA0000000007F404040404000000010E0000047
:105AB00000000000000000000000031C60800000E7
:105AC000000000000000000000030C7080000000D7
:105AD0000404040404FC00000000000000000000B6
